:020000040000fa
:080000000002040000000000f2
:020000040000fa
:100400008fcf20000eff27000e01880000000000a3
:100410000c00070040162100010020001f0007000b
:10042000000020000000e000020032000000020096
:1004300000000000da0f0200000000000040da00b7
:100440000000fe004440a900000620000000e0007b
:100450000300320000002000a00188004440a800f2
:1004600000000600f03fb1000180b1000600350039
:10047000ee03090000000000403fb1000180b10020
:10048000fbff3d001000b000203fb000020035002f
:1004900000800900000000000000060091018800b3
:1004a000800078000000eb0015003700e28040007b
:1004b00032a0b4009101ba00e280400032a0b40042
:1004c0009102ba00e280400032a0b4000002eb00ca
:1004d000472bde00f507b200602ce10004003a0073
:1004e0000059eb008301e900fdff3e0004003700e6
:1004f0006128e100010032000082eb0004000700e7
:100500001101ba000200e000e8ff3a000000060016
:100510003159ba008301e9000c0032002159ba00b8
:100520008301e900080032000400e00003003a0003
:10053000e280400032a0b400f5ff370011d9ba00c4
:100540008301e900faff3a008100e800e180400001
:1005500032a0b400000006000040da000000fe00f7
:100560000a00fa0080017800e20f500028003e00e7
:10057000b0478000e10f50000800320080232000c7
:100580000000e000050032000423200025232000a5
:100590004623200080017800040037000422200058
:1005a00025222000462220008322200014409000b3
:1005b0000004e000040035008009eb0014409000c6
:1005c0000074a00010429800154090000028a3007d
:1005d00003003a00154090000024a00090429800cb
:1005e0008001eb0007003700154090000008a300d1
:1005f000fdff320063c078000000fb00000b7800b4
:100600008301e800828f5100f7ff3a0008003700ad
:1006100030002000b0bf9f00c3bf9f00d1bf9f002c
:10062000e2bf9f006a80570000c0da006fb99700f0
:10063000020078000080fa0000000600881f7800a1
:10064000000478005001be004000be0004004000dd
:10065000858048000601490087814900009cbe0052
:100660000294be000400e1000588e1000690e1006c
:100670000798e10002003100680044001008e8001b
:100680004f04780000000600f4874700889fbe00f2
:100690008a9fbe008c9fbe008e1f78000205be00a0
:1006a0000004be00d4b79f00e5b79f00f6b79f00d7
:1006b00087bf9f000000eb00c0b79f00b0b79f004e
:1006c000a0b79f0090b79f0080b79f000d04200047
:1006d000bfb097004fb09700000140000000e0005d
:1006e0000f003d004f08de0000007100c0b79f0002
:1006f0009e00070001003d0012002000a10007003d
:1007000001003d0012002000a6000700b100070014
:10071000b60007000f004000c8ff070022003700a6
:100720004f08de0000067100ccb79f008f00070065
:1007300001003d00120020009200070001003d0072
:100740001200200097000700a20007000fb29700d8
:100750009fb297002fb39700bfb39700a90007007f
:100760000000520081805a0002015b0083815b001f
:1007700080b79f0091b79f00a2b79f00b3b79f00bb
:100780000007eb009f0007000020e10001a8e10046
:1007900002b0e10003b8e100010031001e002000ba
:1007a0000e005600c0b79f004fb297000400e00053
:1007b0000700350010002000010020006011b80083
:1007c00008047000898470000a0571008b8571002f
:1007d0008d06e900beff3a000400e00003003d0082
:1007e000820007000f00400094ff07004fa8970009
:1007f0000000e00004003a000fb497009fb4970097
:100800002fb59700bfb59700940007004f077800f9
:100810004f06be004f05be004f04be004f01b100a1
:1008200000000600881f780018002000881f78004c
:1008300095ff07008f87e9004f047800000006004d
:10084000801feb0090ff07008f87e9000000060083
:10085000889fbe008a9fbe008c1f78006e00070034
:1008600007003d0073000700e00f5b00e08f5b00b6
:1008700007003d00320007000006eb0004003700cf
:100880003400070002003d002a0007001c00200081
:1008900072000700e3ff07000203be000002be0073
:1008a0000c00e00001003200220007000400be003e
:1008b0000601be004f0678004f05be004f04be0083
:1008c00000000600889fbe008a9fbe008c1f780033
:1008d0005100070005003d0056000700e00f5b00d7
:1008e000e08f5b0006003d000400370019000700a0
:1008f00003003d006000b8006011b8001000070060
:1009000056000700ceff07000203be000002be0033
:100910000c00e00001003200060007000400be00e9
:100920000601be004f0678004f05be004f04be0012
:10093000000006006000b8006011b8000000370039
:10094000040250008582580006035900878359002d
:10095000000006000006eb00e00f5200e08f5a0096
:10096000e00f5b00e08f5b000000060001804000ac
:1009700090b79f000001eb008fb097000100e000ee
:10098000000006000200700090b79f000180400048
:1009900080b79f000001eb00ffa897000100e00076
:1009a000000006000200700080b79f000180400038
:1009b0006faa9700cf20de0001007000f0af9f000b
:1009c00004024200250007004f18de0000027200fa
:1009d00000000600e4af9f000804440089844c0036
:1009e0000a054d008b854d00000006003fb29700c0
:1009f000cfb297005fb39700efb3970000fe2f00d0
:100a0000000006003fb09700cfb097005fb197009d
:100a1000efb19700000006000205be000004be0012
:100a2000e00f5000e08f5800e00f5900e08f5900b0
:100a3000000006006000b8006011b8000804500013
:100a4000898458000a0559008b8559001c00200034
:100a5000e00f5200e08f5a00000006000800be00c0
:100a60000a01be0000000600421188000011880043
:100a700011118800000006000000fa00cfb89700ae
:100a800068815700808d20002c0007000080fa004c
:100a900000000600881f78000004780030009000f5
:100aa0000008a30007003200800078000120b20097
:100ab00004003a0011049800a8009000010c78008e
:100ac000170037000018a300190032000098a30097
:100ad00017003200a80090000100e000140032006e
:100ae000180190000200e000110032004800900060
:100af0009bfe070098009000810f50000300320019
:100b0000380090000003b300300498000000eb00b0
:100b10001004980028009000000c78003800900025
:100b20000058a300020032000080eb0001003700f3
:100b30000000eb004f04780000000600fe8747002d
:100b4000889fbe008a9fbe008c9fbe008e1f7800cb
:100b5000f0b79f000107780082bf9f000000eb0004
:100b6000a0b79f009f0237008006eb0050c2b30081
:100b700080cf5000090032000100fb00ffb0970059
:100b8000a3020700e10f400096023200afb09700c9
:100b90008100e800a1b79f00920237009e407800d4
:100ba000d0c2b30080cf50000c00320007003c00e0
:100bb0006d40500080cf50000a0032006b40400072
:100bc00080cf50000e003a000800370000c3b30089
:100bd00080cf50000a003a00060037000d30a00018
:100be000050037000d00a000030037000d10a00025
:100bf000010037000d20a0000e07e800e7ff3700d6
:100c00000d18a300010032000d00a1000d38a30053
:100c1000010032000d20a1000100fb0002fd2f00a9
:100c200002004000e90f50000e003e000002eb0001
:100c3000c4b79f0082017800cfb297006a28b9003c
:100c40001e01fb000001410003014100c2b79f00eb
:100c50005e00fb0003004000e90f50000b003e0067
:100c6000f5ff37000006eb00ccb79f00a0c2b30031
:100c700080cf500005003a000fb89700c000780000
:100c800080bf9f00c1b79f000e07e8000001eb0086
:100c9000b2b79f00e0c2b3009e4f100018003a00a8
:100ca0000de0a0008e00e80064405000914f10005d
:100cb00002003200010778000c0037000fba9700dd
:100cc000c402780084bf9f00b5b79f000e87e8007c
:100cd0000b0037003fb697006a60b9000000410082
:100ce00003004000b0b79f000e07e8001e01fb00a4
:100cf00003fd2f0003004100e90f5000f5ff36000f
:100d0000be407800e1d79f00c0c6b30080cf50003e
:100d1000220032000f003c006940500080cf50009c
:100d20007700320004003c000104e0003102320090
:100d30006b4050000f00370040c6b30080cf50001a
:100d4000930032006540400080cf50008b003a0095
:100d50008f00370030c7b30080cf50001a00320038
:100d600007003c006440500080cf5000110032006a
:100d70000040e80080cf500080003a000f003700ac
:100d800050c7b30080cf5000800032006340400065
:100d900080cf500079003a00090037000000280099
:100da0000d48a30001003a00000120008086760073
:100db000d3ff37000d60a000750037000d50a00074
:100dc0000d70a000720037008fb8970041007800c6
:100dd00081bf9f00000478000000e00001003a009d
:100de000088a20008004eb00010037008104e8003d
:100df00089007800088044001004e000fbff3a00fe
:100e00003fb197000200e00003003200890f51005b
:100e100001003100820478000002eb00e4af9f0083
:100e2000cfb29700898f520002003600098052002d
:100e3000e0af9f004368de00e10660001b003a005f
:100e40000d06780009003700ffb09700000220006f
:100e5000ef010700e10f4000030032002fb09700c0
:100e60000000e800a0b79f000c06e800efa897007c
:100e7000810f5600f4ff3a000081eb00e2af9f00c3
:100e80000a003700880078003100fb000104780078
:100e9000ffb09700de010700e10f400003003200c1
:100ea0002fb297000402e800a4b79f000900e900f0
:100eb00080047800e10f4000f2ff3a000006eb00ea
:100ec0000d00e0000a003a00c6013700ffb09700ad
:100ed00000022000ce010700e10f400003003200b5
:100ee000afb297008502e800a5b79f000c06e800a6
:100ef0006fa89700800f5600f4ff3a00b901370041
:100f00008fb897004100780081bf9f00cf80de003e
:100f100001017800820178000205be000004be00d5
:100f20000203be000002be004822de00482edd00a3
:100f300004027600e4d79f000d48a3000a003200a7
:100f40000404e00008003200e14f420006003200d5
:100f500071fd2f000f804000044878001840980071
:100f60002900200002003700f0d79f001900200060
:100f700072fd2f000f044100a1ff370064fd2f0018
:100f80000f044200190020009dff37000d0cb30034
:100f90000d007800000cb20028003a000d00e000bf
:100fa00005003d008fba97004505be004504be0010
:100fb00085bf9f00140037000d48a3000b003200ce
:100fc0000fbe97004c00be008cbf9f004f89de0013
:100fd000cf91de000002be00020378008203780099
:100fe0000605be000404be00070037008fb8970056
:100ff0004100780081bf9f0000047800cfc4de006c
:10100000090578008a057800e00f5400e08f5c0045
:10101000e00f5d00e08f5d001f003d003d00b3006c
:101020006000b8006011b8000804500089845800be
:101030000a0559008b855900170037000d00e000a4
:1010400005003d000fb997004205be004204be00f6
:1010500082bf9f00100037000d48a3000700320038
:101060000fba97004400be0084bf9f006011b80013
:101070000205be000004be00070037008fba9700cb
:101080004500780085bf9f0000047800090020001b
:101090000a0020000b0020003fb697000c00e00083
:1010a00007003a00e00f5400e08f5c00e00f5d00a5
:1010b000e08f5d0002003a0010002000b0b79f00f2
:1010c0008d007800010cb200e1b79f000004200001
:1010d000808f50003000320003003c000100e0002f
:1010e0000800320040003700000820006fb1970070
:1010f000800f510014003200000c2000800f5100be
:1011000039003a0014c0b300058020000b003700fe
:101110000400fb004300dd00050040005001be005c
:101120004000be000040e10001c8e10002d0e10043
:1011300003d8e1002b0039000442e800f44f5200cc
:10114000f3ff3a00270037000001200001002000d3
:101150006011b80014c0b3000040e10001c8e10014
:1011600002d0e10003d8e1001e0039004500200054
:101170000000d0008180d2000281d2008381d200a1
:101180008502e900faff3a000442e800f04f5200fd
:10119000f1ff3a001300370080002000010020001a
:1011a0006011b80014c0b3000040e10001c8e100c4
:1011b00002d0e10003d8e1000a0039003c00200021
:1011c0000000d0008180d2000281d2008381d20051
:1011d0000c06e900faff3a000442e800f54f52001d
:1011e000f1ff3a00e4d79f00efd097000100fb0029
:1011f0003fb19700820f500002003d00e2d79f00f0
:10120000040037003fb29700800f520001003d00fc
:10121000b0b79f00cfb297000500e0000400320095
:1012200063806600020032008502e900c5b79f00b6
:101230000de8a3000b0032004fb697003fb09700b7
:10124000800f560003003c008000eb00c1b79f00f8
:10125000040037004fb197003fb2970004015100de
:10126000c2b79f00efd297000500fb000006eb001d
:10127000dcaf9f00cfb09700808f50000200340099
:1012800000805000d0af9f000d28a300370032002f
:10129000e18066000d18a3000c003200d00220008f
:1012a0000100e00001003a000080e900ffb0970073
:1012b000d7000700e10f40000e0032002fb1970069
:1012c0000201e800a2b79f000a0037000100e00019
:1012d00008003200ffb0970000022000cc00070099
:1012e000e10f4000030032002fb297000402e80033
:1012f000a4b79f00dfaa97000500e0000f003200ae
:101300000006eb00ffb0970000032000c0000700bc
:10131000e10f4000030032002fb097000000e8000a
:10132000a0b79f000c06e800dfa89700810f5600c9
:10133000f4ff3a000001eb00d2af9f003fb29700ec
:10134000c320dd00807f20008080400091b79f0097
:101350004220dd006400500080b79f006320b90088
:10136000f0af9f006306500084003700dfaa9700ab
:101370000500e00011003200688066000f003a00ae
:1013800000067800ffb0970000022000a0000700d0
:10139000e10f4000030032002fb097000000e8008a
:1013a000a0b79f000c06e800dfa89700810f560049
:1013b000f4ff3a000001eb00d2af9f00e18066002d
:1013c0000d18a3000c003200d00220000100e00044
:1013d00001003a000080e900ffb097008c00070090
:1013e000e10f4000d5ff32002fb297000402e80061
:1013f000a4b79f00d1ff37000100e000cfff32000b
:10140000ffb097000002200081000700e10f4000bc
:10141000caff3200afb297008502e800a5b79f006f
:10142000c6ff370000042000efb09700808f500007
:101430003100320003003c000100e00008003200ef
:101440003e003700000820006fb19700800f510068
:1014500011003200000c2000800f510037003a00cc
:101460001fb097003002be002003be000800be007f
:101470000a01be00ebfc0700a400200005002000cc
:101480006033b800eefc070004c3b3000442400020
:10149000e4d79f0029003700758a2000d5b79f0048
:1014a0000d58a30002003a00808b2000d0b79f00a7
:1014b00014002000050020006033b8008fb09700b2
:1014c0008100e900050033000402d0008582d200cb
:1014d0000683d2008783d200f9ff37000800be00e0
:1014e0000a01be00cffc07006f0060005fb19700eb
:1014f0006240780010003700140020000500200032
:101500006033b8000c0078000000e90005003300eb
:101510000402d0008582d2000683d2008783d200e5
:10152000f9ff37000800be000a01be00bdfc07003d
:10153000674060000043b000e0d79f00efd0970005
:101540000100fb00ffb0970031000700e10f4000f1
:10155000030032002fb197000201e800a2b79f00fc
:101560001fb297006802520094b79f008fb2970095
:10157000e482520085b79f0063065600d0ff2f001b
:101580003fb197000090b9007faa97000000420089
:1015900063005000800f5600a2ff3a000d38a300f0
:1015a00010003200dfaa97000500e0000d003400b3
:1015b0000006eb00ffb097000002200014000700b7
:1015c000e10f4000030032002fb097000000e80058
:1015d000a0b79f000c06e800dfa89700810f560017
:1015e000f4ff3a00be407800e1d79f000104e0001c
:1015f0005dfd3a002fb097004f0778004f06be0000
:101600004f05be004f04be00ef01b1000000060010
:10161000889fbe000001780001047800b1009000ae
:101620000118a3003d0032000198a30003003a0016
:10163000180090000000e00038003a000190a0007f
:101640003104980082047800f90fb200180090006d
:101650000000e00002003a0028009000000c780032
:10166000ea8f540006003a00380090000078a3008a
:1016700003003a0088007800d0002000e4ff070053
:101680009800900058009000808f50000b003200ae
:101690000100e8001004980018007800095878004c
:1016a000000c780011c0b300408f20000148780082
:1016b000ea8f5400060032001900370088007800d5
:1016c00009407800190007008004780014003700f2
:1016d000380090000088a30011003200180190002b
:1016e000a8009000480090009dfb07009800900023
:1016f000810f500004003200380090000003b30056
:10170000300498008084eb000000eb001004980087
:1017100028009000000c7800010037008084eb0066
:10172000090078004f04be00000006000200fa0025
:10173000889fbe00a0ff9f0001047800b1009000c8
:10174000810478000904b200020032000000fb00ae
:10175000360037000118a30005003a000103b3006a
:1017600031049800190498000080eb002f00370026
:10177000580090000000e00006003a004800900089
:1017800012002000e680570075fb0700190498003e
:1017900024003700280090000000e00008003a0014
:1017a000008f200020049800000c7800200020000a
:1017b00050049800100498000130a00031049800f3
:1017c00018019000a80090004800900064fb0700fa
:1017d00028009000000c78000080eb0010049800b6
:1017e00018007800aff8970001587800000c7800d6
:1017f0002ff89700ea4f50000a003a003800900096
:101800000088a3000700320018019000a800900093
:101810004800900052fb070019049800a8009000af
:10182000010c7800aff897000100fb004f04be00e8
:081830000080fa000000060030
:020000040000fa
:0200000401f009
:04000800ffff0000f6
:020000040000fa
:0200000401f009
:04000c00fbff0000f6
:020000040000fa
:0200000401f009
:04001000f9ff0000f4
:020000040000fa
:0200000401f009
:040014007fff00006a
:020000040000fa
:10000800ac020000ac020000ac020000ac02000030
:10001800ac020000ac020000ac020000ac02000020
:10002800ac020000ac020000ac020000ac02000010
:10003800ac020000ac020000ac020000ac02000000
:020000040000fa
:020000040000fa
:10183800435300002034000033310000204c0000e6
:101848006162000020230000312000006772000060
:101858006f75000070390000390d00000047000066
:10186800726f000075700000204a00006f6500006c
:101878000d000000477200006f7500007020000026
:101888004e61000074680000616e00000d000000e9
:10189800477200006f750000702000004261000070
:1018a800636800000d0000005472000069670000c2
:1018b8006765000072200000707200006573000008
:1018c80073200000636f0000756e0000743a00001a
:1018d8000d0000003078000025300000327800004c
:1018e800202800002530000033690000290000008e
:020000040000fa
:1018f8000000fa00620020000140200000002800db
:1019080057fc070000802e0031002000d3fa0700a2
:101918000080fa00000006000200fa00004f78007c
:10192800010037000000000023c2bf0062406000d1
:101938000004e000fbff3a001e80fb002011880035
:10194800010037000000000023c2bf0061406000b2
:101958000004e000fbff32000080fa0000000600ef
:101968000600fa0010079800414798000040eb0075
:10197800004f7800070037001e80fb0080007800c9
:101988001e0090000080400010407800e2ff070031
:101998001e4fe8004e4090009e4f1000f6ff3900a1
:1019a8000080fa00000006000200fa00004f7800ec
:1019b800c0c7b300d8ff07001e407800d6ff070055
:1019c8000080fa00000006000000fa00c0c7b3005b
:1019d800d1ff07000040eb00cfff07000080fa00ae
:1019e800000006000200fa00000f7800c0c7b3002c
:1019f800c9ff070010c0b300c7ff07001e0078002a
:101a0800c5ff07000080fa00000006000200fa0087
:101a1800000f7800c0c7b300bfff070020c0b300a5
:101a2800bdff07001e007800bbff07000080fa001a
:101a3800000006000800fa00000f7800110798005f
:101a48002207980033079800c0c7b300b2ff070009
:101a580030c0b300b0ff07001e007800aeff0700db
:101a68001e009000acff07002e009000aaff0700a0
:101a78003e009000a8ff07000080fa000000060062
:101a88000000fa00c0c7b300a3ff070040c0b300be
:101a9800a1ff07000080fa00000006000800fa0015
:101aa800000f780011079800220798003307980064
:101ab800c0c7b30098ff070050c0b30096ff0700e7
:101ac8001e00780094ff07001e00900092ff070098
:101ad8002e00900090ff07003e0090008eff070048
:101ae8000080fa00000006000000fa00c0c7b3003a
:101af80089ff070060c0b30087ff07000080fa0075
:101b0800000006000200fa00000f78001e00e00046
:101b180002003c0010002000000f78006000200048
:101b28009e0f10000200340060002000000f7800b3
:101b3800c0c7b30078ff070070c0b30076ff070086
:101b48001e00780074ff07000080fa0000000600fd
:101b58000000fa00c0c7b3006fff070080c0b300e1
:101b68006dff07000080fa00000006000200fa007e
:101b7800000f7800c0c7b30067ff0700a0c0b3001c
:101b880065ff07001e00780063ff07000080fa0069
:101b9800000006000800fa00000f780011079800fe
:101ba8002207980033079800c0c7b3005aff070000
:101bb800b0c0b30058ff07001e00780056ff0700aa
:101bc8001e00900054ff07002e00900052ff0700ef
:101bd8003e00900050ff07000080fa000000060059
:101be8000a00fa00000f78001107980022079800f1
:101bf8003307980044079800c0c7b30046ff0700a2
:101c0800c0c0b30044ff07001e00780042ff070071
:101c18001e00900040ff07002e0090003eff0700c6
:101c28003e0090003cff07004e0090003aff07007e
:101c38000080fa00000006000a00fa001007980069
:101c4800210798003207980043079800c0c7b300df
:101c580031ff0700d0c0b3002fff07001e0090001f
:101c68002dff07002e0090002bff07003e0090007c
:101c780029ff07000000eb00000f7800070037007d
:101c88001e007800800078004e0090000080400020
:101c98001040780020ff07001e0fe800f001200028
:101ca8009e0f1000f6ff34000080fa0000000600c6
:101cb8000a00fa00000f7800110798002207980020
:101cc8003307980044079800c0c7b30012ff070005
:101cd800f0c0b30010ff07001e0078000eff0700d9
:101ce8001e0090000cff07002e0090000aff07005e
:101cf8003e00900008ff07004e00900006ff070016
:101d08000080fa00000006000600fa00000f7800c4
:101d18001107980022079800c0c7b300fefe07000d
:101d280000c1b300fcfe0700000820009e0f100051
:101d38000300340000c8b300f7fe070007003700af
:101d48001e00e00003003d000040eb00f2fe07002b
:101d5800020037001e007800effe07009e0090008a
:101d680000042000808f50000300340000c4b3003a
:101d7800e9fe0700080037001e0090000000e000a0
:101d880003003d000040eb00e3fe070002003700bf
:101d98001e009000e0fe07002e009000e10f5000aa
:101da800060032002e0090000000e0000300320020
:101db80010c0b300d8fe0700020037002e009000c4
:101dc800d5fe07000080fa00000006000a00fa00ad
:101dd800000f780011079800220798003307980031
:101de800044f9800c0c7b300cbfe070020c1b30062
:101df800c9fe07001e007800c7fe07001e009000fd
:101e0800c5fe07002e009000c3fe07003e009000ac
:101e1800c1fe07000e489000bffe07000080fa00d0
:101e2800000006000000fa00c0c7b300bafe0700b1
:101e380040c1b300b8fe07000080fa0000000600a9
:101e48000000fa00c0c7b300b3fe070050c1b300da
:101e5800b1fe07000080fa00000006000e00fa003c
:101e68001007980021079800320798004307980048
:101e78005407980065079800c0c7b300a6fe07007e
:101e880060c1b300a4fe07001e009000a2fe070078
:101e98002e009000a0fe07003e0090009efe070066
:101ea8004e0090009cfe07005e0090009afe07001e
:101eb800ce0090005e0090000088b90082002000eb
:101ec800110009000200d800000f78000000eb00a4
:101ed80010079800090037001e0090008000780065
:101ee8006e00900000804000104078008afe0700d5
:101ef8001e0090000000e800100798001e009000e7
:101f08009e0f5000f4ff35000080fa000000060024
:101f18000400fa00000f780011079800c0c7b3004a
:101f28007dfe070080c1b3007bfe07001e0078001d
:101f380079fe0700c0c7b30077fe070090c1b30061
:101f480075fe07001e00900073fe07000080fa006f
:101f5800000006000400fa00100798001e00900018
:101f6800e80f50000300340080002000100798009c
:101f78000c0037001e0090000000e00003003c0049
:101f88001000200010079800060037001e0090007f
:101f98004300dd00680f50009e007800100020000c
:101fa800dbff07000080fa00000006000a00fa00c4
:101fb8000040eb00704798000040eb006047980035
:101fc8000040eb00504798000040eb004047980065
:101fd80047fe0700c082a90000000000c0a2a900b7
:101fe80000000000c122a90000000000c142a900b1
:101ff80000000000c002a900000000002a83a80019
:10200800d902a800d342a8000040eb0066fe0700f2
:10201800c0c12800801f780095fa07008f87e90063
:1020280030c32800801f780091fa07008f87e900e5
:10203800e0c32800801f78008dfa07008f87e90029
:10204800c0c42800801f780089fa07008f87e9003c
:1020580080c52800801f780085fa07008f87e9006f
:1020680080c1b30050fe070020c4b3002afe070059
:1020780090c1b3004cfe070080c3b30026fe0700e2
:102088007e4090008080fb007e4090000080fb0036
:10209800811f7800801f7800e0c62800801f780024
:1020a80073fa0700e68757006000b800008fbe008b
:1020b80000352c0001002000be0f1000ae8f180064
:1020c80006003a00111680000040200000806800d9
:1020d800101688006000b800008fbe00111680003e
:1020e800f0fc2f000080600010168800000000003f
:1020f800dbc2bf00614060000080fb000080ea0096
:102108004400dd00f00060001016800000807000c0
:102118001016880000000000d5c2bf000080fb0038
:102128004200de00614060000080fb000080ea00a1
:102138004500dd00800078000002200080806000fb
:102148001016800000807000101688000000000043
:10215800dbc2bf00614060000004e0000400320000
:10216800d5c2bf00644060000004e00008003a00e7
:10217800dbc2bf00614060000004e0000a003a00d2
:10218800d5c2bf00644060000004e00006003a00c9
:1021980010168000f1df2f00010060001016880083
:1021a8000000000005003700101680000120200004
:1021b800010070001016880000000000dbc2bf009c
:1021c800614060008080fb005e4090000080fb0062
:1021d800808f500004003a004e4090000040e80014
:1021e80040479800020037000040eb004047980045
:1021f8004e409000e44f5000130036005e409000bf
:102208000004e00003003a007e4090000040e8002f
:102218007047980010c0b300604798000040eb007a
:10222800004f98005e4090000004e00002003a0071
:1022380011c0b300014f98000e4890005047980015
:102248000040eb00404798006e409000e14f50007e
:1022580016003a0080c1b300d3fd070020c4b300c4
:10226800adfd070090c1b300cffd070080c3b300e8
:10227800a9fd07007e4090008080fb007e40900012
:102288000080fb00811f7800801f7800e0c62800ce
:10229800801f7800f6f90700e6875700808d200038
:1022a800faf907000040eb00604798001000200092
:1022b800010020001e0f40005e9748007cff370099
:020000040000fa
:1022c800ca0800002600000002000000cc08f20046
:1022d80008000000f2080900000000000200f000f9
:1022e80008000000f00806000201000000000000dd
:1022f80000000000000006000202000000000000cc
:10230800f0080000060000000000000000080000bf
:10231800a000000002000000010000000000000012
:1023280000000a0000000000000000000064000037
:102338000000000000000000e803000000000000aa
:1023480000001000270000000000000000a0860028
:10235800010000000000000040420f0000000000e3
:102368000000800096980000000000000000e100d6
:10237800f50500000000000000ca9a003b000000bc
:1023880000000000e40b5400020000000000e80018
:1023980076481700000000000010a500d4e80000ef
:1023a80000000000a0724e00180900000000400064
:1023b8007a10f3005a0000000080c600a47e8d0049
:1023c8000300000000c16f00f28623000000000037
:1023d8008a5d78004563010000006400a7b3b60079
:1023e800e00d000000e889000423c7008a0000000f
:1023f800a00800002a00000002000000286e7500f6
:102408006c6c290000303100323334003536370027
:10241800383941004243440045460000303132001b
:10242800333435003637380039616200636465003b
:1024380066000000f608000002000000020000002c
:0824480001000000000000008b
:00000001FF
