:020000040000fa
:080000000002040000000000f2
:020000040000fa
:10000800b0020000b0020000b0020000b002000020
:10001800b0020000b0020000b0020000b002000010
:10002800b0020000b0020000b0020000b002000000
:10003800b0020000b0020000b0020000b0020000f0
:020000040000fa
:020000040000fa
:10040000efcf20000eff27000e0188000000000043
:1004100000012000200288000c000700802321003a
:10042000010020001f000700000020000000e00085
:10043000020032000000020000000000d60f02009f
:10044000000000000040da000000fe004440a90067
:10045000c00420000000e000030032000000200083
:10046000a00188004440a80000000600f03fb10051
:100470000180b10006003500ee0309000000000015
:10048000403fb1000180b100fbff3d001000b00013
:10049000203fb0000200350000800900000000008d
:1004a0000000060091018800800078000000eb0049
:1004b00015003700e280400032a0b4009101ba007c
:1004c000e280400032a0b4009102ba00e280400015
:1004d00032a0b4000002eb00472bde00f507b200ab
:1004e000602ce10004003a000059eb008301e900b0
:1004f000fdff3e00040037006128e10001003200ea
:100500000082eb00040007001101ba000200e000c5
:10051000e8ff3a00000006003159ba008301e90003
:100520000c0032002159ba008301e90008003200b2
:100530000400e00003003a00e280400032a0b40072
:10054000f5ff370011d9ba008301e900faff3a003c
:100550008100e800e180400032a0b4000000060005
:100560000040da000000fe0000c0da0000000600d3
:100570000a00fa00e20f500022003e00e44780002b
:10058000e10f52000600320087232000462320009e
:100590002423200005232000e08f530004003a00ac
:1005a000872220004622200024222000052220004d
:1005b000000028001500600003003a00800b78005e
:1005c00007002800958a730005402000948262008d
:1005d00001003a0014a0a000820278000600370053
:1005e000940378000710b200fdff3200b103fb0056
:1005f000070b78008502e900e08f5200f8ff3a000f
:100600000800370034002000b4bf9f00c0bf9f0027
:10061000d1bf9f00e2bf9f006a805700d2ff070052
:100620006fb99700020078000080fa000000060011
:10063000889fbe008a9fbe003004be002005be0019
:100640000404440085844c0006054d0087854d0058
:100650000898be000a90be000440e10005c8e10011
:1006600006d0e10007d8e100020031006800400038
:100670001008e8004f05be004f04be000000060051
:100680001000fa00889fbe008a9fbe000605be00cb
:100690000404be003002be002003be00c4b79f00a9
:1006a000d5b79f00e6b79f00f7b79f00080252003a
:1006b00089825a000a035b008b835b0084bf9f0022
:1006c00095bf9f00a6bf9f00b7bf9f000498be00c4
:1006d0000698be00110020004fb29700dfb29700cd
:1006e0006fb39700ffb39700b20007000100390015
:1006f0008000eb00108810004f05be004f04be00c4
:100700000080fa00000006001400fa00889fbe0076
:100710008a9fbe008c9fbe00790007000605be00c0
:100720000404be000006eb00ccb79f00bcb79f00de
:10073000acb79f009cb79f008cb79f000d042000b2
:100740004fb39700bfb29700860343002fb29700c4
:10075000e00f530004003d009b0007000f00400025
:10076000b3ff070003003700970007000f004000a9
:10077000c3ff0700cfb2970095bf9f00e08f5200e4
:100780000900350065000700140020000500200066
:100790006033b800000072008180720002017300b3
:1007a00083817300560007000c06e8008d0f560089
:1007b000e3ff3a001fba9700e00f520005003d002a
:1007c0000802be000a03be0000fe2f000f0040001a
:1007d00097ff07004faa9700e00f520008003a0069
:1007e0000fb497009fb497002fb59700bfb597003f
:1007f000d8b79f00e9b79f00fab79f008bbf9f0053
:10080000460007004f06be004f05be004f04be0065
:100810000080fa0000000600881f78001800200001
:10082000881f7800b8ff07008f87e9004f04780021
:1008300000000600801feb00b3ff07008f87e90070
:1008400000000600889fbe008a9fbe00410007008e
:1008500007003d0044000700180020004900070081
:1008600008003d002f0007000004eb0005003700e2
:100870000004eb004300070002003d0029000700d0
:1008800018002000e4ff0700e00f540001003200d0
:10089000410007004f05be004f04be0000000600e7
:1008a000889fbe008a9fbe008c1f78002900070029
:1008b00005003d002c0007001c0020003d00070043
:1008c00007003d00050037000006eb002d00070083
:1008d00003003d006044b8006055b80013000700f5
:1008e000d4ff0700e00f5600010032002a00070085
:1008f0004f0678004f05be004f04be000000060002
:10090000010007000000060090b79f00a1b79f00fc
:10091000b2b79f00c3b79f000000060008000700a1
:10092000000006006044b8006055b800040254009e
:1009300085825c0006035d0087835d000000060081
:100940001fb09700afb097003fb19700cfb19700ad
:1009500000000600e00f5000e08f5800e00f590043
:10096000e08f5900000006006044b8006055b800f0
:100970000000540081805c0002015d0083815d0005
:1009800000000600e00f5200e08f5a00e00f5b000d
:10099000e08f5b00000006006022b8006033b80002
:1009a0000000520081805a0002015b0083815b00dd
:1009b000000006000820e10009a8e1000ab0e100fb
:1009c0000bb8e100000006004f2bde008703730028
:1009d000a7b79f004f23de00858242008502730087
:1009e00095b79f00ffaa97004f2bde00040242003c
:1009f0000402730084b79f006faa97004f23de00a4
:100a00008582420085027300f5af9f00ccff07008e
:100a10004f18de000402420000027200e4af9f00a3
:100a2000c7ff070000004000818048000201490024
:100a300083814900b4ff07000802be000a03be001c
:100a400000fe2f00000006004211880000118800ff
:100a500011118800000006000000fa0068815700ac
:100a6000cfb89700c08d20002c0007000080fa004e
:100a700000000600881f780000047800380090000d
:100a8000000278001420b200e10f520005003a0085
:100a90000002eb001404980028029000040c780077
:100aa00019003700800278002520b2000000eb001a
:100ab00024202000848f520016003a00a8009000e5
:100ac000808f50001300320018019000800f5100f9
:100ad0001000320048009000a5fe070018029000a8
:100ae000840f500003003200380290000403b3006a
:100af000340498000002eb001404980028029000cf
:100b0000040c7800380090000002b20001003200ae
:100b10000080eb004f047800000006002f03b000b7
:100b2000889fbe008a9fbe008c9fbe008e1f7800eb
:100b3000e0af9f00c1af9f00b2b79f008006eb00ff
:100b40006e023700cfa897008100e800c1af9f0078
:100b500054c2b300844f500006003a0001027800ee
:100b60000006eb0001c3b30000c2b300b7c2b3007c
:100b7000070037000000fb00efa897006b0207009a
:100b8000e10f40005d0232008d06e8005b02370095
:100b90008402780034437800d2c2b300824f5300fd
:100ba0000900320005003c00804f5300080032006d
:100bb000874f53000c003a0007003700814f530065
:100bc00009003a00060037000c30a000f0ff3700a3
:100bd0000c00a000eeff37000c10a000ecff370067
:100be0000c20a000eaff370062026600010032001c
:100bf0000c00a10068026600010032000c20a10078
:100c00000602fb000403b100e90f52000c003e0095
:100c1000050378000002eb006a22b900b603fb006e
:100c20000703b10004824300860278009603fb00ac
:100c30000703b100e98f5300f7ff360008003700c3
:100c40000002eb00a7c2b300874f530004003a0034
:100c5000bfb1970043027800b3b79f008502e80058
:100c60000007eb00e6c2b300954f13000a003a00fc
:100c70000ce0a00064435300d54f13000200320083
:100c800005037800080037003fb397004607780057
:100c9000b6b79f008502e80005037800080037001a
:100ca0006a70b9000087430086027800b603fb0033
:100cb0000703b100e98f5300f9ff3600f6ff370054
:100cc000b6427800c6af9f00c0c6b30080cf5200c6
:100cd000250032000f003c0036c6b30086cf52001c
:100ce0006e00320004003c00e0cf520008023200e7
:100cf0006b4353000f00370046c6b30086cf520047
:100d0000170032006543430086cf520083003a004b
:100d10001300370036c7b30086cf52001f003200e1
:100d200007003c006443530086cf52001400320099
:100d30000643e80086cf520078003a0013003700df
:100d400056c7b30086cf5200790032006343430098
:100d500086cf520071003a00a5c79f000d003700f2
:100d6000a5c79f0074003700f0036600050120004e
:100d7000010032000500280005067600d0ff37008c
:100d8000a5c79f000c60a0006b003700a5c79f009f
:100d90000c50a0000c70a00067003700a5c79f0092
:100da000bfb09700c1027800b1b79f00050478007a
:100db000e08f520001003a00888c20000803780080
:100dc0008002eb00010037008502e800e6c37a00ec
:100dd000e0cf5300fcff3a0085047800e00f570095
:100de00003003200890f5700010031008e047800a3
:100df0000007eb00890f520001003600090752007e
:100e00006806660014003a0007003700efa8970054
:100e100000022000c5010700e10f40000100320080
:100e20008d06e8000e07e900e00f5700f7ff3a00d3
:100e30000087eb0008003700080278003400fb0050
:100e400004047800efa89700b8010700e10f400004
:100e5000010032008d06e800090278008404e900f0
:100e6000e00f5200f4ff3a00e00f5600a3013200f9
:100e700007003700efa8970000022000ab01070031
:100e8000e10f4000010032008d06e8000e07e90086
:100e9000e00f5700f7ff3a00980137003fb1970085
:100ea000c2027800b2b79f0005007800cf80de0054
:100eb0000101780082017800f0af9f0081b79f00a8
:100ec00092b79f00a3b79f004800de00c80add006c
:100ed00000807200a0c79f00700366000900320006
:100ee000e04f500007003200e14f400005003200a3
:100ef000b0c79f006fdb9700c6c79f002900200086
:100f000003003700efdb9700b7c79f0019002000f0
:100f100038fc2f000f044400b0ff3700a5c79f0026
:100f200028fc2f000f04440019002000abff3700fd
:100f3000a5c79f000c0cb3008c027800050cb20012
:100f40002b003a00e00f560005003d003fb097002f
:100f50004005be004004be00b0b79f001700370038
:100f6000f00266000f003200bfb297004501be00dc
:100f7000b5b79f00c2a79f00d3a79f0005037800c5
:100f800096029000cfaade00e5a79f00f5a79f007c
:100f90004fa49700dfa497006fa59700ffa59700c7
:100fa000060037003fb0970040047800b0b79f00bc
:100fb000cfc4de00090578008a057800e00f5400f0
:100fc000e08f5c00e00f5d00e08f5d0025003d00dc
:100fd0003c00b3006000b8006011b8000804500085
:100fe000898458000a0559008b8559001d00370077
:100ff000e00f560005003d00bfb097004105be0060
:101000004104be00b1b79f0016003700f002660031
:101010000e003200bfb297004501be00b5b79f0079
:1010200082af9f0093af9f000003eb00a6af9f002d
:101030008003eb00b7af9f000fac97009fac970009
:101040002fad9700bfad9700060037003fb0970067
:1010500040047800b0b79f00090020000a0020007b
:101060000b002000e00f570007003a001e00200090
:10107000e00f5400e08f5c00e00f5d00e08f5d004a
:10108000010032000007eb008c007800010cb20078
:10109000f1af9f0005042000858f50002c00320026
:1010a00003003c00e08f5000080032003c00370095
:1010b000050820007fa99700850f5100100032001d
:1010c000050c2000850f510035003a00e680200015
:1010d00015c0b3003600be003601be000040e1007e
:1010e00001c8e10002d0e10003d8e1002b00390083
:1010f0008542e800f4cf5200f6ff3a00270037009f
:1011000015c0b30000012000010020006011b800ec
:101110000040e10001c8e10002d0e10003d8e10095
:101120001e003900460020000000d0008180d2005f
:101130000281d2008381d2000603e900faff3a005f
:101140008542e800f0cf5200f1ff3a00130037006b
:1011500015c0b30080002000010020006011b8001d
:101160000040e10001c8e10002d0e10003d8e10045
:101170000a003900370020000000d0008180d20032
:101180000281d2008381d2008703e900faff3a008e
:101190008542e800f5cf5200f1ff3a00a5c79f0055
:1011a0002fc097008002fb008e8f520002003d008e
:1011b000aec79f0003003700850f570001003d00b8
:1011c00005077800e00f520003003200e3026600da
:1011d000010032000402e9000500240085026600d7
:1011e000050032008e0f5200020034000e02520041
:1011f000010037000002eb002fc197008202fb00c4
:101200008001eb00d3af9f00850f52000200340035
:1012100085025200d5af9f00640266002c003200a8
:10122000e202660061026600e08f520006003200b2
:10123000b0022000e00f5200010032000080e80000
:10124000efa8970004003700e00f520006003200bc
:10125000efa8970000022000b4000700e10f400053
:10126000010032008d06e8005faa9700e00f5200ef
:101270008d0032000802be000a03be00dfac9700fa
:10128000efa8970000032000c4b79f00d5b79f00c8
:10129000e6b79f00f7b79f00a40007004fb2970082
:1012a000dfb297006fb39700ffb39700e10f4000e4
:1012b000010032008d06e8008904e900f0ff3a00e1
:1012c000d9af9f000605be000404be0076003700bb
:1012d000dfaa9700e08f5200180032006802660013
:1012e00016003a000802be000a03be00dfac9700f9
:1012f000efa8970000022000c4b79f00d5b79f0059
:10130000e6b79f00f7b79f00880007004fb297002d
:10131000dfb297006fb39700ffb39700e10f400073
:10132000010032008d06e8008904e900f0ff3a0070
:10133000d9af9f000605be000404be00e2026600ad
:1013400061026600e08f520006003200b002200009
:10135000e00f5200010032000080e800efa8970083
:1013600004003700e00f52004f003200efa8970052
:10137000000220006d000700e10f40004a0032002b
:101380008d06e800480037000e07e9007fab9700a4
:1013900007042000870f53002d00320003003c009b
:1013a000e00f530008003200370037000408200027
:1013b0007fae9700840f560012003200040c20000c
:1013c000840f560030003a004372dd006080200038
:1013d000000242005403be004402be000800be00ea
:1013e0000a01be000cfd0700a4002000050020003b
:1013f0006033b8000ffd070004c3b300044240008f
:1014000020003700748b2000bfa29700e08f5200ad
:1014100001003200648a2000c272dd000800be00b4
:101420000a01be008502e900050033008301d100f6
:101430000281d3008180d3000080d300f9ff370000
:101440006f00600064407800a0c79f000e00370066
:101450006372b9000800be000a01be0004067800ed
:101460000c06e900050033008301d1000281d3009e
:101470008180d3000080d300f9ff3700674260000d
:101480000443b000a4c79f00afc097000100fb0059
:10149000efa8970025000700e10f4000060032008a
:1014a0008d06e800040037000c0178000202b2004b
:1014b000b2a79f008cbf9f00e00f5700b2ff3a0019
:1014c0000fbe9700680666000c003200dfa9970087
:1014d000e08f51000900340003067800efa8970060
:1014e0000002200011000700e10f4000010032005f
:1014f0008d06e8000c06e900f8ff3a004faa9700b5
:1015000014407800a0c79f00e04f50008dfd3a00c6
:101510000d0078004f0778004f06be004f05be0053
:101520004f04be002f03b10000000600889fbe00dc
:101530000104780038029000e20262008084eb002f
:101540003b003200040378000620b20098029000ad
:1015500002003a00e08f520035003a000490a000eb
:101560003404980080047800f90fb200e08f520034
:1015700002003a00a8029000050c7800ea8f54009f
:1015800005003a000408b20003003a008800780021
:10159000d0002000e5ff070018029000d80290005c
:1015a000850f52000b0032000402e800140498007a
:1015b00018027800094a7800040ce80015c0b3004e
:1015c000648f2000054a7800ea8f540018003a0022
:1015d00005003700880078000940780017000700f0
:1015e0008004780012003700380290000410b20026
:1015f0000f00320018019000a800900048009000f1
:10160000dbfb070018029000840f5000040032003a
:10161000380290000403b300340498008084eb0087
:101620000002eb001404980028029000040c7800db
:10163000090078004f04be00000006000200fa0016
:10164000889fbe00a0ff9f00010478003802900030
:10165000840278000504b200020032000000fb00a2
:1016600035003700e202620005003a000403b300cf
:1016700034049800150498000080eb002e00370019
:10168000d8049000e08f540006003a0012002000b9
:10169000e680570048009000b5fb07001904980049
:1016a00023003700a8029000e08f520008003a00a3
:1016b000958f200025049800050c78002500200057
:1016c00055049800150498000430a00034049800d4
:1016d00018019000a800900048009000a4fb0700ab
:1016e000280290008082eb0015049800affa970062
:1016f000054a7800040ce8002ffa9700ea4f5200e0
:101700000b003a00380290000410b20008003200ca
:1017100018019000a80090004800900094fb07007a
:101720000002eb0014049800a8029000050c780059
:101730002ffa97000400fb004f04be000080fa005f
:04174000000006009f
:020000040000fa
:10174400477200006f750000702000004e6f0000ab
:101754002e31000000580000206d00006178000068
:101764003a2000002575000000580000206d00009c
:10177400696e00003a200000257500000059000041
:10178400206d0000617800003a20000025750000fb
:1017940000590000206d0000696e00003a2000002e
:1017a40025750000004d00006f7400006f7200008a
:1017b400205800003a20000025750000004d00006c
:1017c4006f7400006f720000205900003a2000007e
:0817d400257500000000000073
:020000040000fa
:1017dc000000fa00620020000140200000002800f8
:1017ec0096fc070000802e00310020001cfb070037
:1017fc000080fa00000006000200fa00004f78009a
:10180c00010037000000000023c2bf0062406000ee
:10181c000004e000fbff3a001e80fb002011880052
:10182c00010037000000000023c2bf0061406000cf
:10183c000004e000fbff32000080fa00000006000c
:10184c000600fa0010079800414798000040eb0092
:10185c00004f7800070037001e80fb0080007800e6
:10186c001e0090000080400010407800e2ff07004e
:10187c001e4fe8004e4090009e4f1000f6ff3900be
:10188c000080fa00000006000200fa00004f780009
:10189c00c0c7b300d8ff07001e407800d6ff070072
:1018ac000080fa00000006000000fa00c0c7b30078
:1018bc00d1ff07000040eb00cfff07000080fa00cb
:1018cc00000006000200fa00000f7800c0c7b30049
:1018dc00c9ff070010c0b300c7ff07001e00780047
:1018ec00c5ff07000080fa00000006000200fa00a5
:1018fc00000f7800c0c7b300bfff070020c0b300c3
:10190c00bdff07001e007800bbff07000080fa0037
:10191c00000006000800fa00000f7800110798007c
:10192c002207980033079800c0c7b300b2ff070026
:10193c0030c0b300b0ff07001e007800aeff0700f8
:10194c001e009000acff07002e009000aaff0700bd
:10195c003e009000a8ff07000080fa00000006007f
:10196c000000fa00c0c7b300a3ff070040c0b300db
:10197c00a1ff07000080fa00000006000800fa0032
:10198c00000f780011079800220798003307980081
:10199c00c0c7b30098ff070050c0b30096ff070004
:1019ac001e00780094ff07001e00900092ff0700b5
:1019bc002e00900090ff07003e0090008eff070065
:1019cc000080fa00000006000000fa00c0c7b30057
:1019dc0089ff070060c0b30087ff07000080fa0092
:1019ec00000006000200fa00000f78001e00e00064
:1019fc0002003c0010002000000f78006000200066
:101a0c009e0f10000200340060002000000f7800d0
:101a1c00c0c7b30078ff070070c0b30076ff0700a3
:101a2c001e00780074ff07000080fa00000006001a
:101a3c000000fa00c0c7b3006fff070080c0b300fe
:101a4c006dff07000080fa00000006000200fa009b
:101a5c00000f7800c0c7b30067ff0700a0c0b30039
:101a6c0065ff07001e00780063ff07000080fa0086
:101a7c00000006000800fa00000f7800110798001b
:101a8c002207980033079800c0c7b3005aff07001d
:101a9c00b0c0b30058ff07001e00780056ff0700c7
:101aac001e00900054ff07002e00900052ff07000c
:101abc003e00900050ff07000080fa000000060076
:101acc000a00fa00000f780011079800220798000e
:101adc003307980044079800c0c7b30046ff0700bf
:101aec00c0c0b30044ff07001e00780042ff07008f
:101afc001e00900040ff07002e0090003eff0700e4
:101b0c003e0090003cff07004e0090003aff07009b
:101b1c000080fa00000006000a00fa001007980086
:101b2c00210798003207980043079800c0c7b300fc
:101b3c0031ff0700d0c0b3002fff07001e0090003c
:101b4c002dff07002e0090002bff07003e00900099
:101b5c0029ff07000000eb00000f7800070037009a
:101b6c001e007800800078004e009000008040003d
:101b7c001040780020ff07001e0fe800f001200045
:101b8c009e0f1000f6ff34000080fa0000000600e3
:101b9c000a00fa00000f780011079800220798003d
:101bac003307980044079800c0c7b30012ff070022
:101bbc00f0c0b30010ff07001e0078000eff0700f6
:101bcc001e0090000cff07002e0090000aff07007b
:101bdc003e00900008ff07004e00900006ff070033
:101bec000080fa00000006000600fa00000f7800e2
:101bfc001107980022079800c0c7b300fefe07002b
:101c0c0000c1b300fcfe0700000820009e0f10006e
:101c1c000300340000c8b300f7fe070007003700cc
:101c2c001e00e00003003d000040eb00f2fe070048
:101c3c00020037001e007800effe07009e009000a7
:101c4c0000042000808f50000300340000c4b30057
:101c5c00e9fe0700080037001e0090000000e000bd
:101c6c0003003d000040eb00e3fe070002003700dc
:101c7c001e009000e0fe07002e009000e10f5000c7
:101c8c00060032002e0090000000e000030032003d
:101c9c0010c0b300d8fe0700020037002e009000e1
:101cac00d5fe07000080fa00000006000a00fa00ca
:101cbc00000f78001107980022079800330798004e
:101ccc00044f9800c0c7b300cbfe070020c1b3007f
:101cdc00c9fe07001e007800c7fe07001e0090001a
:101cec00c5fe07002e009000c3fe07003e009000ca
:101cfc00c1fe07000e489000bffe07000080fa00ee
:101d0c00000006000000fa00c0c7b300bafe0700ce
:101d1c0040c1b300b8fe07000080fa0000000600c6
:101d2c000000fa00c0c7b300b3fe070050c1b300f7
:101d3c00b1fe07000080fa00000006000e00fa0059
:101d4c001007980021079800320798004307980065
:101d5c005407980065079800c0c7b300a6fe07009b
:101d6c0060c1b300a4fe07001e009000a2fe070095
:101d7c002e009000a0fe07003e0090009efe070083
:101d8c004e0090009cfe07005e0090009afe07003b
:101d9c00ce0090005e0090000088b9008200200008
:101dac00110009000200d800000f78000000eb00c1
:101dbc0010079800090037001e0090008000780082
:101dcc006e00900000804000104078008afe0700f2
:101ddc001e0090000000e800100798001e00900004
:101dec009e0f5000f4ff35000080fa000000060042
:101dfc000400fa00000f780011079800c0c7b30068
:101e0c007dfe070080c1b3007bfe07001e0078003a
:101e1c0079fe0700c0c7b30077fe070090c1b3007e
:101e2c0075fe07001e00900073fe07000080fa008c
:101e3c00000006000400fa00100798001e00900035
:101e4c00e80f5000030034008000200010079800b9
:101e5c000c0037001e0090000000e00003003c0066
:101e6c001000200010079800060037001e0090009c
:101e7c004300dd00680f50009e0078001000200029
:101e8c00dbff07000080fa00000006000000fa00eb
:101e9c00d41680004822de00614262008482fb007e
:101eac0044802000144278000482fb00848f52008e
:101ebc0003003a000002eb00044088000e003700db
:101ecc00044080000402e8000440880005408000c3
:101edc0004712200848f520007003600d416800053
:101eec004822de00614262000440780004e8b7003a
:101efc000002eb000440880044802000144278006b
:101f0c00e04f520003003a00c282a800000000001b
:101f1c0002003700c282a900000000000080fa0015
:101f2c00000006000200fa00004f78001e40780006
:101f3c007f4260000482fb007f026200461b80002f
:101f4c0005fe2f008502630004827200441b88008a
:101f5c006023a80000000000041b800061026200e6
:101f6c00e00f5200fcff32006003a9004480200007
:101f7c0014427800e04f520005003a002480200003
:101f8c00144278000442e8000440780002e8b700ec
:101f9c00041a8000040078000080fa00000006009b
:101fac000e00fa0014002000e447880008fe070029
:101fbc000040eb0034fe0700c142a9000000000005
:101fcc00c082a90000000000c0a2a900000000000f
:101fdc00c122a900000000002a83a800d902a80091
:101fec00d342a800d41680004822de006142620071
:101ffc000440780004e8b70080c1b30022fe07005b
:10200c000040eb00fcfd070090c1b3001efe070072
:10201c000040eb00f8fd070024ba2800841f78006c
:10202c008afa07008f87e900c08d20008efa07001e
:10203c0061e3a900c682a800c6a2a8006c83a9000f
:10204c006ca3a9006143a900041b80000480a100bb
:10205c000490a100041b8800041b80000450a00005
:10206c000460a0000470a000041b88000002eb00b8
:10207c00141b880065e3a900251b800004f02100d7
:10208c0004827200241b880024c0b3000440780032
:10209c0064e3b70061e3a800010037000000000012
:1020ac007aff07001e0fe800047122009e027800e0
:1020bc00848f5200f9ff3a002480200014427800eb
:1020cc00e04f520015003a0040c0b30095ff0700e6
:1020dc00000278001407980080c1b300eafd0700e5
:1020ec000040eb00c4fd070090c1b300e6fd070003
:1020fc0080c0b300c0fd07001e029000841f780052
:10210c00d4ba2800841f780050fa0700e4875700df
:10211c00c08d200054fa07003400370024802000c2
:10212c0014427800e14f52000a003a00448020002b
:10213c0014427800e14f520006003a00248020003f
:10214c00144278000442e8000440780002e8b7002a
:10215c00260037002480200014427800e24f520001
:10216c0015003a0040c0b3006eff07000002780073
:10217c002407980080c1b300c3fd07000040eb00aa
:10218c009dfd070090c1b300bffd070000c1b30067
:10219c0099fd07002e029000841f780074bb280064
:1021ac00841f780029fa0700e4875700c08d2000af
:1021bc002dfa07000d00370024802000144278000f
:1021cc00e34f520009003a0044802000144278008a
:1021dc00e14f520005003a002480200014427800a0
:1021ec000442e8000440780002e8b7002480200094
:1021fc0014427800e44f520015003a0050c0b3006e
:10220c0048ff0700000278003407980080c1b30033
:10221c009dfd07000040eb0077fd070090c1b30067
:10222c0099fd070080c1b30073fd07003e029000ca
:10223c00841f780014bc2800841f780003fa070060
:10224c00e4875700c08d200007fa07008200370092
:10225c002480200014427800e54f52000a003a0016
:10226c004480200014427800e14f520006003a00ee
:10227c0024802000144278000442e80004407800d6
:10228c0002e8b70074003700248020001442780064
:10229c00e64f520015003a0050c0b30021ff070072
:1022ac00000278004407980080c1b30076fd070057
:1022bc000040eb0050fd070090c1b30072fd070019
:1022cc0000c2b3004cfd07004e029000841f780042
:1022dc00b4bc2800841f7800dcf90700e4875700a1
:1022ec00c08d2000e0f907005b003700248020003f
:1022fc0014427800e74f52000a003a004480200054
:10230c0014427800e14f520006003a00248020006d
:10231c00144278000442e8000440780002e8b70058
:10232c004d0037002480200014427800e84f520002
:10233c0015003a0040c0b300fafe07000002780016
:10234c005407980080c1b3004ffd07000040eb001c
:10235c0029fd070090c1b3004bfd070080c2b300fc
:10236c0025fd07005e029000841f780054bd2800f4
:10237c00841f7800b5f90700e4875700c08d200052
:10238c00b9f907003400370024802000144278008b
:10239c00e94f52000a003a004480200014427800b1
:1023ac00e14f520006003a002480200014427800cd
:1023bc000442e8000440780002e8b7002600370029
:1023cc002480200014427800ea4f520015003a0095
:1023dc0050c0b300d3fe07000002780064079800d9
:1023ec0080c1b30028fd07000040eb0002fd070090
:1023fc0090c1b30024fd070000c3b300fefc07002e
:10240c006e029000841f780014be2800841f780090
:10241c008ef90700e4875700c08d200092f9070061
:10242c000d0037002480200014427800eb4f52003e
:10243c0009003a004480200014427800e14f520019
:10244c0005003a0024802000144278000442e80081
:10245c000440780002e8b7000002eb00040f78009b
:04246c000fff370027
:020000040000fa
:102470000408000002000000000000000008000046
:102480000400000002000000000000000000000046
:10249000fc08000002000000020000000100000033
:1024a000f60800000600000000000000d008000050
:1024b0002600000002000000f708000000f70800f6
:1024c0000900000000020000f908000000f90800ff
:1024d0000e020100000000000000000000000000eb
:1024e0000602020000000000d0080000a60800005c
:1024f0002a00000002000000303132003334350081
:102500003637380039414200434445004600300028
:1025100031323300343536003738390061626300b8
:102520006465660000286e00756c6c002900000070
:1025300006080000a00000000200000001000000ea
:102540000000000000000a00000000000000000081
:10255000006400000000000000000000e80300002c
:102560000000000000001000270000000000000034
:1025700000a08600010000000000000040420f00a3
:10258000000000000000800096980000000000009d
:102590000000e100f50500000000000000ca9a00fc
:1025a0003b00000000000000e40b540002000000ab
:1025b0000000e80076481700000000000010a500a9
:1025c000d4e8000000000000a0724e0018090000ce
:1025d000000040007a10f3005a0000000080c6009e
:1025e000a47e8d000300000000c16f00f28623006e
:1025f000000000008a5d780045630100000064006f
:10260000a7b3b600e00d000000e889000423c7006e
:082610008a0000000000000038
:020000040000fa
:0200000401f009
:04000800ffff0000f6
:020000040000fa
:0200000401f009
:04000c00fbff0000f6
:020000040000fa
:0200000401f009
:04001000fdff0000f0
:020000040000fa
:0200000401f009
:040014007fff00006a
:00000001FF
