:020000040000fa
:080000000002040000000000f2
:020000040000fa
:100400006fa820000eff27000e01880000000000ea
:100410000c000700a041220001002000110007008d
:10042000000020000000e000020032000000020096
:10043000000000006a1a0200000000000040da001c
:100440000000fe004440a900000620000000e0007b
:100450000300320000002000a00188004440a800f2
:100460000000060091018800800078000000eb0089
:1004700015003700e280400032a0b4009101ba00bc
:10048000e280400032a0b4009102ba00e280400055
:1004900032a0b4000002eb00472bde00f507b200eb
:1004a000602ce10004003a000059eb008301e900f0
:1004b000fdff3e00040037006128e100010032002a
:1004c0000082eb00040007001101ba000200e00006
:1004d000e8ff3a00000006003159ba008301e90044
:1004e0000c0032002159ba008301e90008003200f3
:1004f0000400e00003003a00e280400032a0b400b3
:10050000f5ff370011d9ba008301e900faff3a007c
:100510008100e800e180400032a0b4000000060045
:100520000040da000000fe0042118800001188003f
:10053000111188000000060003f0a200889fbe0091
:100540008a9fbe008c1f78001c0107002301330026
:100550006450e1004f0032006420e100520032009c
:1005600003826c0007003b000905d0000306d000a1
:10057000820f54000c065d000200390002003200b8
:1005800089017800030678008582550004003d004b
:100590000003fd008103fd008502ea008b85420017
:1005a000840f720002003b0060001000e080180021
:1005b0006011b8000005eb007a28e1000a0039005c
:1005c00006007800c75ddd00f707b2008780750080
:1005d0002d003700828171000a01780061056000fa
:1005e0008180d1000080d3008502e900f9ff3b0043
:1005f000060440008784480002003b0060041400a9
:10060000e0841c000988a300070032008a81710081
:1006100082817100610164008904d1000884d300e3
:100620008b05e800170037000978a30013003a0093
:100630000b00e000130034008b05e90008044400bf
:1006400089844c000a4474000978a3000d003a0024
:100650000b00e000070034008b05e90008044400ab
:1006600089844c0001003a000b0020000978a300a7
:10067000f7ff32000001eb000200370082817100b9
:100680000a017800920007000cf0a70001f0a0001a
:10069000db0037006420e10002003a00838f6c0029
:1006a000db0033000801be000200be00d4003700aa
:1006b000889fbe008a9fbe008c1f7800bf00070085
:1006c000c600330003866c006450e1002e00320047
:1006d0006420e100330032006150e1002f0032005d
:1006e0006120e1003100320085855500eb07b00044
:1006f0000900200008042000050037000804440019
:1007000089844c000a0031000603430087834b00b4
:100710000001530081815b00f8ff33000203be003b
:100720000800a0000804440089844c00f6ff39004a
:10073000c639dd0083017300010032001300200080
:100740008904d1000884d3000998a3000500320071
:100750000800a7000300a0008904d1000884d3008a
:100760008b05e8008904d1000884d3000001eb0068
:100770000281d2005600070001f0a1000cf0a70092
:1007800001f0a0009e0037006420e100a0003200cc
:100790000801be000200be00f7ff37006120e10043
:1007a0009b0032006000b800f3ff3700000020001b
:1007b00001f82700f0ff37000001be006a000700c3
:1007c0000470a70003f0a10003f8a30013003a008f
:1007d0006509b10010003200090035006928e10008
:1007e0000200350001002800000005000000400064
:1007f000818048008502e900fcff3a000000060005
:10080000f88f4200050035008100d1000080d30040
:100810008502e800fcff3a00000006008000eb00c3
:1008200000000500889fbe008a9fbe000105780079
:100830000100e0000400350008003c000000e0007a
:10084000200032000500370060001000e080180032
:1008500002003b0001f02c001a0037000004be002b
:100860006011b8006b0920000982cf000200390036
:100870000882cf000441b000694252000e003200ed
:1008800008003b0082817100610164008904d1008d
:100890000884d3008b05e8000442e800f9ff3a0021
:1008a000050037000804440089844c008b05e900ea
:1008b0000442e900fbff3a00050007000af0a70028
:1008c00001f0a0004f05be004f04be00000006006e
:1008d00081002000618055000b003d000b002000ce
:1008e00061fe2f000100e1001d00340082817100d3
:1008f000610164008904d1000884d3000000e8008d
:10090000faff3a00710020006100640003007000eb
:10091000020060000900320061044400e0844c00e1
:100920000988a500050032008b05e8006808e10091
:1009300002003a008904d1000884d300f20f20009d
:100940000258e10005003d00c75ddd00f907b20077
:100950008980750008007800000006000bf8270069
:100960008b00780000000500c70ade00f107b20026
:10097000f50fb20008003200e1cf42000200320061
:100980000170a00024000500810f700001003200fa
:100990000408050044000500810f700002003a00c1
:1009a000140005008502e9000000400081c04800f5
:1009b000fcff3b000170a000240005000004be0005
:1009c000e9ff07000003be000405be000200be00f0
:1009d000e5ff0700844f7500000006000200be001e
:1009e0006450e100050036006420e100020036009a
:1009f0000968a30001003a000800be000160a000e1
:100a00004f0678004f05be004f04be0000000600f0
:100a1000f0ff2f00f1ff2700f9ff3700889fbe008d
:100a20008a9fbe008c1f7800e4ff0700ebff3300b5
:100a300003866c006450e100240032006420e10071
:100a4000270032006150e100220032006120e10005
:100a5000210032008b854200eb07b1000134b80061
:100a6000003ab8000804420089844a00013ab800fc
:100a70000030b8008880400009014a0004003300bb
:100a80000000400081804800020149008b05e90018
:100a9000c909dd008301700001003200130020004d
:100aa000c814de004814dd004709de001200b20061
:100ab000c808de000884700085ff070001f0a1006f
:100ac0000cf0a70001f0a000cdff37006120e1008d
:100ad000cfff32000801be000200be00f7ff370062
:100ae0006150e100fcff3a00c9ff37006022b80006
:100af000060220000000d0008180d2000482d200d3
:100b00008582d2000000a0000202520083825a00b7
:100b1000030031000202420083824a000000a1006b
:100b20000603e900f3ff3a0000000600881f780082
:100b300000047800300090000008a3000700320095
:100b4000800078000120b20004003a0011049800ef
:100b5000a8009000010c7800170037000018a300cf
:100b6000190032000098a30017003200a80090007e
:100b70000100e00014003200180190000200e000c3
:100b80001100320048009000fb050700980090001b
:100b9000810f500003003200380090000003b300c2
:100ba000300498000000eb0010049800280090002a
:100bb000000c7800380090000058a30002003200ba
:100bc0000080eb00010037000000eb004f047800cc
:100bd000000006000000fa00cfb8970068815700b7
:100be00060a62000590007000080fa0000000600ff
:100bf000889fbe008a1f7800804078000004e000d3
:100c000021003d008040ea00d0c6b30080cf5000f4
:100c1000090034008104fb00420620001100090095
:100c20008204d80000017800010078004311dd0043
:100c3000ea8220001f0037000100fb00e382200051
:100c400039003700a2002000110009000200d8007e
:100c500000017800010078004311dd00030141002c
:100c60004300dd00030040003002be002003be0050
:100c700042209000d2209000f2219000622190004a
:100c8000a90707002e003700d0c6b30080cf500060
:100c9000230034008104fb004206200011000900fb
:100ca0008204d80000017800010078004311dd00c3
:100cb000ea8d20000a014100a8002000110009006f
:100cc0000800d8004300dd000a00400040229000e8
:100cd000d022900060239000f023900002889000c2
:100ce00092889000b2899000228990008e070700b8
:100cf000801f780001027800110009008804d800e4
:100d00000102fd004f0078000402fb004322dd00d9
:100d10000a0242005403be004402be00d8ff37005e
:100d20000100fb00e38d2000eacf5000c5ff3c002e
:100d30004300dd00030040005001be004000be0043
:100d40004f0578004f04be00000006008f03b0007e
:100d5000889fbe008a9fbe008c9fbe008e1f7800b9
:100d6000e0b79f00f1b79f0082bf9f000000eb003b
:100d7000a0b79f00e60437008001eb0050c2b3002b
:100d800080cf5000090032000100fb00efb0970057
:100d9000ec040700e10f4000dd043200afb0970023
:100da0008100e800a1b79f00d90437007fb1970008
:100db00092407800d0c2b30080cf50000c003200c7
:100dc00007003c006d40500080cf50000d00320005
:100dd0006b40400080cf500019003a000e003700f1
:100de00000c3b30080cf500015003a000f00370059
:100df0000330a0007fb297000402e800f4b79f0020
:100e0000eaff37000300a000ffb297008502e80068
:100e1000f5b79f00e5ff37000310a0007fb69700ed
:100e20000c06e800fcb79f00e0ff37000320a0009d
:100e30007fb097000000e800f0b79f00dbff3700ad
:100e40000318a300010032000300a1000338a3002f
:100e5000010032000320a1000100fb0002fd2f0071
:100e600002004000e90f500010003e008000eb003f
:100e7000c1b79f00020278004fb197006a10b90015
:100e8000ffb297001501fb00000141000401410081
:100e9000c2b79f005500fb00f5b79f00040040005b
:100ea000e90f50000d003e00f3ff37000006eb0095
:100eb000ccb79f00a0c2b30080cf500007003a001b
:100ec0000fb89700c000780080bf9f00c1b79f0097
:100ed0007fb197000201e800f2b79f00e0c2b300c3
:100ee0007fb29700944f100021003a0083067800eb
:100ef0000de0a0008400e80064405000914f100015
:100f000004003200f1b79f008002eb00b5b79f00ec
:100f1000100037000fbe97004c0078008cbf9f0078
:100f2000b0b79f00ffb097008180e800f1b79f0045
:100f3000130037003fb297006a20b900000041005b
:100f400003004000b0b79f00ffb297008502e800a1
:100f5000f5b79f007fb697001c01fb0003fd2f0033
:100f600003004100e90f5000f2ff36000400370093
:100f7000830678000dc0a0000000eb00b0b79f0012
:100f80007fb19700b2407800f2b79f00c17f9f0009
:100f9000c0c6b30080cf50002700320014003c00d0
:100fa0006840500080cf50009d00320009003c0096
:100fb0006c40500080cf5000290032006b40400050
:100fc00080cf5000720032000104e000560432006d
:100fd0008e00370060c6b30080cf50001c00320086
:100fe0006340400080cf500088003a008c003700fa
:100ff00030c7b30080cf50001c00320007003c0017
:101000006440500080cf5000130032000040e800e0
:1010100080cf50007d003a001100370050c7b30068
:1010200080cf50007d0032006340400080cf5000f0
:1010300076003a000b003700000028000d48a3009e
:1010400001003a000001200080867600ccff3700c6
:101050000da0a000720037000d60a00070003700e6
:101060000d50a0000d70a0006d0037008fb99700e3
:101070004300780083bf9f00000478000000e00078
:1010800001003a00e8a220008004eb0001003700d4
:101090008104e80089007800088044001004e00022
:1010a000fbff3a003fb297000400e000030032006b
:1010b000890f520001003100840478000007eb0022
:1010c000cfb29700898f5200010036000987520085
:1010d0004368de00e106600019003a000d06780062
:1010e00009003700efb09700000220001504070048
:1010f000e10f4000030032002fb097000000e8002d
:10110000a0b79f000c06e8008e0f5600f5ff3a00ce
:101110000087eb000a003700880078003100fb00f0
:1011200001047800efb0970006040700e10f4000cb
:1011300003003200afb097008100e800a1b79f0024
:101140000900e90080047800e10f4000f2ff3a0056
:101150000006eb000d00e0000a003a00ec03370047
:10116000efb0970000022000f6030700e10f4000f7
:10117000030032002fb197000201e800a2b79f00e0
:101180000c06e8008e0f5600f5ff3a00e00337002a
:101190008fb997004300780083bf9f00cf80de00a7
:1011a00001017800820178000205be000004be0043
:1011b0000203be000002be004822de00482edd0011
:1011c00004027600c47f9f000d48a3000a0032008d
:1011d0000404e00008003200e14f42000600320043
:1011e000d1fb2f0001804700044878001840980088
:1011f0002900200002003700d07f9f001900200046
:10120000d2fb2f0002844700a6ff3700c3fb2f004c
:101210000384470019002000a2ff37000d0cb30023
:101220000070200000826600270232000dc8a30073
:101230000200320064002000b4b79f000d48a300f4
:10124000050032000fba97004401be004400be0002
:1012500084bf9f00040037008fba97004500be008e
:1012600085bf9f00a6050700e0af9f00f1af9f007c
:1012700082b79f0093b79f006022b8006033b80028
:101280006fa89700ffa897000fb197009fb1970034
:10129000ed0407000000e0000a003d006fa8970081
:1012a000ffa897000fb197009fb1970003f0a2002d
:1012b000e0af9f00f1af9f0082b79f0093b79f0000
:1012c0003d00b3000000eb0080a79f006022b80043
:1012d0006033b8006fa89700ffa897000fb1970080
:1012e0009fb197003c0507000000e0003400320089
:1012f0006fa89700ffa897000fb197009fb19700c4
:101300008006070003fc2f00038147000306070047
:101310000fa097000000e9006300b900a2002000c0
:10132000110009000200d8008000fd0081a79f0085
:101330000100e00002003d000100e90080a79f00dd
:101340000fa497000840ea0029fe07006faa970043
:10135000ffaa97000fb397009fb39700f20507000d
:10136000a0af9f00b1af9f00c2af9f00d3af9f005f
:101370006022b8000600200007ff2300b204070027
:101380000000e00002003d000800e9000b0037000b
:101390006022b80006002000470224002fa8970012
:1013a000bfa897004fa99700dfa99700ab040700db
:1013b0000000e000020035000800e80080a79f0060
:1013c0003fb29700f80f520057003c00d0c6b30060
:1013d000804f5200290036000485fb0042062000a1
:1013e000110009000285d80000017800010478008e
:1013f0004311dd00eb8220000b0141006022b800a8
:101400000600200007fe23000288900092889000ca
:10141000b289900022899000c3050700a90020002e
:10142000809fbe00110009000984d80000047800e4
:101430004f00be004344dd000b04440048229000ee
:10144000d822900068239000f8239000b60507008a
:10145000801f780001027800110009000985d8007a
:101460000102fd004f0078004322dd000b02420024
:101470005403be004402be001f0037000480fb007e
:10148000e9822000ea4f520014003600a20020003a
:10149000110009000280d8000001780001047800e2
:1014a0004311dd00090141006022b8000600200060
:1014b00007fe230042209000d2209000f2219000ed
:1014c00062219000980507004344dd0009044400b0
:1014d0003802be002803be00070037004300dd00cd
:1014e000090040006022b8000600200007fe23002b
:1014f0005001be004000be008b0507000002be0088
:101500000203be006fa89700ffa897000fb19700d5
:101510009fb19700cf030700e0af9f00f1af9f009e
:1015200082b79f0093b79f000fa49700e90f540064
:1015300015003c006022b8006033b8006fa8970027
:10154000ffa897000fb197009fb19700a204070072
:101550000000e000320032006fa89700ffa897005b
:101560000fb197009fb1970004050700e00f5000ee
:10157000e08f5800e00f5900e08f590028003a0032
:10158000e10f5400260034000400200005002e0066
:10159000b6e02200170124002fa89700bfa89700eb
:1015a0004fa99700dfa99700270407000000e0007b
:1015b00002003d0073005400010037007200540027
:1015c00080a79f000fc0970089fd0700a0af9f0074
:1015d000b1af9f00c2af9f00d3af9f000002be001b
:1015e0000203be006fa89700ffa897000fb19700f5
:1015f0009fb197001e040700e00407000205be002b
:101600000004be006000b8006011b800a0a79f00f1
:10161000b1a79f00c2a79f00d3a79f002e0037004d
:101620006fa89700ffa897000fb197009fb1970090
:10163000d20407000205be000004be00e00f500007
:10164000e08f5800e00f5900e08f5900020035008c
:10165000fb040700130037001000200001002000e9
:101660006011b80008006000898060000a01610014
:101670008b8161008b03d1000a83d3008982d30060
:101680000882d300000072008180720002017300a2
:1016900083817300ea0407000002be000203be005b
:1016a0006c0307000002be000203be006fa8970093
:1016b000ffa897000fb197009fb197008f05070013
:1016c000a0a79f00b1a79f00c2a79f00d3a79f001c
:1016d0000000eb0080a79f0014c0b300e598200035
:1016e0000b0037000400fb004300dd000500400054
:1016f0005001be004000be000040e10001c8e10012
:1017000002d0e10003d8e100030039000442e80000
:10171000f44f5200f3ff3a00c47f9f000400fb0027
:10172000bfb09700008040008fa0970001004000ec
:101730004fb1970000075100bfb197000300e000d0
:10174000010032000e07e9006380660001003200ec
:101750000e07e9000d28a30026003200e180660094
:101760000d18a3000c003200d00220000100e000a0
:1017700001003a000080e900efb097007102070015
:10178000e10f4000180032002fb297000402e80079
:10179000a4b79f00140037000100e00012003200df
:1017a000efb097000002200066020700e10f400042
:1017b0000d003200afb297008502e800a5b79f0088
:1017c00009003700efb09700000320005d0207001a
:1017d000e10f4000030032002fb697000c06e8002e
:1017e000acb79f000e07e9000e00e000f5ff3c00db
:1017f0003d0037000d38a3000a0032000b0037000f
:10180000efb09700000220004e020700e10f4000f9
:10181000030032002fb097000000e800a0b79f003f
:101820000e07e9000e00e000f5ff3c00e1806600d5
:101830000d18a3000c003200d00220000100e000cf
:1018400001003a000080e900efb097003d02070078
:10185000e10f400024003200afb097008100e800a3
:10186000a1b79f00200037000100e0001e003200f9
:10187000efb097000002200032020700e10f4000a5
:10188000190032002fb197000201e800a2b79f00b3
:10189000150037000000fb004300dd00e198200048
:1018a000010040003002be002003be000800be0060
:1018b0000a01be00e5050700a40020000500200085
:1018c0006033b800e80507000003b000efb09700f0
:1018d0001c020700e10f400003003200afb1970087
:1018e0008301e800a3b79f004f7a97000440e90006
:1018f000c07f9f00e14f4000e6ff3a000b00370039
:10190000efb09700000320000e020700e10f400037
:1019100003003200afb297008502e800a5b79f0030
:101920000fa097000000e90080a79f000fa097007c
:101930000000e000f2ff3c003fb6970020c1b3007a
:10194000f20f560001003c006fe09700c07f9f003f
:10195000cf7897000100fb003fb1970000005100d5
:10196000e0a79f000104e00008003200efb09700fc
:10197000e0022000f3010700e10f40000300320005
:10198000afb197008301e800a3b79f004f7897009d
:1019900097fc07000002be000203be002fa09700c4
:1019a000bfa097004fa19700dfa197005e0407003a
:1019b000f20307001e0037000000fb004300dd00bb
:1019c000ec9820000c0040003002be002003be0056
:1019d0000800be000a01be009c050700a40020000c
:1019e000050020006033b8009f0507000003b00029
:1019f000efb09700d3010700e10f40000300320071
:101a00002fb297000402e800a4b79f00cf7a970096
:101a10000500fb004300dd000c0040003002be006a
:101a20002003be000800be000a01be008e050700ac
:101a30000205be000004be004f7e97000c40e90086
:101a4000c07f9f00e14f4000dbff3a000006eb0043
:101a500009003700efb0970000032000b90107002c
:101a6000e10f4000030032002fb097000000e800b3
:101a7000a0b79f000c06e800efa09700810f56006a
:101a8000f4ff3a000d38a300a10132000e00e0007f
:101a90009f0134000006eb00efb097000002200029
:101aa000a8010700e10f4000030032002fb19700aa
:101ab0000201e800a2b79f000c06e8008e0f560056
:101ac00093013200f4ff37000d007800000cb200e3
:101ad00028003a000d00e00005003d008fb9970096
:101ae0004305be004304be0083bf9f0014003700bf
:101af0000d48a3000b0032000fba97004400be004f
:101b000084bf9f004f89de00cf91de000002be003f
:101b100002037800820378000605be000404be00bc
:101b2000070037008fba97004500780085bf9f00f7
:101b300000047800cfc4de00090578008a0578002b
:101b4000e00f5400e08f5c00e00f5d00e08f5d006f
:101b500020003d003d00b3006000b8006011b800f7
:101b600008045000898458000a0559008b855900e3
:101b7000180037000d00e00005003d000fbe970083
:101b80004c05be004c04be008cbf9f001100370006
:101b90000d48a300080032008fba97004500be0030
:101ba00085bf9f0004017800840178000205be0013
:101bb0000004be00070037000fbe97004c007800fd
:101bc0008cbf9f0000047800090020000a0020005c
:101bd0000b0020003fb097000000e00007003a0033
:101be000e00f5400e08f5c00e00f5d00e08f5d00cf
:101bf00002003a0011002000b1b79f000d077800e5
:101c00000e0cb20000042000800f57002f0032009d
:101c100003003c000e00e000070032003f003700e8
:101c200000082000800f570014003200000c200034
:101c3000800f570039003a0014c0b300e598200027
:101c40000b0037000400fb004300dd0005004000ee
:101c50005001be004000be000040e10001c8e100ac
:101c600002d0e10003d8e1002b0039000442e80073
:101c7000f44f5200f3ff3a00270037000001200024
:101c8000010020006011b80014c0b3000040e10062
:101c900001c8e10002d0e10003d8e1001e003900d4
:101ca000450020000000d0008180d2000281d200d7
:101cb0008381d2008502e900faff3a000442e8007d
:101cc000f04f5200f1ff3a0013003700800020006f
:101cd000010020006011b80014c0b3000040e10012
:101ce00001c8e10002d0e10003d8e1000a00390098
:101cf0003c0020000000d0008180d2000281d20090
:101d00008381d2000c06e900faff3a000442e800a1
:101d1000f54f5200f1ff3a00c47f9f00cf78970043
:101d20000100fb003fb19700820f500002003d0010
:101d3000c27f9f0004003700bfb19700808f510021
:101d400001003d00b0b79f004fb297000400e000d3
:101d50000400320063806600020032000402e900e1
:101d6000c4b79f000de8a3000b003200cfb297006c
:101d70003fb697008c8f520003003c000000eb0040
:101d8000c0b79f0004003700cfb097003fb1970065
:101d900082805000c1b79f00cf7997000300fb00fd
:101da0000002eb0094a79f00cfb29700808f5200f3
:101db000020034000080520090a79f000d28a3006d
:101dc00037003200e18066000d18a3000c003200dd
:101dd000d00220000100e00001003a000080e9008c
:101de000efb09700d7000700e10f40000e0032006f
:101df0002fb697000c06e800acb79f000a0037002a
:101e00000100e00008003200efb09700000220005f
:101e1000cc000700e10f4000030032002fb0970014
:101e20000000e800a0b79f009fa097000100e0001d
:101e30000f0032000006eb00efb097000003200017
:101e4000c0000700e10f4000030032002fb19700ef
:101e50000201e800a2b79f000c06e8009fa19700ce
:101e6000830f5600f4ff3a000002eb0094a79f0096
:101e7000bfb29700c328dd0060982000808040003a
:101e800091af9f004228dd006400500080af9f00aa
:101e90006328b900f0a79f00630650008200370056
:101ea0001fa697000c00e000110032006880660059
:101eb0000f003a0000067800efb097000002200003
:101ec000a0000700e10f4000030032002fb0970090
:101ed0000000e800a0b79f000c06e8009fa0970054
:101ee000810f5600f4ff3a000001eb0092a79f001b
:101ef000e18066000d18a3000c003200d002200023
:101f00000100e00001003a000080e900efb0970016
:101f10008c000700e10f4000d5ff3200afb1970001
:101f20008301e800a3b79f00d1ff37000100e00064
:101f3000cfff3200efb097000002200081000700c1
:101f4000e10f4000caff32002fb297000402e80000
:101f5000a4b79f00c6ff370000042000800f570081
:101f60003000320003003c000e00e00007003200a9
:101f70003d00370000082000800f5700110032009c
:101f8000000c2000800f570037003a001fa8970070
:101f90003002be002003be000800be000a01be00e1
:101fa0002a040700a4002000050020006033b800c8
:101fb0002d04070004c3b30004424000c47f9f0007
:101fc0002900370055a32000d5b79f000d58a30066
:101fd00002003a0060a42000d0b79f001400200047
:101fe000050020006033b8008fa897008100e90049
:101ff000050033000402d0008582d2000683d2009f
:102000008783d200f9ff37000800be000a01be0036
:102010000e0407006f0060005fb197006240780017
:102020001000370014002000050020006033b800c5
:102030008c0178008301e900050033000402d00020
:102040008582d2000683d2008783d200f9ff370051
:102050000800be000a01be00fc03070067406000e4
:102060000043b000c07f9f004f7a97000400fb0040
:10207000efb0970033000700e10f4000030032008b
:10208000afb297008502e800a5b79f001fa8970090
:102090006800500090af9f008fa89700e480500028
:1020a00081af9f0063065600d0ff2f003fb197001d
:1020b0000090b900ffa1970000804100630050002c
:1020c000800f5600a4ff3a000d38a3001000320024
:1020d0001fa297000400e0000d0034000006eb0092
:1020e000efb097000002200016000700e10f40004b
:1020f00003003200afb297008502e800a5b79f0049
:102100000c06e8001fa09700800f5600f4ff3a006d
:102110007fb19700b2407800f2b79f00c17f9f0067
:102120000104e00014fb3a002fb097004f0778003d
:102130004f06be004f05be004f04be008f03b10026
:1021400000000600889fbe000001780001047800ae
:10215000b10090000118a300400032000198a300d4
:1021600003003a00180090000000e0003b003a0035
:102170000190a0003104980082047800f90fb200a9
:10218000180090000000e00002003a0028009000d3
:10219000000c7800ea8f540006003a0038009000e6
:1021a0000078a30003003a0088007800d0002000e7
:1021b000e4ff0700180290006121b9005800900068
:1021c000e8009000800f5100818f59000b00320011
:1021d0000400e800100498001800780009587800fe
:1021e000000c780011c0b30020a82000014878003e
:1021f000ea8f54000600320019003700880078008a
:1022000009407800190007008004780014003700a6
:10221000380090000088a3001100320018019000df
:10222000a80090004800900053000700980090001c
:10223000810f500004003200380090000003b3000a
:10224000300498008084eb000000eb00100498003c
:1022500028009000000c7800010037008084eb001b
:10226000090078004f04be00000006000200fa00da
:10227000889fbe00a0ff9f0001047800b10090007d
:10228000810478000904b200020032000000fb0063
:10229000360037000118a30005003a000103b3001f
:1022a00031049800190498000080eb002f003700db
:1022b000580090000000e00006003a00480090003e
:1022c00012002000e68057002b0007001904980038
:1022d00024003700280090000000e00008003a00c9
:1022e000e0a7200020049800000c780020002000c7
:1022f00050049800100498000130a00031049800a8
:1023000018019000a8009000480090001a000700f3
:1023100028009000000c78000080eb00100498006a
:1023200018007800aff8970001587800000c78008a
:102330002ff89700ea4f50000a003a00380090004a
:102340000088a3000700320018019000a800900048
:10235000480090000800070019049800a8009000a9
:10236000010c7800aff897000100fb004f04be009d
:102370000080fa00000006000a00fa0080017800e0
:10238000e20f500028003e0020548000e10f500072
:1023900008003200802320000000e0000500320029
:1023a00004232000252320004623200080017800fc
:1023b00004003700042220002522200046222000ad
:1023c00083222000144090000004e0000400350047
:1023d0008009eb00144090000074a00010429800a7
:1023e000154090000028a30003003a00154090001b
:1023f0000024a000904298008001eb000700370005
:10240000154090000008a300fdff320063c0780073
:102410000000fb00000b78008301e800828f510070
:10242000f7ff3a000800370030002000b0bf9f00df
:10243000c3bf9f00d1bf9f00e2bf9f006a805700cb
:1024400000c0da006fb99700020078000080fa003f
:10245000000006002800fa00889fbe008a9fbe0088
:102460008c9fbe0007067800878669000c003b0041
:10247000030478008704780008f0a10009f0a100a7
:10248000840f5000858f5800860f5900890f5c001b
:10249000030033000cf0a20001003a000cf0a10090
:1024a000fe0007006400e1005f0032007801470091
:1024b0006408e100610032006c0147007485570038
:1024c0003200be001201be003a04be001a05be0072
:1024d0001e039000be0a90008503530006003d00d5
:1024e0000004fd008104fd000205fd008305fd00e0
:1024f0008703ea00050378000df8a300040032000a
:1025000060041400e0841c0060051d00e0851d00cf
:102510006022b8007d0320000d38e1008006eb004a
:102520000b0039004433dd00f300b2008301730077
:1025300039003700848272000d027800e1066400e1
:102540008b85d1000a85d3008984d3000884d30009
:102550008703e900f7ff3b0008004000898048003e
:102560000a0149008b81490004003b006000100013
:10257000e080180060011900e08119000358a300f1
:10258000090032008d827200848272006102600054
:102590008301d1000281d3008180d3000080d30069
:1025a0000603e8001b0037000348a30017003a00a9
:1025b0000600e000170034000603e9000d00a30048
:1025c00000004800818048000201490083814900e1
:1025d0000348a3000f003a000600e00009003400a1
:1025e0000603e90000004000818048000201490024
:1025f0008381490001003a000003eb000348a30077
:10260000f5ff32006022b8000200370084827200b9
:10261000618266007500070003f0a1000cf0a700be
:1026200003f0a000b1003700640147006408e10036
:1026300002003a000df8a300a9003a003200be00e3
:102640001201be00a90037008f1fd100010307004f
:102650008f87e9000000e00000000600809feb008b
:10266000fc0207008f87e9000000e0000000060080
:102670002800fa00889fbe008a9fbe008c9fbe0083
:1026800003866b00850007006400e100440032000f
:102690006408e1004a0032006100e10046003200b7
:1026a0006108e10049003200ec0647006000b80014
:1026b0003d02be003d03be00f48657006011b80025
:1026c0003d04be003d05be007d0320000b00370029
:1026d0000000a0008d06e900130032000402420051
:1026e00085824a0006034b0087834b0000004000b0
:1026f000818048000201490083814900080252009c
:1027000089825a000a035b008b835b00f0ff3b0069
:102710000802420089824a000a034b008b834b0067
:102720008d06e900edff3a00848272008682720015
:10273000f707b20087827200010032001500200006
:102740001e0490003e0b900006035400e63fb000cc
:102750000368a300070032000000a7000500a000e6
:102760008301d1000281d3008180d3000080d30097
:102770000603e8008301d1000281d3008180d300e9
:102780000080d3000002eb000482d2001700070093
:1027900003f0a1000cf0a70003f0a00053003700e5
:1027a000640247006408e1004d0032003400be00be
:1027b0003401be00f6ff37006108e1004800320036
:1027c0006011b8006000b800f1ff370003ff270078
:1027d00002002000fbff3700801feb009d02070076
:1027e0008f87e9000000e0000000060018002000cc
:1027f00057002000080453000d003d000600200093
:1028000097fc2f000740e1001e0034008482720014
:10281000610260008301d1000281d3008180d30076
:102820000080d3000804e800f8ff3a0047002000c9
:102830006104600005047400040464000d003200ab
:1028400061004000e080480060014900e0814900eb
:1028500003b8a500070032000603e8006538e10070
:1028600004003a008301d1000281d3008180d300ab
:102870000080d300f87f20000830e100030035001d
:10288000080378006000b8006011b8004433dd0030
:10289000f300b200830173000000060068044700e3
:1028a0000294be000094be00fc0447008694be0063
:1028b0008494be0009007800af0207000800780089
:1028c000ad02070099007800814f70000b003b00bb
:1028d0000800be00880207004f00b1000300370067
:1028e000f3ff2700f2ff2f006110b9004f06be0072
:1028f0004f05be004f04be000080fa000000060035
:102900008103780018f807000001be006000b800dd
:102910000478a30013003a006220e10015003e0095
:102920000d0039008301d1000281d3008180d300e2
:102930008301d1000281d3008180d3008301d100c3
:102940000281d3008180d3000538b000c42add00a5
:10295000f300b2008381720007f0a70003f0a0002b
:1029600000000600f3ff2700f2ff2f006110b900fe
:10297000fbff370003ff2700f7ff37001400fa00c2
:10298000889fbe008a9fbe008c9fbe000004be00d0
:102990000205be00680047000a90be000890be0015
:1029a000750207000070a7000bf0a1000bf8a30050
:1029b00020003a009e0990000e099000fe00900051
:1029c0006e0090009e0290003443200084825200ea
:1029d000c6ff32000a003c00b4fc2f000428e100ce
:1029e000140034008301d1000281d3008180d30020
:1029f0000080d3008502e800faff3a00bbff3700f1
:102a0000b40020000428e10007003c000000400062
:102a10008180480002014900838149008502e90064
:102a2000faff3a00b1ff370003002800020020003f
:102a3000010037006011b8006000b800abff37003c
:102a4000889fbe00830478000300e0002c0035005e
:102a500003003c0000827000040271002600320076
:102a600036432000c50020008383cf000a003900d0
:102a70000541b1008283cf00070039000541b10054
:102a80008183cf00040039000541b1008083cf006d
:102a9000010039000541b10085c353006022b80030
:102aa000120032000a003b00848272006102600062
:102ab0008301d1000281d3008180d3000080d30044
:102ac0000603e8008743e800f7ff3a0007003700f5
:102ad00000004000818048000201490083814900d4
:102ae0000603e9008743e900f9ff3a003fff0700ca
:102af00009f0a70003f0a0004f04be00000006008c
:102b000060001000e080180060011900e0811900e9
:102b1000d3ff3b00033e2c00f7ff3700c001070046
:102b200005097800000006002800fa00889fbe0012
:102b30008a9fbe008c9fbe0003866b0057ff070074
:102b40000028a30064003a000128a30067003a00af
:102b50000008a30062003a000108a30065003a00e3
:102b60001e009000be08900081064000ed3fb100bd
:102b7000f4805700ee019000111ab8008e09900001
:102b8000311bb8009e099000311cb800511db800df
:102b9000f485570046000700fe0190003a00070048
:102ba0008b85e8003e0007008e099000400007007a
:102bb000ee019000340007008b85e8003800070024
:102bc0008e099000400007009e0990001b18b80075
:102bd000890440000a854800fe0190003400070087
:102be0008b85e80038000700ee01900030000700f8
:102bf0008e0990001b18b800890440000a8548001f
:102c00000a98a30008003a000402420085824a00a4
:102c100006034b0087834b0008044c0089844c005a
:102c20000a054d008d06e90084827200850273005a
:102c30004c3add00850272000100320015002000d0
:102c4000443ade001400b2004538de00cb45dd001a
:102c50000b007000c540de00cb4ddd008b807000a6
:102c60004549de00cb55dd000b017100c551de008a
:102c70000d037800ddfe070003f0a1000cf0a700b3
:102c800003f0a00019ff37001b18b80085024000b0
:102c900006834800e0834b0060044c0007003700c7
:102ca0001b18b8000603400087834800faff37006e
:102cb0001b18b8008703400008844800e0844c00db
:102cc00060054d00000006001b18b8000804400015
:102cd00089844800faff37000108a30000ff3a008a
:102ce0005800be005801be00e3ff37000008a300f3
:102cf000fbfe3a0009047800f9ff370007f0a20054
:102d0000d4fd37001400fa00889fbe008a9fbe00e1
:102d10008c9fbe000005be000206be006800470092
:102d20000c90be000a90be00930107006400e10011
:102d30001a00320016003e006100e1001a00320065
:102d40006e049000fe0490000e0b90009e0b90000d
:102d50006011b8009e0590000b38b100d50120002d
:102d600082817100610164008703d1000683d30072
:102d70008984d3000884d3008502e900f8ff3a0073
:102d8000d3f607000df0a70001f0a000d7fe370032
:102d9000f1ff2700f0ff2f00d4fe370001f82700d5
:102da00000002000f7ff37006000b800f5ff370093
:102db000881f7800000478005001be004000be006b
:102dc00004004000858048000601490087814900d1
:102dd000009cbe000294be000400e1000588e100f2
:102de0000690e1000798e10002003100680044000d
:102df0001008e8004f04780000000600f487470040
:102e0000889fbe008a9fbe008c9fbe008e1f7800e8
:102e10000205be000004be00d4b79f00e5b79f00c6
:102e2000f6b79f0087bf9f000000eb00c0b79f0070
:102e3000b0b79f00a0b79f0090b79f0080b79f00da
:102e40000d042000bfb097004fb097000001400074
:102e50000000e0000f003d004f08de0000007100a0
:102e6000c0b79f004d00070001003d001200200088
:102e70005000070001003d0012002000550007002f
:102e800061000700660007000f004000c8ff070050
:102e9000220037004f08de0000067100ccb79f000b
:102ea0003e00070001003d00120020004100070025
:102eb00001003d00120020004600070052000700fc
:102ec0000fb297009fb297002fb39700bfb3970040
:102ed000590007000000520081805a0002015b0087
:102ee00083815b0080b79f0091b79f00a2b79f00ce
:102ef000b3b79f000007eb004f0007000020e10080
:102f000001a8e10002b0e10003b8e10001003100d6
:102f10001e0020000e005600c0b79f004fb2970061
:102f20000400e00007003500100020000100200030
:102f30006011b80008047000898470000a057100ef
:102f40008b8571008d06e900beff3a000400e000a9
:102f500003003d00320007000f00400094ff07000f
:102f60004fa897000000e00004003a000fb497005b
:102f70009fb497002fb59700bfb597000800be001b
:102f80000a01be004f0778004f06be004f05be0085
:102f90004f04be004f01b100000006000180400058
:102fa00090b79f000001eb008fb097000100e00098
:102fb000000006000200700090b79f0001804000f2
:102fc00080b79f000001eb00ffa897000100e00020
:102fd000000006000200700080b79f0001804000e2
:102fe0006faa9700cf20de0001007000f0af9f00b5
:102ff000040242000800be000a01be004f18de00b5
:103000000002720000000600e4af9f0008044400c4
:1030100089844c000a054d008b854d000000060098
:103020003fb29700cfb297005fb39700efb397001e
:1030300000fe2f00000006003fb09700cfb09700c1
:103040005fb19700efb1970000000600881f78007d
:1030500018002000881f780068ff07008f87e900ac
:103060004f04780000000600801feb0063ff07009c
:103070008f87e90000000600889fbe008a9fbe007f
:103080008c1f78000205be000004be00e00f500057
:10309000e08f5800e00f5900e08f59000c003d0010
:1030a0006000b8006011b80008045000898458001e
:1030b0000a0559008b8559001c0020001f000700dd
:1030c00008003d00180007000006eb00050037006f
:1030d0000006eb001900070002003d000f0007008a
:1030e0001c0020000800be000a01be00d7ff070038
:1030f0000203be000002be000c00e000010032002e
:10310000060007000400be000601be004f0678005e
:103110004f05be004f04be00000006006000b8006e
:103120006011b8000000370004025000858258008a
:10313000060359008783590000000600e00f520083
:10314000e08f5a00e00f5b00e08f5b00000006009c
:10315000889fbe008a9fbe008c1f78000205be00bb
:103160000004be00e00f5000e08f5800e00f59004f
:10317000e08f59000a003d006000b8006011b800ff
:1031800008045000898458000a0559008b855900ad
:103190001c0020001800070007003d000500370054
:1031a0000006eb001400070003003d006000b800bb
:1031b0006011b800150007000800be000a01be003b
:1031c000a9ff07000203be000002be000c00e000e1
:1031d000030032006000b8006011b8000b00070067
:1031e0000400be000601be004f0678004f05be0079
:1031f0004f04be0000000600e00f5200e08f5a00ae
:10320000e00f5b00e08f5b0000000600040250004e
:103210008582580006035900878359000000060084
:103220000003be00d0f507006220e100020032007a
:103230000600be0005000500e507b100f107b20079
:1032400004f023008480700007f0a70001f0a000c4
:1032500024000500889fbe008a9fbe008c9fbe0090
:103260000404be000605be00809fbe00829fbe0013
:103270002f000700040678000800be000a01be0007
:103280002b000700840678004f03be004f02be00eb
:103290008d4f76007fb0970013003300f0ff2f00b2
:1032a0008b8f6b0006003b000d0666000c00a7002c
:1032b0000a00370007f0a600100020000a003700bf
:1032c000880f5200898f5a008a0f5b008b8f5b003a
:1032d000030039001000200001003e000000200023
:1032e00007f0a7000000ea004f06be004f05be0031
:1032f0004f04be0000000600e48240001078a300e6
:1033000007003200640240001178a3003400be00c0
:103310001401be00040032000330a70000000600c4
:103320003500be001501be000330a00000000600fd
:1033300005ff270005826100070032000428e10034
:1033400001003200240005000600070001003a00d9
:10335000440005000408050002000700f9ff3a00d8
:10336000140005006f826100810270008502710007
:103370008502720000000600800078005002be0046
:103380005003be004439de00f700b200f37f200096
:1033900003016100090032000218e10016003a0042
:1033a000850172008301730083817300000820008f
:1033b00015003a004000200013003700850172001c
:1033c000830173008381730005003a0004a8be00e6
:1033d00006a8be00100020000b0037000201e90023
:1033e0000402420085824a0006034b0087834b009b
:1033f0000748a300f9ff32000740a00004a8be0060
:1034000006a8be00200020008000980092009800ce
:0434100000000600b2
:020000040000fa
:0200000401f009
:04000800ffff0000f6
:020000040000fa
:0200000401f009
:04000c00fbff0000f6
:020000040000fa
:0200000401f009
:04001000fdff0000f0
:020000040000fa
:0200000401f009
:040014007fff00006a
:020000040000fa
:1000080090020000900200009002000090020000a0
:100018009002000090020000900200009002000090
:10002800900200009002000090020000461e0000ae
:100038009002000090020000900200009002000070
:100048009002000090020000900200009002000060
:100058009002000090020000900200009002000050
:100068009002000090020000900200009002000040
:100078009002000090020000900200009002000030
:100088009002000090020000900200009002000020
:100098009002000090020000900200009002000010
:1000a8009002000090020000900200009002000000
:1000b80090020000900200009002000090020000f0
:1000c80090020000900200009002000090020000e0
:1000d80090020000900200009002000090020000d0
:1000e80090020000900200009002000090020000c0
:1000f80090020000900200009002000090020000b0
:10010800900200009002000090020000900200009f
:10011800900200009002000090020000900200008f
:10012800900200009002000090020000900200007f
:10013800900200009002000090020000900200006f
:10014800900200009002000090020000900200005f
:10015800900200009002000090020000900200004f
:10016800900200009002000090020000900200003f
:10017800900200009002000090020000900200002f
:10018800900200009002000090020000900200001f
:10019800900200009002000090020000900200000f
:1001a80090020000900200009002000090020000ff
:1001b80090020000900200009002000090020000ef
:1001c80090020000900200009002000090020000df
:1001d80090020000900200009002000090020000cf
:1001e80090020000900200009002000090020000bf
:0801f8009002000090020000db
:020000040000fa
:10020800900200009002000090020000900200009e
:10021800900200009002000090020000900200008e
:10022800900200009002000090020000461e0000ac
:10023800900200009002000090020000900200006e
:10024800900200009002000090020000900200005e
:10025800900200009002000090020000900200004e
:10026800900200009002000090020000900200003e
:10027800900200009002000090020000900200002e
:10028800900200009002000090020000900200001e
:10029800900200009002000090020000900200000e
:1002a80090020000900200009002000090020000fe
:1002b80090020000900200009002000090020000ee
:1002c80090020000900200009002000090020000de
:1002d80090020000900200009002000090020000ce
:1002e80090020000900200009002000090020000be
:1002f80090020000900200009002000090020000ae
:10030800900200009002000090020000900200009d
:10031800900200009002000090020000900200008d
:10032800900200009002000090020000900200007d
:10033800900200009002000090020000900200006d
:10034800900200009002000090020000900200005d
:10035800900200009002000090020000900200004d
:10036800900200009002000090020000900200003d
:10037800900200009002000090020000900200002d
:10038800900200009002000090020000900200001d
:10039800900200009002000090020000900200000d
:1003a80090020000900200009002000090020000fd
:1003b80090020000900200009002000090020000ed
:1003c80090020000900200009002000090020000dd
:1003d80090020000900200009002000090020000cd
:1003e80090020000900200009002000090020000bd
:0803f8009002000090020000d9
:020000040000fa
:103414002d2d00002d2000004c61000062200000d2
:1034240037200000444500004d4f0000202d0000cf
:103434002d2d0000004b0000703a000025310000e3
:103444002e330000662c00004b6400003a25000077
:10345400312e000033660000004b0000693a000082
:10346400253100002e330000660000005365000083
:10347400745f0000783d0000253400002e30000009
:1034840066000000505f0000783d00002534000015
:1034940064000000445f0000783a00002534000016
:1034a4002e30000066000000495f0000783a0000fa
:1034b400253400002e30000066000000465f000046
:1034c400783a0000253400002e3000006600000029
:020000040000fa
:1034d4000000fa000001eb008000eb000000eb00ac
:1034e400da0307002f060700200320006f060700f9
:1034f40010002000c005070020002000be050700c2
:103504001000200020548800eb01070000002a006e
:1035140061182000850607000040eb001402070034
:103524006000b8008106070080c1b30010020700e4
:103534000040eb00ea01070090c1b3000c02070051
:10354400f0c3b300e60107006000b8007706070087
:10355400a0a02900801f78009df507008f87e9004f
:1035640060a6200070f507006000b8006f06070031
:1035740080c1b300fe0107000040eb00d801070042
:1035840090c1b300fa01070070c3b300d40107006f
:103594006000b800650607002040800031408000cc
:1035a4000240800013408000809fbe00829fbe00c6
:1035b400d0a12900801f780085f50700ea8757000d
:1035c40060a6200058f507006000b8005706070001
:1035d40080c1b300e60107000040eb00c001070012
:1035e40090c1b300e2010700f0c2b300bc010700c0
:1035f4006000b8004d060700404080005140800044
:10360400809fbe00f0a22900801f780070f507009b
:10361400e687570060a6200043f507006000b80065
:103624004206070080c1b300d10107000040eb004f
:10363400ab01070090c1b300cd01070070c2b30015
:10364400a70107006000b80038060700f0408000ba
:1036540001418000809fbe0080a32900801f780064
:103664005bf50700e687570060a620002ef50700eb
:103674006000b8002d06070080c1b300bc0107003c
:103684000040eb009601070090c1b300b8010700a9
:10369400f0c1b300920107006000b80023060700e0
:1036a40060408000801f780040a42900801f7800bb
:1036b40047f50700e487570060a620001af50700c5
:1036c4006000b8001906070080c1b300a801070014
:1036d4000040eb008201070090c1b300a401070081
:1036e40070c1b3007e0107006000b8000f06070038
:1036f400b0408000c1408000809fbe00c0a429006b
:10370400801f780032f50700e687570060a6200086
:1037140005f507006000b8000406070080c1b30087
:10372400930107000040eb006d01070090c1b30056
:103734008f010700f0c0b300690107006000b80002
:10374400fa050700d0408000e1408000809fbe0061
:1037540060a52900801f78001df50700e687570043
:1037640060a62000f0f407006000b800ef05070031
:1037740080c1b3007e0107000040eb005801070040
:1037840090c1b3007a01070070c0b3005401070070
:103794006000b800e5050700204180003141800049
:1037a400809fbe0000a62900801f780008f507004e
:1037b400e687570060a62000dbf407006000b8002d
:1037c400da050700cc0007006c000700fdff370096
:1037d4000a00fa0030079800014f98000040eb00ff
:1037e400004f78000040eb00204798000f0037009e
:1037f4002e4090000081fb002e4090000080fb00d2
:1038040000004000800078003e00900000804000ee
:1038140090007800020041000e0040002100980052
:103824002e4090000040e80020479800ae409000f1
:103834000e48900080cf5000edff39000040eb00af
:1038440020479800210037000040eb00004f78002b
:103854001e40780010479800100037001e80fb00bf
:10386400000040000e004000a00090001e409000a8
:103874000080fb00000040000e004000200090008b
:10388400808f5000020031001e409000004f7800ed
:103894001e4090000040e800104798009e409000b1
:1038a4000e48900080cf5000ecff39001e80fb00d2
:1038b400000040008e0040000000eb00a0009800d3
:1038c4002e4090000040e800204798002e409000d1
:1038d4008080fb000e4890000080fb000000d100b7
:1038e4000080fb000000e800808f5000d6ff350008
:1038f4001e80fb0000004000800078003e00900025
:1039040000804000100078000080fa0000000600eb
:103914000200fa00881f780010c0b30044050700b5
:1039240000402f0011002000800507000000eb007c
:10393400000f7800080037001e04780051050700c6
:103944000001780088004400a0822000008040002c
:10395400020878001e0fe8001e00e000f6ff3200a7
:10396400a082200011c0b30099ff070060408800c6
:103974004f0478000080fa00000006000000fa00fe
:1039840040418000ea0f500056003a0080c1b30065
:10399400f70007000040eb00d100070090c1b3001e
:1039a400f3000700f0c1b300cd0007006000b800c9
:1039b4005e05070060408000801f780040a4290055
:1039c400801f780082f40700e487570060a6200077
:1039d40055f407006000b8005405070080c1b30027
:1039e400e30007000040eb00bd00070090c1b300f6
:1039f400df00070070c1b300b90007006000b80021
:103a04004a050700b0408000c1408000809fbe008e
:103a1400c0a42900801f78006df40700e6875700d2
:103a240060a6200040f407006000b8003f050700ce
:103a340080c1b300ce0007000040eb00a8000700df
:103a440090c1b300ca000700f0c0b300a40007008f
:103a54006000b80035050700d0408000e1408000d8
:103a6400809fbe0060a52900801f780058f40700dd
:103a7400e687570060a620002bf407006000b8001a
:103a84002a05070080c1b300b90007000040eb001d
:103a94009300070090c1b300b500070070c0b300e5
:103aa4008f0007006000b800200507002041800057
:103ab40031418000809fbe0000a62900801f78004d
:103ac40043f40700e687570060a6200016f40700b9
:103ad4006000b800150507000000eb0040418800b5
:103ae40003003700404180000000e80040418800a6
:103af4000080fa00000006001000fa00881f780019
:103b040022c8bf000004e000fdff32000040eb00cb
:103b140022e8b7007eff0700684080006140b900da
:103b24003ff3070060079800710798000800e00061
:103b340007003d0002002000037824006e0090007e
:103b4400fe0090007cf2070060079800710798005f
:103b5400f2408000034180006e009000fe0090005f
:103b640074f2070090408800a140880090408000d3
:103b7400a140800072408000834080006df2070005
:103b840002002000031a2400a3f30700b0408800b9
:103b9400c140880090408000a140800002002000c5
:103ba400031a2400c1f207000002be00d0408000c6
:103bb400e14080000001be000400be005ef2070088
:103bc400d0408800e140880090408000a1408000ff
:103bd40070408800814088000040800011408000cf
:103be40001f0a20092408000a34080008af3070005
:103bf4004007980051079800204080003140800021
:103c040001f0a200b2408000c340800082f30700ac
:103c14002007980031079800404080005140800000
:103c240001f0a200d2408000e34080007af3070054
:103c3400008fbe002e019000be0190004e00900047
:103c4400de0090003cf207001e01be003af20700bd
:103c540020418800314188002041800031418000aa
:103c640002002000834b240033f20700d1f2070046
:103c74008000780010002000110407004f04780031
:103c84000080fa0000000600801f78003400f8006d
:103c940000002000a00188000000fa0010c0b3005a
:103ca40022e8b7008460a9000080fa003400f9001b
:103cb4004f007800004006000000fa006200200077
:103cc400014020000000280016f2070000802e00aa
:103cd40031002000950407000080fa00000006006f
:103ce4000200fa00004f78000100370000000000d5
:103cf40023c2bf00624060000004e000fbff3a0002
:103d04001e80fb0020118800010037000000000025
:103d140023c2bf00614060000004e000fbff3200ea
:103d24000080fa00000006000600fa001007980060
:103d3400414798000040eb00004f7800070037002f
:103d44001e80fb00800078001e0090000080400070
:103d540010407800e2ff07001e4fe8004e4090003c
:103d64009e4f1000f6ff39000080fa0000000600a4
:103d74000200fa00004f7800c0c7b300d8ff070064
:103d84001e407800d6ff07000080fa0000000600fd
:103d94000000fa00c0c7b300d1ff07000040eb00e9
:103da400cfff07000080fa00000006000200fa00be
:103db400000f7800c0c7b300c9ff070010c0b300ec
:103dc400c7ff07001e007800c5ff07000080fa0047
:103dd400000006000200fa00000f7800c0c7b3001c
:103de400bfff070020c0b300bdff07001e0078001e
:103df400bbff07000080fa00000006000800fa007c
:103e0400000f7800110798002207980033079800e4
:103e1400c0c7b300b2ff070030c0b300b0ff070053
:103e24001e007800aeff07001e009000acff0700e4
:103e34002e009000aaff07003e009000a8ff070094
:103e44000080fa00000006000000fa00c0c7b300ba
:103e5400a3ff070040c0b300a1ff07000080fa00e1
:103e6400000006000800fa00000f7800110798000f
:103e74002207980033079800c0c7b30098ff0700d3
:103e840050c0b30096ff07001e00780094ff07009f
:103e94001e00900092ff07002e00900090ff070084
:103ea4003e0090008eff07000080fa00000006002c
:103eb4000000fa00c0c7b30089ff070060c0b30068
:103ec40087ff07000080fa00000006000200fa00e5
:103ed400000f78001e00e00002003c0010002000eb
:103ee400000f7800600020009e0f100002003400d4
:103ef40060002000000f7800c0c7b30078ff0700ff
:103f040070c0b30076ff07001e00780074ff07003e
:103f14000080fa00000006000000fa00c0c7b300e9
:103f24006fff070080c0b3006dff07000080fa0038
:103f3400000006000200fa00000f7800c0c7b300ba
:103f440067ff0700a0c0b30065ff07001e007800ec
:103f540063ff07000080fa00000006000800fa0072
:103f6400000f780011079800220798003307980083
:103f7400c0c7b3005aff0700b0c0b30058ff070022
:103f84001e00780056ff07001e00900054ff070033
:103f94002e00900052ff07003e00900050ff0700e3
:103fa4000080fa00000006000a00fa00000f780002
:103fb40011079800220798003307980044079800d7
:103fc400c0c7b30046ff0700c0c0b30044ff0700ea
:103fd4001e00780042ff07001e00900040ff07000b
:103fe4002e0090003eff07003e0090003cff0700bb
:103ff4004e0090003aff07000080fa00000006001f
:104004000a00fa0010079800210798003207980068
:1040140043079800c0c7b30031ff0700d0c0b30006
:104024002fff07001e0090002dff07002e009000b8
:104034002bff07003e00900029ff07000000eb0063
:10404400000f7800070037001e0078008000780019
:104054004e009000008040001040780020ff0700d0
:104064001e0fe800f00120009e0f1000f6ff340040
:104074000080fa00000006000a00fa00000f780031
:104084001107980022079800330798004407980006
:10409400c0c7b30012ff0700f0c0b30010ff070051
:1040a4001e0078000eff07001e0090000cff0700a2
:1040b4002e0090000aff07003e00900008ff070052
:1040c4004e00900006ff07000080fa000000060082
:1040d4000600fa00000f78001107980022079800e4
:1040e400c0c7b300fefe070000c1b300fcfe07001a
:1040f400000820009e0f10000300340000c8b30025
:10410400f7fe0700070037001e00e00003003d0033
:104114000040eb00f2fe0700020037001e007800aa
:10412400effe07009e00900000042000808f5000e6
:104134000300340000c4b300e9fe070008003700a0
:104144001e0090000000e00003003d000040eb0072
:10415400e3fe0700020037001e009000e0fe0700a7
:104164002e009000e10f5000060032002e00900057
:104174000000e0000300320010c0b300d8fe0700c6
:10418400020037002e009000d5fe07000080fa00e0
:10419400000006000a00fa00000f780011079800da
:1041a4002207980033079800044f9800c0c7b30053
:1041b400cbfe070020c1b300c9fe07001e00780033
:1041c400c7fe07001e009000c5fe07002e009000e9
:1041d400c3fe07003e009000c1fe07000e48900099
:1041e400bffe07000080fa00000006000000fa008d
:1041f400c0c7b300bafe070040c1b300b8fe070051
:104204000080fa00000006000000fa00c0c7b300f6
:10421400b3fe070050c1b300b1fe07000080fa00ee
:10422400000006000e00fa0010079800210798000d
:1042340032079800430798005407980065079800d0
:10424400c0c7b300a6fe070060c1b300a4fe070008
:104254001e009000a2fe07002e009000a0fe0700a2
:104264003e0090009efe07004e0090009cfe07005a
:104274005e0090009afe0700ce0090005e00900061
:104284000088b90082002000110009000200d80053
:10429400000f78000000eb001007980009003700b9
:1042a4001e009000800078006e00900000804000a6
:1042b400104078008afe07001e0090000000e8000d
:1042c400100798001e0090009e0f5000f4ff350068
:1042d4000080fa00000006000400fa00000f7800d5
:1042e40011079800c0c7b3007dfe070080c1b3006a
:1042f4007bfe07001e00780079fe0700c0c7b300ec
:1043040077fe070090c1b30075fe07001e00900001
:1043140073fe07000080fa00000006000400fa00a3
:10432400100798001e009000e80f500003003400ae
:1043340080002000100798000c0037001e00900039
:104344000000e00003003c0010002000100798006b
:10435400060037001e0090004300dd00680f500087
:104364009e00780010002000dbff07000080fa00a8
:10437400000006000c00fa0020079800310798009e
:10438400420798005307980021e2a9009560a9000c
:104394009580a9008560a9008580a900de42a80057
:1043a400de62a9005e0090000000e000020032001e
:1043b400d3c2a800d3e2a9002e019000be01900050
:1043c40000502300c1002000c7f107000000e900ed
:1043d400401188000000eb00001188002062a90051
:1043e40021e2a8005e0090000000e0000800320016
:1043f4002162a8001122200091407800c0cfb300b0
:1044040000c060000014a00021e2b70005003700de
:104414002162a90021c2bf00c1cfb30001406000e6
:1044240021e2b7004e009000e70060000011800018
:1044340000807000001188000000eb00101188005b
:104444002342a8000080fa00000006000c00fa00d5
:1044540020079800310798004207980053079800f6
:1044640031e2a90097c0a90097e0a90087c0a9007c
:1044740087e0a900de82a800dea2a9005e00900009
:104484000000e00002003200df82a800dfa2a900e1
:104494002e019000be01900000502300c1002000b6
:1044a40091f107000000e900c01188000000eb0052
:1044b400801188003062a90031e2a8005e009000fb
:1044c4000000e000080032003162a800112320003f
:1044d40091407800c0cfb30000c060000014a00079
:1044e40031e2b700050037003162a90031c2bf00d4
:1044f400c1cfb3000140600031e2b7004e0090002c
:10450400e700600080118000008070008011880046
:104514000000eb00901188003342a8000080fa00ec
:10452400000006000200fa00004f780033c2bf000a
:10453400624060000004e000fcff3a001e00fb0043
:10454400a011880033c2bf00614060000004e00095
:10455400fcff32000080fa00000006000200fa00ae
:10456400004f780033c2bf00624060000004e000e6
:10457400fcff3a001e80fb00a011880033c2bf007c
:10458400614060000004e000fcff32000080fa009b
:10459400000006000400fa001007980020c0b300d1
:1045a400004f78000a0037001e80fb004300dd0046
:1045b400e80050001e0090000180de00804078007a
:1045c40000c0eb0000c06000e4ff07001e4fe900dc
:1045d4001e04e000f4ff3a000080fa000000060028
:1045e4000600fa00100798002107980040c0b300a5
:1045f400004f78000d0037001e80fb004300dd00f3
:10460400680150001e009000ae0090008201780006
:104614008301e900030033008180d1000080d300ce
:10462400fbff3700bfff07001e4fe9001e04e00038
:10463400f1ff3a000080fa00000006000400fa00ce
:10464400000f780032c2bf00624060000004e00046
:10465400040032003222a900e00f20001007980065
:104664001000370032c2bf00614060000004e00067
:1046740007003200b0118000804078001e007800ee
:10468400014878000000eb0010079800050037008f
:104694009e0078000040eb0080487800f00f200076
:1046a400100798001e0090000080fa000000060029
:1046b4000800fa00008fbe00220798003307980014
:1046c40021e2a9009560a9009580a9008560a90050
:1046d4008580a900de42a800de62a9003e009000a9
:1046e4000000e00002003200d3c2a800d3e2a90017
:1046f4001e01be00005a220061022000faf00700e9
:104704000000e900401188000000eb00001188005f
:104714002062a90021e2a8003e0090000000e00011
:10472400080032002162a800112220009140780084
:10473400c0cfb30000c060000014a00021e2b700a5
:10474400050037002162a90021c2bf00c1cfb30018
:104754000140600021e2b7002e009000e7006000f5
:104764000011800000807000001188000000eb0040
:10477400101188002342a8000080fa0000000600ff
:104784000200fa00004f780023c2bf0062406000bc
:104794000004e000fcff3a001e80fb0020118800aa
:1047a40023c2bf00614060000004e000fcff32004f
:1047b4000000eb000080fa00000006000400fa008c
:1047c400000f780022c2bf00624060000004e000d5
:1047d400040032002222a900e0ff2f0010079800f5
:1047e4001000370022c2bf00614060000004e000f6
:1047f4000700320030118000804078001e007800ed
:10480400014878000000eb0010079800050037000d
:104814009e0078000040eb00804878000080eb00a8
:10482400100798001e0090000080fa0000000600a7
:020000040000fa
:104834000008000028000000020000003d0a5700a4
:104844003e0ad700a33c0a00d7a33b0000000000a7
:104854000000000000000000000000000000000054
:10486400000000000000b800440000000000000048
:104874000000000028080000040000000000000000
:104884002c0800000200000000000000840a000060
:10489400020000000200000001000000580a0000ad
:1048a40026000000020000005a0a80000a000000ee
:1048b400800a09000000000002007e000a000000d7
:1048c4007e0a060002010000000000000000000053
:1048d4000000060002020000000000007e0a000042
:1048e40006000000000000008e090000a000000087
:1048f40002000000010000000000000000000a00a7
:10490400000000000000000000640000000000003f
:1049140000000000e8030000000000000000100098
:10492400270000000000000000a086000100000035
:104934000000000040420f00000000000000800062
:1049440096980000000000000000e100f50500005a
:104954000000000000ca9a003b00000000000000b4
:10496400e40b5400020000000000e8007648170041
:10497400000000000010a500d4e8000000000000c2
:10498400a0724e0018090000000040007a10f300e5
:104994005a0000000080c600a47e8d0003000000c1
:1049a40000c16f00f2862300000000008a5d7800d9
:1049b4004563010000006400a7b3b600e00d0000e9
:1049c40000e889000423c7008a0000002e0a0000c2
:1049d4002a00000002000000286e75006c6c29009b
:1049e4000030310032333400353637003839410075
:1049f4004243440045460000303132003334350030
:104a0400363738003961620063646500660000006f
:104a14002e080000600100000200000000000000f9
:104a240000000000f03f00000000a0009999b900c8
:104a34003f0000000040e1007a843f0000000000d5
:104a4400e04d6200503f00000000e000e2361a0032
:104a54003f0000000080b500f8e43e0000000000c4
:104a6400a0f7c600b03e00000000a000f2d77a0014
:104a74003e00000000e08e0079453e00000000008a
:104a8400e00b2e00113e00000000e000df7cdb00a4
:104a94003d0000000000a1009cc73b000000000096
:104aa400004c4800b439000000000000206ca10054
:104ab40037000000000000000000000000000000bb
:104ac40000000000000000000000000000000000e2
:104ad40000000000000000000000000000000000d2
:104ae40000000000000000000000000000000000c2
:104af40000000000000000000000000000000000b2
:104b04000000000000000000000000000000f000b1
:104b14003f000000000000000024400000000000ee
:104b240000000000594000000000000000408f0019
:104b3400400000000000000088c3400000000000a6
:104b440000006a00f84000000000000080842e008d
:104b5400410000000000d00012634100000000008a
:104b64000084d700974100000000000065cdcd000f
:104b74004100000000205f00a0024200000000008d
:104b8400801daf001544000000004000593e29007c
:104b9400460000000000000000f07f00000000005c
:104ba40000000000f07f0000000000000000f000a2
:104bb4007f0000000000000000f07f000000000003
:104bc40000000000f07f0000000000000000f00082
:104bd4007f0000000000000000f07f0000000000e3
:104be40000000000f07f0000000000000000f00062
:084bf4007f000000000000003a
:020000040000fa
:104bfc000800fa00404798000000eb00800888008d
:104c0c000000eb003008880084e0a90094e0a900c3
:104c1c000111200091407800f0ccb30000c060007e
:104c2c0001c2b3000140700010e1b70000c4b30032
:104c3c002ce8b700f0f9200060088800b0122000c2
:104c4c0001002000008fbe004e4090000080fb0051
:104c5c00300798003e009000e10f50000400320035
:104c6c003e009000e20f5000090032000f003700a8
:104c7c00d2e2a9001e007800600d88001e007800aa
:104c8c00500d880060002000700d88000700370070
:104c9c00d2c2a9001e007800300d88001e007800da
:104cac00200d880060002000400d880011e1a80054
:104cbc000080fa00000006000c00fa00889fbe007d
:104ccc0020479800210798002e009000cf80de002e
:104cdc00d1ee070040079800510798002e00900075
:104cec000000e00007003d000200200003782400d3
:104cfc004e009000de0090000dee0700400798007b
:104d0c0051079800d2cc2c00c31424004e00900004
:104d1c00de0090003eef07000004be002cc8bf0070
:104d2c000080fb00cf80de00bbee07000001be0060
:104d3c000800be005bee07000200200003f8230011
:104d4c00faed070099ee0700000f7800600880006c
:104d5c001e0f50002e4090000080fb003007980082
:104d6c003e009000e10f5000040032003e00900025
:104d7c00e20f500004003200050037001e007800de
:104d8c00500d8800020037001e007800200d8800ae
:104d9c004f04be000080fa00000006000000fa007c
:104dac00d822a900d842a900d862a900c7e2a8005d
:104dbc00c722a8002de3a9002d23a900dc22a800fe
:104dcc00dc42a800dc62a900f00020004019880039
:104ddc00013220009140780000ceb30000c070007a
:104dec0020e3b7001132200091407800c0cfb3000f
:104dfc0000c0600021e3b7002143a8000000eb00d5
:104e0c001019880025e3a90025c3bf00f041b300a9
:104e1c0025e3b70020c0b30024e3b70021e3a800ca
:104e2c000080fa00000006000200fa00004f780033
:104e3c0010c0b3009e4f100006003a00dc22a900ff
:104e4c00dc42a800dc62a800f000200040198800b9
:104e5c000800370020c0b3009e4f100005003a0038
:104e6c00dc22a800dc42a900dc62a9009000200032
:104e7c00401988000080fa00000006000000fa00cb
:104e8c002023a80020c3bf00614060000004e000a4
:104e9c00fcff32002003a900001880000080fa00fb
:104eac00000006000600fa002007980005e1a900a2
:104ebc000421a90004c1a9004110200091407800f0
:104ecc00f0ccb30000c0600001c2b3000140700020
:104edc0004e1b7000000eb0000088800ae00900071
:104eec00800c20000088b90001002000008fbe005b
:104efc001e00780010088800510a200091407800ac
:104f0c00f0c8b30000c060000044a000a5e0b700ea
:104f1c008460a9009460a80005e1a8000080fa0054
:044f2c00000006007b
:020000040000fa
:104f3000f03fb1000180b10006003500ee0309002a
:104f400000000000403fb1000180b100fbff3d00c8
:104f50001000b000203fb0000200350000800900c2
:084f6000000000000000060043
:00000001FF
