:020000040000fa
:080000000002040000000000f2
:020000040000fa
:10000800b0020000b0020000b0020000b002000020
:10001800b0020000b0020000b0020000b002000010
:10002800b0020000b0020000b00200003e1d000057
:10003800b0020000b0020000b0020000b0020000f0
:10004800b0020000b0020000b0020000b0020000e0
:10005800b0020000b0020000b0020000b0020000d0
:10006800b0020000b0020000b0020000b0020000c0
:10007800b0020000b0020000b0020000b0020000b0
:10008800b0020000b0020000b0020000b0020000a0
:10009800b0020000b0020000b0020000b002000090
:1000a800b0020000b0020000b0020000b002000080
:1000b800b0020000b0020000b0020000b002000070
:1000c800b0020000b0020000b0020000b002000060
:1000d800b0020000b0020000b0020000b002000050
:1000e800b0020000b0020000b0020000b002000040
:1000f800b0020000b0020000b0020000b002000030
:10010800b0020000b0020000b0020000b00200001f
:10011800b0020000b0020000b0020000b00200000f
:10012800b0020000b0020000b0020000b0020000ff
:10013800b0020000b0020000b0020000b0020000ef
:10014800b0020000b0020000b0020000b0020000df
:10015800b0020000b0020000b0020000b0020000cf
:10016800b0020000b0020000b0020000b0020000bf
:10017800b0020000b0020000b0020000b0020000af
:10018800b0020000b0020000b0020000b00200009f
:10019800b0020000b0020000b0020000b00200008f
:1001a800b0020000b0020000b0020000b00200007f
:1001b800b0020000b0020000b0020000b00200006f
:1001c800b0020000b0020000b0020000b00200005f
:1001d800b0020000b0020000b0020000b00200004f
:1001e800b0020000b0020000b0020000b00200003f
:0801f800b0020000b00200009b
:020000040000fa
:10020800b0020000b0020000b0020000b00200001e
:10021800b0020000b0020000b0020000b00200000e
:10022800b0020000b0020000b00200003e1d000055
:10023800b0020000b0020000b0020000b0020000ee
:10024800b0020000b0020000b0020000b0020000de
:10025800b0020000b0020000b0020000b0020000ce
:10026800b0020000b0020000b0020000b0020000be
:10027800b0020000b0020000b0020000b0020000ae
:10028800b0020000b0020000b0020000b00200009e
:10029800b0020000b0020000b0020000b00200008e
:1002a800b0020000b0020000b0020000b00200007e
:1002b800b0020000b0020000b0020000b00200006e
:1002c800b0020000b0020000b0020000b00200005e
:1002d800b0020000b0020000b0020000b00200004e
:1002e800b0020000b0020000b0020000b00200003e
:1002f800b0020000b0020000b0020000b00200002e
:10030800b0020000b0020000b0020000b00200001d
:10031800b0020000b0020000b0020000b00200000d
:10032800b0020000b0020000b0020000b0020000fd
:10033800b0020000b0020000b0020000b0020000ed
:10034800b0020000b0020000b0020000b0020000dd
:10035800b0020000b0020000b0020000b0020000cd
:10036800b0020000b0020000b0020000b0020000bd
:10037800b0020000b0020000b0020000b0020000ad
:10038800b0020000b0020000b0020000b00200009d
:10039800b0020000b0020000b0020000b00200008d
:1003a800b0020000b0020000b0020000b00200007d
:1003b800b0020000b0020000b0020000b00200006d
:1003c800b0020000b0020000b0020000b00200005d
:1003d800b0020000b0020000b0020000b00200004d
:1003e800b0020000b0020000b0020000b00200003d
:0803f800b0020000b002000099
:020000040000fa
:100400008fb820000eff27000e01880000000000ba
:100410000c000700000f2200010020001f00070051
:10042000000020000000e000020032000000020096
:1004300000000000281b0200000000000040da005d
:100440000000fe004440a900e00220000000e0009f
:100450000300320000002000a00188004440a800f2
:1004600000000600f03fb1000180b1000600350039
:10047000ee03090000000000403fb1000180b10020
:10048000fbff3d001000b000203fb000020035002f
:1004900000800900000000000000060091018800b3
:1004a000800078000000eb0015003700e28040007b
:1004b00032a0b4009101ba00e280400032a0b40042
:1004c0009102ba00e280400032a0b4000002eb00ca
:1004d000472bde00f507b200602ce10004003a0073
:1004e0000059eb008301e900fdff3e0004003700e6
:1004f0006128e100010032000082eb0004000700e7
:100500001101ba000200e000e8ff3a000000060016
:100510003159ba008301e9000c0032002159ba00b8
:100520008301e900080032000400e00003003a0003
:10053000e280400032a0b400f5ff370011d9ba00c4
:100540008301e900faff3a008100e800e180400001
:1005500032a0b40000000600f01c040000000000ff
:100560000040da000000fe0000c0da0000000600d3
:100570000a00fa00e20f500021003e00204c8000eb
:10058000e10f5000060032008523200044232000a4
:100590002323200000232000e08f520004003a00b3
:1005a0008522200044222000232220000022200057
:1005b000060028009003630002003a00870a7800d2
:1005c00010087300004020001300600001003a0092
:1005d00013a0a00002007800060037009302780004
:1005e0000510b200fdff3200b102fb00050a7800e1
:1005f0000000e900e00f5000f8ff3a000800370063
:1006000033002000b3bf9f00c0bf9f00d1bf9f0039
:10061000e2bf9f006a805700d3ff07006fb99700c1
:10062000020078000080fa0000000600889fbe00eb
:1006300080047800304c8000e00f500004003a0045
:100640000e0007000084eb00e00f500008003500aa
:10065000384c8000e08f540005003200090044004f
:1006600006000700e00f500001003d000084eb0091
:10067000080078004f04be0000000600e00f5000a4
:1006800004003a0081982000314c880080007800f6
:10069000060037008080eb0082b82000820f5000f7
:1006a00002003e00304c88008000eb000100780022
:1006b0000000060003f0a200889fbe008a9fbe00d3
:1006c0008c1f7800f7000700fe0033006450e10043
:1006d0004f0032006420e1005200320003826c00bf
:1006e00007003b000905d0000306d000820f54002c
:1006f0000c065d000200390002003200890178001a
:10070000030678008582550004003d000003fd00cb
:100710008103fd008502ea008b854200840f720090
:1007200002003b0060001000e08018006011b8007b
:100730000005eb007a28e1000a0039000600780085
:10074000c75ddd00f707b200878075002d00370018
:10075000828171000a017800610560008180d1000a
:100760000080d3008502e900f9ff3b000604400049
:100770008784480002003b0060041400e0841c00f1
:100780000988a300070032008a817100828171000c
:10079000610164008904d1000884d3008b05e8005e
:1007a000170037000978a30013003a000b00e0009f
:1007b000130034008b05e9000804440089844c00d0
:1007c0000a4474000978a3000d003a000b00e00011
:1007d000070034008b05e9000804440089844c00bc
:1007e00001003a000b0020000978a300f7ff320057
:1007f0000001eb0002003700828171000a017800dd
:10080000c00007000cf0a70001f0a000b600370000
:100810006420e10002003a00838f6c00b6003300d0
:100820000801be000200be00af003700889fbe0076
:100830008a9fbe008c1f78009a000700a100330039
:1008400003866c006450e100240032006420e10063
:10085000270032006150e100220032006120e100f7
:10086000210032008b854200eb07b1000134b80053
:10087000003ab8000804420089844a00013ab800ee
:100880000030b8008880400009014a0004003300ad
:100890000000400081804800020149008b05e9000a
:1008a000c909dd008301700001003200130020003f
:1008b000c814de004814dd004709de001200b20053
:1008c000c808de00088470008e00070001f0a10057
:1008d0000cf0a70001f0a000830037006120e100c8
:1008e000850032000801be000200be00f7ff37009d
:1008f0006150e100fcff3a007f003700f4ff2f0059
:10090000a600370014002000a4003700889fbe0016
:100910008a9fbe008c1f78006200070069003300c8
:1009200003866c006450e1002e0032006420e10078
:10093000330032006150e1002f0032006120e100fd
:100940003100320085855500eb07b000090020001a
:1009500008042000050037000804440089844c0086
:100960000a0031000603430087834b000001530057
:1009700081815b00f8ff33000203be000800a00085
:100980000804440089844c00f6ff3900c639dd00b4
:100990008301730001003200130020008904d1009c
:1009a0000884d3000998a300050032000800a700be
:1009b0000300a0008904d1000884d3008b05e8005f
:1009c0008904d1000884d3000001eb000281d20029
:1009d0004c00070001f0a1000cf0a70001f0a000fe
:1009e000410037006420e100430032000801be00ee
:1009f0000200be00f7ff37006120e1003e00320038
:100a00006000b800f3ff37000000200001f8270065
:100a1000f0ff37000001be007b0007000470a70054
:100a200003f0a10003f8a30013003a006509b10028
:100a300010003200090035006928e100020035008d
:100a400001002800000005000000400081804800ef
:100a50008502e900fcff3a0000000600f88f420022
:100a6000050035008100d1000080d3008502e80038
:100a7000fcff3a00000006008000eb0000000500cb
:100a80006011b800750037000081eb00a20037004c
:100a90000001eb00a00037004f89de0082017800e2
:100aa000060137000004be00570007000003be0027
:100ab0000405be000200be0053000700844f75000d
:100ac000000006000200be006450e1000500360090
:100ad0006420e100020036000968a30001003a002a
:100ae0000800be000160a0004f0678004f05be0060
:100af0004f04be0000000600f0ff2f00f1ff2700aa
:100b0000f9ff370081002000618055000b003d0097
:100b10000b00200061fe2f000100e1001d003400e9
:100b200082817100610164008904d1000884d300ce
:100b30000000e800faff3a00710020006100640044
:100b400003007000020060000900320061044400ec
:100b5000e0844c000988a500050032008b05e80000
:100b60006808e10002003a008904d1000884d3003b
:100b7000f20f20000258e10005003d00c75ddd00d6
:100b8000f907b200898075000800780000000600af
:100b90000bf827008b00780000000500889fbe003e
:100ba0008a9fbe00841f7800beff07004f007800b8
:100bb00011003300f0ff2f00838f6c0006003b0014
:100bc000040565000a00a7000800370009f0a60028
:100bd0001000200008003700820f5400838f5c0053
:100be000030039001000200001003e00000020003a
:100bf00009f0a7000000ea004f05be004f04be0048
:100c00000000e00000000600c70ade00f107b200a5
:100c1000f50fb20008003200e1cf420002003200be
:100c20000170a00024000500810f70000100320057
:100c30000408050044000500810f700002003a001e
:100c4000140005008502e9000000400081c0480052
:100c5000fcff3b000170a00024000500889fbe003f
:100c60008a9fbe000082700004027100048271003d
:100c7000260032000004be000200be006011b80071
:100c80006b092000950220000182cf000a00390084
:100c90000541b1000082cf00070039000541b100d5
:100ca0000982cf00040039000541b1000882cf005d
:100cb000010039000541b100054252001200320026
:100cc0000a003b0082817100610164008100d10053
:100cd0000080d3008984d3000884d3008b05e8000a
:100ce0000442e800f7ff3a00070037000804440018
:100cf00089844c0000004800818048008b05e90091
:100d00000442e900f9ff3a007eff07004f05be00ec
:100d10004f04be0000000600889fbe008a9fbe00f0
:100d20008c9fbe00820578000004be00b6ff07005d
:100d30000800be006420e1000700390002003a000c
:100d4000f1ff2700f0ff2f000160a0001202200039
:100d5000e2438800550037006120e10003003a00bb
:100d60000b00a70001f823005000370001f0a1009c
:100d70000200210093642400e2fe07000800be0088
:100d800004003500b2fd2000930c24005b00070036
:100d90000004be000005eb000b00a6004f0dde00b6
:100da00001f0a1000004be0032982f0023ea2300c6
:100db0009efe07000001eb0003f023000b00a700dc
:100dc00003f823003cfe07004e0007000000a700c8
:100dd0000a00a20030ff07000b00e0000300320011
:100de0000200200003f0230032fe070001f0a20001
:100df0000006be0002002000930424008bfe0700c2
:100e00000801be002cfe0700809fbe000c00be0043
:100e100022a22a00d3a7230084fe07004f01be00b0
:100e200025fe07000004be0001f0a1000200200022
:100e300003982300b3fe07000800be001900350028
:100e40000001be0079fe07000006be00b2c5290001
:100e5000e362230075fe070022222b00f3942b008f
:100e600015fe07000c01be0070fe0700e2732800ab
:100e700083c0230010fe07000c01be006bfe0700bc
:100e800042aa2a00a3e22b000bfe07000c01be00c1
:100e900066fe07000801be0064fe07000801be00f0
:100ea00005fe07000a00a70001f0a2004f06be00e1
:100eb0004f05be004f04be0000000600881f7800ea
:100ec000030478000300e00007003d00600010000c
:100ed000e080180060011900e081190002003b0069
:100ee00001f02d00030037005cff070008f0a700a9
:100ef00001f0a0004f04780000000600040020006c
:100f0000210037000001be003fff07000470a7006a
:100f100003f0a1006509b100160032000d00350094
:100f20006828e10006003500f0ff2f00f1ff2700e0
:100f30000300e00013003b00010028000000050052
:100f400000004000818048008502e900fcff3a0073
:100f500008003700f88f420002003c008000eb00e0
:100f6000000005008100d1000080d3008502e80068
:100f7000fcff3a000300e00002003b0060001000ac
:100f8000e080180000000600889fbe008a9fbe0017
:100f90008c1f78004f26dd00c2fe0700c9fe33001b
:100fa0006120e100430032006250e10041003e0058
:100fb0003e0039006420e1003c003200058255000b
:100fc0000f003b000402e80038003a00800f530095
:100fd000818f5b00350034000800be0003f0a100e3
:100fe00001f0a60003f0a0000cf0a700b2fd07007e
:100ff000bdfe37000603430087834b000c464600c6
:101000000005530081855b00020033000a03be0027
:101010000c00a0000402e900f6ff3b008505780003
:101020000602430087824b0004003a006000b800cb
:1010300009f0a70001f0a000abfe3700000252004b
:1010400081825a000704e0000400330006034300d5
:1010500087834b008b05e900faff3700090578000c
:101060000604be000203be006011b800a5fe070022
:10107000e00f5200e08f5a000700350002003c00ec
:101080000c08a300040032000601be0003f0a0001b
:101090000cf0a70088fd07000a85680001f0a10098
:1010a0000af0a70001f0a0008ffe37000800be0084
:1010b0008dfe3700100220000cf0a600e0438800ef
:1010c0008dfe3700889fbe008a9fbe003004be00a0
:1010d0002005be000404440085844c0006054d0034
:1010e00087854d000898be000a90be009500070055
:1010f00002003100680040001008e8004f05be0003
:101100004f04be0000000600889fbe008a9fbe00fc
:101110008c1f7800000678003c04be002c05be0041
:101120000400540085805c0006015d0087815d003d
:10113000009ebe00029ebe0010002000810007003d
:10114000010039000000eb001c0e10004f06780073
:101150004f05be004f04be00000006001200fa005a
:10116000889fbe008a9fbe008c9fbe000205be0005
:101170000004be00e4b79f00f5b79f0086bf9f0044
:1011800097bf9f000000eb00d0b79f00c0b79f0043
:10119000b0b79f00a0b79f0090b79f0000067800ef
:1011a000fd032000dfb197004fb09700038141009d
:1011b000bfb09700e08f510004003d0066000700bb
:1011c0007e805700bfff0700030037006200070062
:1011d0007e805700ccff0700dfb09700e08f500003
:1011e0000700350014002000050020006033b8001f
:1011f00008047200898472000a0573008b857300ed
:101200000c06e8008d0f5600e6ff3400e08f50001a
:1012100006003d006fb29700ffb297000fbb97002a
:101220009fbb97007e805700a6ff07005fa897002e
:10123000e00f500004003a001fb49700afb49700cd
:101240003fb59700cfb597000800be000a01be0069
:101250004f06be004f05be004f04be000080fa00de
:1012600000000600881f780018002000881f780002
:10127000baff07008f87e9004f04780000000600de
:10128000801feb00b5ff07008f87e9000000060014
:10129000889fbe008a9fbe008c1f78004e0007000a
:1012a00005003d005100070009003d005b000700fc
:1012b0000006eb00060037005d00070004003d005b
:1012c0006044b8006055b800540007001c002000be
:1012d000e4ff0700e00f5600010032005a0007004b
:1012e0004f0678004f05be004f04be000000060008
:1012f000889fbe008a9fbe008c1f780036000700c2
:1013000003003d003900070006003d0004003700df
:101310004700070003003d006044b8006055b80076
:101320003e000700d6ff0700e00f56000100320024
:10133000450007004f0678004f05be004f04be0071
:10134000000006000440e10005c8e10006d0e1000d
:1013500007d8e10000000600cf01de000281710025
:10136000b2b79f004f09de0000004000000071008e
:10137000a0b79f000fb097004f01de0081804000b2
:101380008100710091b79f007faa9700cf20de00f7
:10139000000040000080700080b79f000800be0081
:1013a0000a01be004f18de00040242000002720073
:1013b000f4af9f000804440089844c000a054d00e6
:1013c0008b854d004fb29700dfb297006fb3970047
:1013d000ffb3970000000600e00f5000e08f5800b8
:1013e000e00f5900e08f5900000006006044b8008b
:1013f0006055b8000000540081805c0002015d006f
:1014000083815d001c0020000820e10009a8e100a4
:101410000ab0e1000bb8e10000000600040254002d
:1014200085825c0006035d0087835d000000060086
:101430000006eb00e00f5200e08f5a00e00f5b0067
:10144000e08f5b00000006006022b8006033b80047
:101450000000520081805a0002015b0083815b0022
:1014600000000600889fbe008a9fbe008c1f780087
:101470000006eb00e00f5000e08f5800e00f59002d
:10148000e08f590007003d006044b8006055b80087
:101490000000540081805c0002015d0083815d00da
:1014a0001c002000e00f5200e08f5a00e00f5b00ac
:1014b000e08f5b0007003d006044b8006055b80055
:1014c0000402540085825c0006035d0087835d0092
:1014d0000c00a20022000700e00f560006003200b8
:1014e0006022b8006033b8000000520081805a00ca
:1014f00002015b0083815b004f0678004f05be0050
:101500004f04be00000006006022b8000602200062
:101510000000d0008180d2000482d2008582d200f7
:101520000000a0000202520083825a000300310032
:101530000202420083824a000000a1000603e90083
:10154000f3ff3a0000000600020ab900001bb900d0
:101550000200b80081004200810043000000060044
:10156000889fbe008a9fbe008c9fbe000404b80006
:101570000506b8008904460060854e000606b800de
:101580000a054600e0854e000706b8008b054600b8
:10159000040eb800890446000a854e00e0854d001f
:1015a000050eb8000a0546008b854e00060eb800f1
:1015b0008b0546000416b8000a0546008b854e00d0
:1015c0000516b8008b054600041eb8008b054600c2
:1015d0000800be000a01be004f06be004f05be0057
:1015e0004f04be0000000600421188000011880070
:1015f00011118800000006000000fa006881570001
:10160000cfb8970040952000ab0007000080fa009b
:1016100000000600881f7800000478003800900061
:10162000800078001120b200e18f500005003a00e0
:101630008000eb0011049800a8009000010c7800d5
:1016400019003700000178002220b2000000eb00f2
:1016500021202000810f510016003a00a8009000c0
:10166000808f50001300320018019000800f51004d
:101670001000320048009000bdfb07009800900069
:10168000810f500003003200380090000003b300c7
:10169000300498000000eb0010049800280090002f
:1016a000000c7800380090000002b2000100320007
:1016b0000080eb004f04780000000600af36b00059
:1016c000889fbe008a9fbe008c9fbe008e1f780040
:1016d000f0b79f000104780002067800d3b79f009e
:1016e000f0312000800f5600060036000c00e800a4
:1016f0004804070080057800e08f550003003a0099
:1017000066003700abcc2f008f8545000040eb0012
:1017100080757e000000eb00d0879c008800e90007
:10172000e1879c000005eb004250dd00a1c82f00be
:101730008f804000610778000080e800e1067800b3
:101740000a05e9000e804600220020001100090071
:101750000200d8000c80b900ffb197000080410062
:101760000c017800800078000b007800f904070075
:101770008d0478000e047800010037000804e800aa
:101780000cc0b9007fb1970000014100e2b79f0093
:101790008b00780002007800dfb1970003000100a1
:1017a00000017800e00f510002003d00f3ff370018
:1017b0008904e9000cc9b9007fb09700020140001c
:1017c000820078000b00780082bf9f00dfb1970095
:1017d00003000100000278000fb99700e00f5200eb
:1017e000f3ff3500890f540005003c00efb097006f
:1017f0000c007800df0407000804e8008904e90011
:10180000890f5400deff34008e805400088056009b
:10181000808f50000a003d008d0f540012003d00e3
:101820000a05e8004250dd00a1c82f008f8040006b
:1018300000804000081878000d0878000a00370082
:10184000890f57000a003d000a05e8004250dd00fc
:10185000a2c82f000f014100000041000e187800bf
:101860000908780002003700890678000100370077
:10187000080778008d0f5700b2ff3500e00f5500c4
:10188000a9ff3d00a0cc2f000f004000808f550025
:10189000020032000b007800790407004f0778003f
:1018a0004f06be004f05be004f04be00ef1fb10043
:1018b000cf16b100000006000f04b000889fbe00e4
:1018c0008a9fbe008c9fbe008e1f7800c0b79f000d
:1018d000d1af9f00a2b79f000000eb00c00337000c
:1018e000dfa897008100e800d1af9f0052c2b3008b
:1018f00082cf520006003a000007eb0006c3b30097
:1019000003c2b300b1c2b3005fa897001400370050
:10191000cfb19700330190000204b20005003200fd
:10192000030278009401780085497800030ae800f2
:10193000070037000501fb00cfb0970002007800d8
:101940009504070000017800e10f4100a503320073
:10195000bfb297008502e800b5b79f00a10337002a
:1019600090427800d7c2b30087cf52000b003200fc
:101970000001e80087cf520005003c0083cf5200f1
:101980000900320081cf52000e003a0008003700f3
:1019900086cf52000b003a00070037000e30a0003f
:1019a0000000e800eeff37000e00a0000300370043
:1019b0000e10a000010037000e20a00002007800e9
:1019c000e7ff3700d0af9f00e2016700010032005f
:1019d0000e00a100e8016700010032000e20a10006
:1019e0008501fb000303b100e98f51000d003e00ab
:1019f000000020005fa997006a00b9000003b10051
:101a00009200fb0001004000d200fb000103b10086
:101a1000e98f5000f8ff3600c0af9f00d2af9f00a3
:101a20000c0037008004eb00c9af9f00a3c2b300d5
:101a300083cf520007003a002fb59700ca057800ff
:101a4000aab79f00cbaf9f005fa897000000e800f7
:101a5000d0af9f008000eb00e1af9f00e3c2b30076
:101a60005fa9970092cf11001e003a000ee0a0007f
:101a7000e4c151000201e800d2af9f001242780099
:101a8000834f52000d003a00afb297004503780033
:101a9000a5b79f00e6af9f00820378008703e800a8
:101aa00007017800100037006a00b9000003b10098
:101ab000020040008301e800020037006fa8970091
:101ac000dfa997001301fb0001fd2f008280400079
:101ad000e98f5000f4ff3600e0af9f00030178006b
:101ae000010037005fa9970032427800c4779f0059
:101af000c8c6b300884f520023003200d2af9f0007
:101b00000f003c0035c6b300854f5200a7003200dd
:101b100004003c00e04f52003703320083c5b3009d
:101b20000f00370043c6b300834f5200c400320099
:101b3000e5c14100834f5200ba003a00c0003700af
:101b400035c7b300854f52001a00320007003c0031
:101b5000f3c6b300834f5200110032008341e80006
:101b6000834f5200af003a000f00370053c7b30055
:101b7000834f5200b1003200e3c14100834f520055
:101b8000a8003a0009003700700067000100280033
:101b900001003a000101200001077700d2ff370061
:101ba0000e60a000a60037000e50a0000e70a0002e
:101bb000a3003700afb49700c9027800a9b79f000f
:101bc000d5b79f00e08f520002003a000b9420002e
:101bd000dbb79f000000eb00e0b79f005fb097000d
:101be000efb097007fb197008fb9970001003700e1
:101bf0008500e8008102780061427800e04f5200e1
:101c0000fbff3a00d0b79f00e1b79f00f2b79f00fb
:101c100083bf9f00efaa9700e08f520005003200bb
:101c20006fb39700868f5200020031008503780061
:101c3000e7b79f00efb297000006eb004fac9700ac
:101c4000850f540001003600050654006807670040
:101c50002f003a008c01780008c2b300cfb697007d
:101c6000100037003d0090000004b2000400320074
:101c70001d00780008487800800ee8000500370055
:101c80008d00780000022000c3030700e10f400030
:101c900003003200bfb497008904e800b9b79f0081
:101ca0008c0178000c06e900e08f5100edff3a004e
:101cb000170037003d0090000004b2000900320018
:101cc0009d01780008017800324078008049780052
:101cd000830ee80002047800e04f500008003a004c
:101ce00010003700080178003200fb000204780081
:101cf0008d007800a8030700e10f400009003200c2
:101d00003fb097000000e800b0b79f000500370023
:101d10005fb49700efb497007fb597008fbd970031
:101d2000cfb69700090078008004e900e00f50006a
:101d3000e0ff3a00d8b79f00e9b79f00fab79f00cd
:101d40008bbf9f00e00f5700a60232001100370042
:101d5000380090000004b20004003200180078003f
:101d60000d487800000ce800050037008800780076
:101d70000002200088030700e10f4000030032004a
:101d8000bfb297008502e800b5b79f000e06780045
:101d9000020037000dc2b3004fb497000c07e900f2
:101da000e00f5600eaff3a008e0237002fb397008b
:101db00046047800a6b79f00cfc4de00090578006e
:101dc0008a0578000802be000a03be004822de0031
:101dd0004828dd0004027000c4779f007006670089
:101de00009003200e04f520007003200e14f42008c
:101df00005003200d4779f00e8779f002100200083
:101e0000e1b79f0003003700d8779f001200200041
:101e1000e2b79f0053fb2f0083814700d3b79f0099
:101e20007cff370044fb2f0004824700d4b79f009b
:101e300015002000e5b79f0076ff37000e0cb300b9
:101e40000e007800000cb2003b003a00e00f570093
:101e500005003d002fb097004005be004004be00c5
:101e6000a0b79f000f00370070006700120032001b
:101e70002fb297004401be00a4b79f00e29f9f00cd
:101e8000f39f9f00140090004f80de0080a79f000a
:101e900090a79f006f9c9700ff9c97000fa597004d
:101ea0009fa59700d8b79f00e9b79f00fab79f009a
:101eb0008bbf9f000b003700afb49700490278003a
:101ec000a9b79f0004007800cf80de0001017800f0
:101ed00082017800d0b79f00e1b79f00f2b79f0062
:101ee00083bf9f005fb29700efb297007fb3970068
:101ef0008fbb9700e00f5200e08f5a00e00f5b00ad
:101f0000e08f5b0032003d003e00b3006022b8006d
:101f10006033b8005fb49700efb497007fb59700c7
:101f20008fbd97000804520089845a000a055b009f
:101f30008b855b0022003700e00f570005003d0055
:101f40002fb297004401be004400be00a4b79f001a
:101f50000f00370070006700120032002fb49700a6
:101f60004803be00a8b79f00e6a79f00f7a79f0001
:101f70008004eb0089af9f000005eb009aaf9f0043
:101f80006fa09700ffa097000fa997009fa9970047
:101f9000d0b79f00e1b79f00f2b79f0083bf9f00bb
:101fa0000b003700afb0970041027800a1b79f0047
:101fb00004047800090020000a0020000b00200023
:101fc000d8b79f00e9b79f00fab79f008bbf9f006b
:101fd000efac9700e08f54000d003a001a0020008b
:101fe000eaaf9f005fb09700efb097007fb1970016
:101ff0008fb99700e00f5000e08f5800e00f5900b4
:10200000e08f5900020032008000eb00e1af9f003a
:102010000e017800020cb200b2af9f000504200050
:10202000850f51003f00320003003c00e00f5100db
:10203000080032005600370004082000bfa99700ae
:10204000848f51001b003200040c2000848f51004b
:102050004f003a0013c0b300c3779f00e187200010
:10206000100037000200fb004300dd00008040004c
:102070003002be002003be005fb49700efb49700ab
:102080007fb597008fbd97000440e10005c8e100cf
:1020900006d0e10007d8e1003d0039000241e80028
:1020a000c2779f004f719700f44f5100edff3a0047
:1020b0003700370013c0b300c3779f00040120002e
:1020c000050020006033b800120037005fb49700ad
:1020d000efb497007fb597008fbd97000440e100f3
:1020e00005c8e10006d0e10007d8e100280039006a
:1020f000490020000402d0008582d2000683d2006d
:102100008783d2008904e900faff3a000040e80022
:10211000c0779f004f709700f04f5000ebff3a00e0
:102120001b00370013c0b300c3779f00840020005a
:10213000050020006033b800120037005fb497003c
:10214000efb497007fb597008fbd97000440e10082
:1021500005c8e10006d0e10007d8e1000c00390015
:10216000390020000402d0008582d2000683d2000c
:102170008783d2008904e900faff3a000040e800b2
:10218000c0779f004f709700f54f5000ebff3a006b
:102190004f7597008a02fb00efad97008b8f5200be
:1021a00002003d00cb779f00040037006fa8970026
:1021b000850f500001003d00e5af9f00cfa89700bc
:1021c000e08f50000400320063026700020032001a
:1021d0008100e900c1af9f000400240004026700f1
:1021e000090032004fa99700efa99700830f510013
:1021f0000300340003015100c2af9f00020037000a
:102200000002eb00c4af9f004f7397008602fb00f3
:102210008003eb00a7af9f004fac9700850f5400e1
:102220000200340085025400a5af9f0064026700dd
:102230004c003200e202670061036700e08f520049
:102240001b003200cfb49700390290000404b200a2
:102250000900320099037800b5c2b300e00f5300c3
:102260000100320085c2e800854b78004fb5970029
:10227000070de8000a003700d5022000e00f5300e8
:1022800001003a008582e900cfb097000500780090
:102290004102070000027800e10f420018003200fe
:1022a000bfb597008b05e800bbb79f00140037004f
:1022b000e00f5300120032004fb097003002900040
:1022c0000404b200050032009002780003c2b3009b
:1022d000834a78000508e80006003700cfb0970071
:1022e000000220002c02070000027800e10f4200eb
:1022f00003003200bfb097008100e800b1b79f0033
:102300002fa99700e00f51001101320008c3b3005c
:10231000820678004fb697003c0090000004b2009f
:10232000040032001c00780008487800000ee80025
:10233000050037008c00780000032000160207001b
:10234000e10f400003003200bfb197008301e800b5
:10235000b3b79f008d06e900efff3a00adaf9f00d5
:10236000fb0037002faa9700e00f52001700320041
:102370006802670015003a0008c2b300afae9700cc
:102380004fb697003c0090000004b20004003200f9
:102390001c00780008487800000ee80005003700af
:1023a0008c00780000022000fb010700e10f4000d4
:1023b00003003200bfb297008502e800b5b79f0066
:1023c0008d06e900efff3a00adaf9f00e202670023
:1023d00061036700e08f52001c003200cfb397000a
:1023e000370290000404b2000a00320007047800ab
:1023f00098037800b5c2b300e00f5300010032002b
:1024000085c2e800854b7800cfb49700870ce800c0
:102410000a003700d5022000e00f530001003a0007
:102420008582e900cfb0970005007800da01070047
:1024300000027800e10f4200c50032003fb597006e
:102440000a05e800bab79f00c1003700e00f53004b
:10245000bf003200cfb597003b0290000404b200e9
:10246000050032009b02780003c2b300834a780063
:10247000850de80006003700cfb09700000220006d
:10248000c501070000027800e10f4200b0003200f1
:102490003fb097000000e800b0b79f00ac003700e5
:1024a0000e07e90000042000bfa89700808f5000ad
:1024b0008200320003003c00e08f50000800320030
:1024c0008e003700000820003fa99700800f5100c0
:1024d00065003200000c2000800f510087003a0098
:1024e0004370dd00cfa99700e08f51002a003d0026
:1024f000e4872000000042003004be002005be003a
:10250000e8af9f00f9af9f008ab79f009bb79f007d
:102510000802be000a03be005fb09700efb097004c
:102520007fb197008fb997004efb0700c0779f00df
:102530000004fb00cfc4de00090578008a0578009e
:102540006faa9700ffaa97000fb397009fb3970059
:102550000800be000a01be00c2fb07000203be0065
:102560000002be005fb09700efb097007fb1970008
:102570008fb997000400500085805800060159006b
:1025800087815900d0b79f00e1b79f00f2b79f0045
:1025900083bf9f0030003700df989700e08f500026
:1025a0001f0032005fb69700efb69700e287200069
:1025b000000041003004be002005be000801be003e
:1025c0000c00be00d0fb0700c0779f000000fb009e
:1025d000cf80de000801be00dbfb070000025600d2
:1025e00081825e00a4a79f00b5a79f008002eb0038
:1025f000c5a79f000003eb00d6a79f002fa497005c
:10260000bfa497004fa59700dfa59700d8b79f00fc
:10261000e9b79f00fab79f008bbf9f000e003700fd
:10262000e9872000690178005fb59700811f780075
:10263000110009000285d800cf007800a200200018
:10264000811f7800110009000280d8000100780085
:10265000cf007800c0779f00cf7597000b43b00084
:10266000cb779f0025003700e49120004f9897001a
:10267000e00f500001003a00f49220004270dd00ab
:102680005fb49700efb497007fb597008fbd9700b8
:10269000800278008502e900050033008b05d10037
:1026a0000a85d3008984d3000884d300f9ff37005a
:1026b0006f006400644078000f0037006370b90059
:1026c0005fb49700efb497007fb597008fbd970078
:1026d000000278000402e900050033008b05d100f8
:1026e0000a85d3008984d3000884d300f9ff37001a
:1026f000674064000043b000c0779f00cfb29700ee
:10270000350090000004b200070032001501780087
:102710004f70970000497800820ae800e04f5000af
:1027200007003a00120037004f7397000600fb00c5
:10273000cfb0970018010700e10f40000c003200f5
:10274000bfb397008703e800b7b79f0008003700c2
:1027500070046700d89f9f008e0478000902b200c1
:10276000c99f9f000e057800caaf9f006faf97000a
:10277000e00f57004aff3a004faf9700680167002b
:1027800018003200afad9700e08f550015003400ff
:1027900008c2b3008b0678003fb797004fb697008a
:1027a0003c0090000004b200040032001c007800dd
:1027b00008487800000ee800050037008c0078001b
:1027c00000022000f4000700e10f40000100320089
:1027d0000e07e8008d06e900f1ff3a000e007800d0
:1027e000b0b79f00dfa8970091427800c5779f009f
:1027f000e0cf52003afc3a003fb097004f07780014
:102800004f06be004f05be004f04be000f04b100ce
:1028100000000600e4874700889fbe008a9fbe0034
:102820008c9fbe008e1f7800e1962000724b8000c6
:10283000e00f51000b003a0064814000724b8800a9
:10284000c24b8800a1009800b14b88002141900044
:102850000204a000a2409800614190000204a00080
:10286000e2409800670440004244de004244dd003c
:10287000b14b80000002eb008e98200089b8200048
:102880008e8454006400440080bf9f00614eb900f4
:10289000010037008b00780021409000610060004b
:1028a000020032000a003700930878009101780096
:1028b0002340900061006000fbff3200088140006f
:1028c000828f510002003900e00f540054003d0097
:1028d00091057800818f5500eeff3e008e8f5500e8
:1028e00003003900e0962000808f5500e9ff390091
:1028f000c04b8000808f50005a003a00e0962000c4
:10290000808f550057003a000402e800e10f5200a2
:10291000e0ff360022002000811f7800110009002e
:102920008204d800cf007800800f540005003600e4
:10293000890f5400030031000885e8000a054500ae
:10294000140037006142b800b2ff2f0003002000de
:102950000c0151008d815900820f5200838f5a0063
:102960000b003d00b2b820000e01510008014100eb
:10297000809fbe00110009000981d8000001780085
:102980004f00be000991b900020578000100370030
:10299000080578000a00780024f70700e10f4000de
:1029a00005003a000fbd97000a0078001ff70700e6
:1029b000e10f40002b003200c14b800080087800fe
:1029c000c14b8000e481400021419000830f500002
:1029d000020032000204a000010037000204a1003e
:1029e000a2409800640555000a0540000a087800d6
:1029f000ca4b8800e1962000010d7800c24b800090
:102a0000a24090000104a00021419800a040900045
:102a10000104a100214098000002eb009dff370057
:102a2000b24b8800828f5100070036001202be00b0
:102a3000d44b8800e54b8800110978000040eb007a
:102a4000b24b800020419800b54b8000850878008b
:102a5000214090000004a000a04098006480400045
:102a6000010037000000eb004f0778004f06be0062
:102a70004f05be004f04be004f00b100000006002d
:102a800064005000b04b8800a04090000104a100f9
:102a90002140980000000600889fbe008a9fbe006b
:102aa0008004780001047800648154009205780065
:102ab00069f99700610161000200320009007800a5
:102ac000efff07000800780052ff070000047800bd
:102ad000e00f54001b003200890f5400190032002f
:102ae00068bd97000805550042d5de0009805500f5
:102af0004280de000a017800800f55000100360098
:102b0000000178004211dd000800be00110007003e
:102b1000890f54000b0031004255dd000a054400c6
:102b2000890f55000700360089045500c2ccde002d
:102b3000c24cdd0089044400d04b8000e14b800092
:102b4000808cbe00080078004f05be004f04be0018
:102b5000000006008001780002003700b1597800bb
:102b6000040178000202e900e00f5100fbff3a0087
:102b700000000600040037001140780092587800e9
:102b800000597800030078008001e900e00f500050
:102b9000f9ff3a0000000600889fbe00010478009b
:102ba000b8009000628160008084eb003c0032003d
:102bb000810178000320b2001801900002003a0061
:102bc000e00f510036003a000190a0003104980057
:102bd00080047800f90fb200e00f510002003a00c3
:102be00028009000000c7800ea8f540006003a009c
:102bf000010078000008b20003003a008800780065
:102c0000d0002000e4ff070018009000d8009000da
:102c1000810f50000b0032000000e8001004980003
:102c20001800780009487800000ce80010c0b300d4
:102c3000e197200080487800ea8f540018003a009d
:102c40000500370088007800094078001700070069
:102c50008004780012003700380090000010b200a5
:102c60000f00320018019000a8009000480090006a
:102c70003ff6070098009000810f500004003200da
:102c8000380090000003b300300498008084eb000b
:102c90000000eb001004980028009000000c780061
:102ca000090078004f04be00000006000200fa0090
:102cb000889fbe00a0ff9f000104780038009000ac
:102cc000800078000104b20033003a00e2006000a6
:102cd00005003a000003b300300498001104980086
:102ce0000080eb002e003700d8049000e08f5400e5
:102cf00006003a0012002000e680570048009000cd
:102d00001bf607001904980023003700a800900064
:102d1000e08f500008003a0011982000210498002c
:102d2000010c780021002000510498001104980043
:102d30000030a0003004980018019000a800900016
:102d4000480090000af60700280090008080eb0001
:102d500011049800aff8970001487800000ce800d3
:102d60002ff89700ea4f50000b003a00380090000f
:102d70000010b2000800320018019000a800900076
:102d800048009000faf507000000eb0010049800de
:102d9000a8009000010c7800aff897000100fb003c
:0c2da0004f04be000080fa000000060096
:020000040000fa
:102dac002d2d000020420000616c00006c20000002
:102dbc00706f000073690000746900006f6e000092
:102dcc003a2000002d2d0000002500003464000086
:102ddc00206400005f6d00006973000073650000e3
:102dec007321000021210000005100004549000022
:0c2dfc003a2000002535000075000000a2
:020000040000fa
:102e08001000fa00889fbe006007980071079800bc
:102e180020438000314380006e019000fe01900045
:102e280022f607002007980031079800c04280006a
:102e3800d14280000001be002e009000be0090002c
:102e48001af60700020020008324240075f6070004
:102e580040079800510798002e009000be0090008f
:102e6800c0428800d14288008295230043cb2300ca
:102e78002e009000be0090006af607000004be0015
:102e8800f226210033c823004e009000de00900097
:102e980064f607000001be000800be0004f6070043
:102ea800008fbe0018c0b30002002000c328240011
:102eb8001e00be008ff60700e00f500001003c0026
:102ec8000044eb00e04f54000400320000002000f2
:102ed800c1282400008fbe000d00370018c0b300c1
:102ee80002002000c3282c001e00be0083f6070045
:102ef800e00f5000010035000044eb00e04f5400a3
:102f08000300320000002000c1282c00008fbe0002
:102f18001e00be004f04be000080fa00000006003c
:102f28001000fa00889fbe0060079800710798009b
:102f380040438000514380006e019000fe019000e4
:102f4800daf507002007980031079800a0428000b2
:102f5800b14280000001be002e009000be0090002b
:102f6800d2f5070002002000832424002df6070074
:102f780040079800510798002e009000be0090006e
:102f8800a0428800b14288008295230043cb2300e9
:102f98002e009000be00900022f607000004be003c
:102fa800f226210033c823004e009000de00900076
:102fb8001cf607000001be000800be00bcf50700b3
:102fc800008fbe0018c0b30002002000c3282400f0
:102fd8001e00be0047f60700e00f500001003c004d
:102fe8000044eb00e04f54000400320000002000d1
:102ff800c1282400008fbe000d00370018c0b300a0
:1030080002002000c3282c001e00be003bf607006b
:10301800e00f5000010035000044eb00e04f540081
:103028000300320000002000c1282c00008fbe00e1
:103038001e00be004f04be000080fa00000006001b
:103048000800fa00889fbe00200798003107980002
:1030580082b7200043e223002e009000be009000bb
:10306800f0f507000004be00604180007141800057
:1030780082b7200043e22300eaf507000001be0002
:103088000800be008af507000004be0080418000e9
:10309800914180006011b800e2f507000001be0010
:1030a8000800be0082f507000004be00a0418000b1
:1030b800b14180006011b800daf507000001be00d8
:1030c8000800be007af507000004be00c041800079
:1030d800d14180006011b800d2f507000001be00a0
:1030e8000800be0072f507000004be00e041800041
:1030f800f14180006011b800caf507000001be0068
:103108000800be006af507000004be000042800007
:103118001142800042a42f00d3f22300c1f507001a
:103128000001be000800be0061f507000004be00f3
:1031380020428000314280006011b800b9f50700d4
:103148000001be000800be0058f507000004be00dc
:1031580040428000514280006011b800b1f507007c
:103168000001be000800be0050f507000004be00c4
:1031780060428000714280006011b800a9f5070024
:103188000001be000800be0048f507000004be00ac
:1031980080428000914280006011b800a1f50700cc
:1031a8000001be000800be0040f50700008fbe0009
:1031b800c0418000d1418000e0418800f141880091
:1031c800a0418000b1418000c0418800d141880001
:1031d8008041800091418000a0418800b141880071
:1031e80060418000714180008041880091418800e1
:1031f8002e009000be009000604188007141880058
:1032080060428000714280008042880091428800bc
:10321800404280005142800060428800714288002c
:10322800204280003142800040428800514288009c
:10323800004280001142800020428800314288000c
:103248001e00be0000428800114288001e00be0019
:103258004f04be000080fa00000006000800fa00d3
:10326800889fbe00200798003107980082b7200089
:1032780043e223002e009000be00900069f507008d
:103288000004be00204080003140800082b720004a
:1032980043e2230063f507000001be000800be00fa
:1032a80003f507000004be00404080005140800044
:1032b8006011b8005bf507000001be000800be0001
:1032c800fbf407000004be006040800071408000ed
:1032d8006011b80053f507000001be000800be00e9
:1032e800f3f407000004be00804080009140800095
:1032f8006011b8004bf507000001be000800be00d1
:10330800ebf407000004be00a0408000b14080003c
:103318006011b80043f507000001be000800be00b8
:10332800e3f407000004be00c0408000d1408000e4
:1033380042a42f00d3f223003af507000001be0093
:103348000800be00daf407000004be00e040800078
:10335800f14080006011b80032f507000001be009e
:103368000800be00d1f407000004be000041800040
:10337800114180006011b8002af507000001be0065
:103388000800be00c9f407000004be002041800008
:10339800314180006011b80022f507000001be002d
:1033a8000800be00c1f407000004be0040418000d0
:1033b800514180006011b8001af507000001be00f5
:1033c8000800be00b9f40700008fbe0080408000ee
:1033d80091408000a0408800b14088006040800093
:1033e8007140800080408800914088004040800003
:1033f8005140800060408800714088002040800073
:103408003140800040408800514088002e009000e4
:10341800be00900020408800314088002041800094
:1034280031418000404188005141880000418000be
:10343800114180002041880031418800e04080002f
:10344800f14080000041880011418800c0408000a0
:10345800d1408000e0408800f14088001e00be0096
:10346800c0408800d14088001e00be004f04be0046
:103478000080fa00000006000800fa00881f7800a3
:103488002047980022079800330798002e409000a4
:103498000080fb00e70f500028003200e80f5000c2
:1034a8004c003a0018c0b3006011b8002e0090001c
:1034b800be0090000ff50700e00f500001003d002e
:1034c8000044eb00e04f54000e00320002002000e0
:1034d800832c24002e009000be00900009f5070000
:1034e80002002800c3422400cef407000200240092
:1034f800034b24006ef4070044f50700000f780022
:103508003400370002002000832c24002e00900095
:10351800be009000fbf4070002002000f33f2400e7
:10352800c0f4070002002400034b240060f40700e5
:1035380036f50700000f78002600370018c0b300e2
:103548006011b8002e009000be009000e9f407005a
:10355800e00f500001003d000044eb00e04f540034
:103568000e00320002002000832c24002e00900060
:10357800be009000e3f4070002002000f34224009c
:10358800a8f4070002002000f34a240048f40700ca
:103598001ef50700000f78000e003700020020001b
:1035a800832c24002e009000be009000d5f4070064
:1035b80002002000a33f24009af407000200200024
:1035c800f34a24003af4070010f50700000f7800ca
:1035d800000000009e0078002e409000d5030700f0
:1035e8004f0478000080fa00000006000000fa008e
:1035f80005e1a9000421a90004c1a900210880004f
:10360800000320000080700020088800401f200070
:10361800100888000000eb000008880021058000e1
:10362800f0ff28008080600000002100008070000a
:10363800200588008460a9009460a80005e1a8001e
:103648000080fa00000006001800fa00889fbe00fb
:103658008a9fbe008c9fbe006000b80030079800ab
:10366800410798000040eb00404798004e4090000a
:10367800304798003e419000224798002e40900025
:103688001047980014040700000021007102200070
:1036980072f3070021010700be0307000040eb009a
:1036a8004c01070080c1b3004a0107000040eb004d
:1036b8002401070090c1b300460107000040eb0059
:1036c80020010700606d2900801f7800c8f70700f7
:1036d8008f87e90040952000ccf70700c3ff07005b
:1036e8000040eb00004f78002000370010028000f7
:1036f8004500de0067406000204f9800900280007f
:1037080060079800ff3ffc0011028000000e2000b7
:1037180000807000100288006e00900090028800ff
:10372800000088006cc8bf00004f7800900280003d
:1037380070079800ff3ffc002e489000674060002b
:103748000080fb00670060004500dd001202800079
:10375800f1f12f00810061000080700010028800e4
:103768007e00900090028800000088001e407800cb
:10377800e04f5000ddff32001e409000e04f500047
:103788004a003a001040800001002000baf4070007
:103798000006be004a4380005b4380000040800072
:1037a80001002000b4f4070028438000394380005a
:1037b8000c03be000a02be000001be000800be00e5
:1037c800040307003e009000ce009000aaf4070012
:1037d800a2702d0033da230012f40700a8f40700c2
:1037e80002002000f33a24000ef40700020024002f
:1037f800e34c2400aef307002043880031438800df
:103808003e009000ce0090009bf40700a2702d00af
:1038180033da230003f407009bf4070002002000ba
:10382800f33a2400fff3070002002c00834a240027
:103838009ff3070040438800514388003e009000f2
:10384800ce00900061004000e080480030079800fa
:1038580041079800004080000100200086f407001e
:10386800f7fd070066fd0700000f9800110f98008c
:1038780010408000010020007ff4070077fe070059
:10388800a7fd0700200f9800310f98000e0990003f
:103898009e09900080c0b300f7fe07002e09900033
:1038a800be09900070c0b300f3fe07002e409000e0
:1038b800e04f500014003a006ec8bf00e04f5000bf
:1038c8001100320080c1b300c20007000040eb00c5
:1038d8009c00070090c1b300be00070000c3b300fe
:1038e800980007006ec8bf000080fb00801f7800aa
:1038f800b06e2900801f78003df70700e487570065
:103908004095200041f707003e409000e04f5000ee
:1039180013003a0080c1b300ae0007000040eb007e
:103928008800070090c1b300aa00070080c3b30055
:1039380084000700f3020700801f7800b06f290099
:10394800801f78002af70700e48757004095200079
:103958002ef707004e4090000040e80040479800ce
:103968001e4090000080fb008000e800200020003e
:1039780000017800110009008200d8008000fd00d5
:10398800104798002e4090000080fb008000e8005f
:103998004001200000017800110009008200d800d1
:1039a8008000fd00204798003e4090000080fb000a
:1039b8008000e8004006200000017800110009009e
:1039c8008200d8008000fd00304798000040eb00de
:1039d8006ce8b70042ff37000400fa00000f7800d7
:1039e800110798001e007800900078001e009000d3
:1039f80010007800008050000080fa0000000600e7
:103a08000e00fa00881f78000040eb00004f780095
:103a18000040eb00004f7800080037001e40780097
:103a28000084fb006503070088004400810047000c
:103a3800e4804000800878001e4fe8001e407800af
:103a4800e44f5000f5ff36006400470003cf210023
:103a5800220020005100200016f707004e009000b9
:103a6800100798001e0090004f0478000080fa00ac
:103a7800000006003600f800809fbe00829fbe004e
:103a8800849fbe00869fbe003400f800000020001e
:103a9800a00188000000fa008460a9006cc8bf007b
:103aa800e14f500003003a006ec8bf000040e80034
:103ab8006ee8b7006dc8bf00e84f500007003a0035
:103ac800cfff07000040880070c0b3002003070044
:103ad80070c0b3006de8b70004003700c8ff0700e6
:103ae8001040880080c0b3006de8b7006dc8bf0003
:103af8001703070010c0b3006ce8b7000080fa0095
:103b08003400f9004f03be004f02be004f01be0053
:103b18004f00be003600f900004006000000fa0021
:103b2800620020000140200000002800acf60700d9
:103b380000802e003100200048f207000080fa00c3
:103b4800000006000200fa00004f7800010037006c
:103b58000000000023c2bf00624060000004e000d3
:103b6800fbff3a001e80fb0020118800010037008f
:103b78000000000023c2bf00614060000004e000b4
:103b8800fbff32000080fa00000006000600fa0081
:103b980010079800414798000040eb00004f78005c
:103ba800070037001e80fb00800078001e00900090
:103bb8000080400010407800e2ff07001e4fe80038
:103bc8004e4090009e4f1000f6ff39000080fa002a
:103bd800000006000200fa00004f7800c0c7b300da
:103be800d8ff07001e407800d6ff07000080fa00c3
:103bf800000006000000fa00c0c7b300d1ff0700ac
:103c08000040eb00cfff07000080fa00000006002c
:103c18000200fa00000f7800c0c7b300c9ff070010
:103c280010c0b300c7ff07001e007800c5ff0700db
:103c38000080fa00000006000200fa00000f780079
:103c4800c0c7b300bfff070020c0b300bdff070017
:103c58001e007800bbff07000080fa000000060085
:103c68000800fa00000f7800110798002207980052
:103c780033079800c0c7b300b2ff070030c0b300d5
:103c8800b0ff07001e007800aeff07001e0090007e
:103c9800acff07002e009000aaff07003e0090002e
:103ca800a8ff07000080fa00000006000000fa00e4
:103cb800c0c7b300a3ff070040c0b300a1ff0700bf
:103cc8000080fa00000006000800fa00000f7800e3
:103cd800110798002207980033079800c0c7b3005f
:103ce80098ff070050c0b30096ff07001e00780039
:103cf80094ff07001e00900092ff07002e0090001e
:103d080090ff07003e0090008eff07000080fa0039
:103d1800000006000000fa00c0c7b30089ff0700d2
:103d280060c0b30087ff07000080fa0000000600ab
:103d38000200fa00000f78001e00e00002003c00bc
:103d480010002000000f7800600020009e0f100077
:103d58000200340060002000000f7800c0c7b300e4
:103d680078ff070070c0b30076ff07001e007800d8
:103d780074ff07000080fa00000006000000fa0047
:103d8800c0c7b3006fff070080c0b3006dff070016
:103d98000080fa00000006000200fa00000f780018
:103da800c0c7b30067ff0700a0c0b30065ff0700e6
:103db8001e00780063ff07000080fa00000006007c
:103dc8000800fa00000f78001107980022079800f1
:103dd80033079800c0c7b3005aff0700b0c0b3004c
:103de80058ff07001e00780056ff07001e009000cd
:103df80054ff07002e00900052ff07003e0090007d
:103e080050ff07000080fa00000006000a00fa00d0
:103e1800000f7800110798002207980033079800d0
:103e280044079800c0c7b30046ff0700c0c0b300ee
:103e380044ff07001e00780042ff07001e009000a4
:103e480040ff07002e0090003eff07003e00900054
:103e58003cff07004e0090003aff07000080fa0080
:103e6800000006000a00fa001007980021079800d1
:103e78003207980043079800c0c7b30031ff070016
:103e8800d0c0b3002fff07001e0090002dff0700d1
:103e98002e0090002bff07003e00900029ff07002e
:103ea8000000eb00000f7800070037001e007800c4
:103eb800800078004e00900000804000104078009c
:103ec80020ff07001e0fe800f00120009e0f1000e1
:103ed800f6ff34000080fa00000006000a00fa002d
:103ee800000f780011079800220798003307980000
:103ef80044079800c0c7b30012ff0700f0c0b30022
:103f080010ff07001e0078000eff07001e0090003b
:103f18000cff07002e0090000aff07003e009000eb
:103f280008ff07004e00900006ff07000080fa0017
:103f3800000006000600fa00000f7800110798003c
:103f480022079800c0c7b300fefe070000c1b300f7
:103f5800fcfe0700000820009e0f1000030034003c
:103f680000c8b300f7fe0700070037001e00e00096
:103f780003003d000040eb00f2fe0700020037009e
:103f88001e007800effe07009e009000000420004d
:103f9800808f50000300340000c4b300e9fe07001e
:103fa800080037001e0090000000e00003003d00fc
:103fb8000040eb00e3fe0700020037001e009000ff
:103fc800e0fe07002e009000e10f500006003200ce
:103fd8002e0090000000e0000300320010c0b30083
:103fe800d8fe0700020037002e009000d5fe07001b
:103ff8000080fa00000006000a00fa00000f7800ae
:10400800110798002207980033079800044f98007a
:10401800c0c7b300cbfe070020c1b300c9fe07002c
:104028001e007800c7fe07001e009000c5fe0700ae
:104038002e009000c3fe07003e009000c1fe07005e
:104048000e489000bffe07000080fa00000006003e
:104058000000fa00c0c7b300bafe070040c1b300b1
:10406800b8fe07000080fa00000006000000fa0011
:10407800c0c7b300b3fe070050c1b300b1fe0700cc
:104088000080fa00000006000e00fa0010079800f1
:1040980021079800320798004307980054079800b2
:1040a80065079800c0c7b300a6fe070060c1b3004b
:1040b800a4fe07001e009000a2fe07002e0090003c
:1040c800a0fe07003e0090009efe07004e009000f4
:1040d8009cfe07005e0090009afe0700ce0090004c
:1040e8005e0090000088b9008200200011000900dd
:1040f8000200d800000f78000000eb0010079800bd
:10410800090037001e009000800078006e009000c3
:1041180000804000104078008afe07001e009000d2
:104128000000e800100798001e0090009e0f500045
:10413800f4ff35000080fa00000006000400fa00d1
:10414800000f780011079800c0c7b3007dfe070074
:1041580080c1b3007bfe07001e00780079fe0700cf
:10416800c0c7b30077fe070090c1b30075fe070013
:104178001e00900073fe07000080fa000000060091
:104188000400fa00100798001e009000e80f500085
:104198000300340080002000100798000c0037004e
:1041a8001e0090000000e00003003c00100020000a
:1041b80010079800060037001e0090004300dd003d
:1041c800680f50009e00780010002000dbff0700f9
:0841d8000080fa00000006005f
:020000040000fa
:1041e0005c08000014000000020000005401cc0034
:1041f0000bc60100610a000040ce440000c0c100af
:104200004400080000000000000800005c000000fe
:1042100000000000700800000c0000000200000018
:10422000000000000000000000000000000000008e
:104230007c08000002000000000000007e09000071
:1042400006000000000000004809000026000000f1
:10425000020000007f090000007f09000900000043
:104260000002000081090000008109000e02010027
:104270000000000000000000000000000602020034
:1042800000000000480900001e0900002a0000008c
:104290000200000030313200333435003637380048
:1042a000394142004344450046003000313233007a
:1042b0003435360037383900616263006465660062
:1042c00000286e00756c6c00290000007e0800005c
:1042d000a00000000200000001000000000000003b
:1042e00000000a0000000000000000000064000060
:1042f0000000000000000000e803000000000000d3
:1043000000001000270000000000000000a0860050
:10431000010000000000000040420f00000000000b
:104320000000800096980000000000000000e100fe
:10433000f50500000000000000ca9a003b000000e4
:1043400000000000e40b5400020000000000e80040
:1043500076481700000000000010a500d4e8000017
:1043600000000000a0724e0018090000000040008c
:104370007a10f3005a0000000080c600a47e8d0071
:104380000300000000c16f00f2862300000000005f
:104390008a5d78004563010000006400a7b3b600a1
:1043a000e00d000000e889000423c7008a00000037
:1043b0006e090000100000000000000084090000e9
:1043c0000200000002000000010000008609000059
:0c43d000020000000000000000000000df
:020000040000fa
:1043dc001800fa00889fbe0040079800510798000b
:1043ec006207980073079800040f9800150f980047
:1043fc00260f9800370f98006e019000fe01900078
:10440c004e009000de009000a7f007000001be00f7
:10441c0003f107000004be002e099000be099000b5
:10442c000e0890009e0890009ff007000001be004f
:10443c00fbf007000001be000800be009bf0070067
:10444c00a2702d0033c22300f5f00700008fbe00d0
:10445c00c0438000cf80de008cf107000001be005d
:10446c00eff007000004be00d0438000cf80de00d8
:10447c0086f107000001be00e9f007000001be0054
:10448c000800be0089f00700a2702d0033c2230083
:10449c00e3f0070020079800310798008043800064
:1044ac0091438000a2702d0033ca23007ff00700d7
:1044bc0080438800914388002e019000be0190003b
:1044cc001e00be0079f00700a2702d0033ca230035
:1044dc00d3f007000002be00a0438000b14380006f
:1044ec000001be000400be0070f00700a04388006d
:1044fc00b14388004f04be000080fa0000000600a3
:10450c000000fa00a4438000b54380008043800083
:10451c00914380000001be000400be00f8f00700cb
:10452c0039f10700000078000080fa000000060056
:10453c000400fa00004f7800110798009e407800a4
:10454c000180fb00e70f500007003200e80f50001d
:10455c000a003a009e00900040a22f00008040000c
:10456c00c0438800050037009e00900040a22f0039
:10457c0000804000d0438800000000009e009000a6
:10458c001e407800280007000080fa00000006009a
:10459c000000fa000000eb00800888000000eb002f
:1045ac003008880084e0a90094e0a900810880000c
:1045bc00f0fc2f0080806000000220000080700062
:1045cc008008880000fa200060088800d2c2a90088
:1045dc00c0122000300d8800c0122000200d880071
:1045ec0060002000400d8800d2e2a900c01220001b
:1045fc00600d8800c0122000500d88006000200063
:10460c00700d880011e1a800a15a200080c0b300f1
:10461c0005000700a15a200070c0b300020007007b
:10462c000080fa00000006000600fa0020479800ff
:10463c0021079800ae00900040832000808f50002e
:10464c000300360040832000200798000600370046
:10465c00ae00900030382000808f500002003e00e9
:10466c00403820002007980001e224002e00900022
:10467c000080500001002000fef00700d2cc2c007e
:10468c00c314240066f00700020020000328240055
:10469c009bf00700dcf00700000f78002e40900024
:1046ac000080fb00e70f500005003200e80f5000bf
:1046bc0006003a001e007800500d880003003700f9
:1046cc001e007800200d8800000000000080fa0019
:1046dc00000006000000fa0021e3a900c722a80090
:1046ec00c7e2a800f0df2700601988002143a8006a
:1046fc0001198000f0cf2f000080600000198800a5
:10470c0001198000000e2000008070000019880044
:10471c000000eb001019880025e3a9002119800086
:10472c0000f02100008070002019880020c0b30028
:10473c0024e3b70021e3a800d822a900d842a9009d
:10474c00d862a9000080fa00000006000200fa00fe
:10475c00004f78001e407800e84f500009003a00e6
:10476c004119800000fe2f0000806000f000b300b3
:10477c0040198800dc22a900dc42a800dc62a800f9
:10478c000b0037001e407800e74f500008003a003d
:10479c004119800000fe2f00008060009000b300e3
:1047ac0040198800dc22a800dc42a900dc62a900c8
:1047bc000080fa00000006000000fa002023a80088
:1047cc00000000000019800061006000e00f500044
:1047dc00fcff32002003a900001880000080fa00c2
:0447ec0000000600c3
:020000040000fa
:0200000401f009
:04000800ffff0000f6
:020000040000fa
:0200000401f009
:04000c00fbff0000f6
:020000040000fa
:0200000401f009
:04001000fdff0000f0
:020000040000fa
:0200000401f009
:040014007fff00006a
:00000001FF
