:020000040000fa
:080000000002040000000000f2
:020000040000fa
:10000800be040000be040000be040000be040000e0
:10001800be040000be040000be040000be040000d0
:10002800be040000be040000be0400000e03000071
:10003800be040000be040000be040000b0020000c0
:10004800be040000be040000be040000be040000a0
:10005800be040000be040000be040000be04000090
:10006800be040000be040000be040000be04000080
:1000780042030000be040000be040000be040000ed
:10008800be040000be040000be040000be04000060
:10009800be040000be040000be040000be04000050
:1000a800be040000be040000be040000be04000040
:1000b800be040000be040000be040000be04000030
:1000c800be040000be040000be040000be04000020
:1000d800be040000be040000be040000be04000010
:1000e800be040000be040000be040000be04000000
:1000f800be040000be040000be040000be040000f0
:10010800be040000be040000be040000be040000df
:10011800be040000be040000be040000be040000cf
:10012800be040000be040000be040000be040000bf
:10013800be040000be040000be040000be040000af
:10014800be040000be040000be040000be0400009f
:10015800be040000be040000be040000be0400008f
:10016800be040000be040000be040000be0400007f
:10017800be040000be040000be040000be0400006f
:10018800be040000be040000be040000be0400005f
:10019800be040000be040000be040000be0400004f
:1001a800be040000be040000be040000be0400003f
:1001b800be040000be040000be040000be0400002f
:1001c800be040000be040000be040000be0400001f
:1001d800be040000be040000be040000be0400000f
:1001e800be040000be040000be040000be040000ff
:0801f800be040000be0400007b
:020000040000fa
:10020800be040000be040000be040000be040000de
:10021800be040000be040000be040000be040000ce
:10022800be040000be040000be0400000e0300006f
:10023800be040000be040000be040000b0020000be
:10024800be040000be040000be040000be0400009e
:10025800be040000be040000be040000be0400008e
:10026800be040000be040000be040000be0400007e
:1002780042030000be040000be040000be040000eb
:10028800be040000be040000be040000be0400005e
:10029800be040000be040000be040000be0400004e
:1002a800be040000be040000be040000be0400003e
:1002b800be040000be040000be040000be0400002e
:1002c800be040000be040000be040000be0400001e
:1002d800be040000be040000be040000be0400000e
:1002e800be040000be040000be040000be040000fe
:1002f800be040000be040000be040000be040000ee
:10030800be040000be040000be040000be040000dd
:10031800be040000be040000be040000be040000cd
:10032800be040000be040000be040000be040000bd
:10033800be040000be040000be040000be040000ad
:10034800be040000be040000be040000be0400009d
:10035800be040000be040000be040000be0400008d
:10036800be040000be040000be040000be0400007d
:10037800be040000be040000be040000be0400006d
:10038800be040000be040000be040000be0400005d
:10039800be040000be040000be040000be0400004d
:1003a800be040000be040000be040000be0400003d
:1003b800be040000be040000be040000be0400002d
:1003c800be040000be040000be040000be0400001d
:1003d800be040000be040000be040000be0400000d
:1003e800be040000be040000be040000be040000fd
:0803f800be040000be04000079
:020000040000fa
:10040000efe520000eff27000e018800000000002d
:1004100000012000200288000c00070060d72100a6
:10042000010020001f000700000020000000e00085
:10043000020032000000020000000000620302001f
:10044000000000000040da000000fe004440a90067
:10045000a00220000000e0000300320000002000a5
:10046000a00188004440a80000000600f03fb10051
:100470000180b10006003500ee0309000000000015
:10048000403fb1000180b100fbff3d001000b00013
:10049000203fb0000200350000800900000000008d
:1004a0000000060091018800800078000000eb0049
:1004b00015003700e280400032a0b4009101ba007c
:1004c000e280400032a0b4009102ba00e280400015
:1004d00032a0b4000002eb00472bde00f507b200ab
:1004e000602ce10004003a000059eb008301e900b0
:1004f000fdff3e00040037006128e10001003200ea
:100500000082eb00040007001101ba000200e000c5
:10051000e8ff3a00000006003159ba008301e90003
:100520000c0032002159ba008301e90008003200b2
:100530000400e00003003a00e280400032a0b40072
:10054000f5ff370011d9ba008301e900faff3a003c
:100550008100e800e180400032a0b4000000060005
:10056000849fbe00861f78003400f800040020003d
:10057000a40188000000fa00141680004422de0066
:10058000614262000404a200614262000482fb0036
:10059000610262004422dd0016168000f5fe2f0085
:1005a00085026300048272001416880000000000b7
:1005b000244080000482e800244088002540800018
:1005c000743e2000848f52000e0036000002eb00c3
:1005d00024408800144080000402e8001440880091
:1005e00015408000b4032000848f520005003600bf
:1005f0000002eb0014408800044080000402e80080
:100600000440880084e0a9000080fa003400f9006a
:100610004f0378004f02be0000400600849fbe00da
:10062000861f78003400f80004002000a401880030
:100630000000fa00141680004522de0061426200cc
:100640000404a200614262000482fb0061026200b5
:100650004522dd0016168000f5fd2f00850263009f
:100660000482720014168800000000008460a90053
:100670000080fa003400f9004f0378004f02be00fa
:1006800000400600841f78003400f80004002000b9
:10069000a40188000000fa000002eb00244088005a
:1006a0000002eb00144088000002eb0004408800c8
:1006b0008680a9000080fa003400f9004f0278001b
:1006c000004006000800fa0014002000e4528800f0
:1006d000570b07000040eb00830b0700c142a90045
:1006e00000000000c082a90000000000c0a2a90014
:1006f000000000000002eb00040f78002a83a8002d
:10070000d902a8008220a800740580000400a0007f
:100710000410a1000420a100740588008680a900af
:100720009680a80011e1a9001021a90010c1a9001c
:100730000002eb0034088800840880000440a00018
:100740000450a00084088800440620006408880043
:100750003405800004c0a00004d0a10004e0a10082
:100760003405880084e0a90094e0a80011e1a80005
:1007700024742000144278000414a0000483fb00b9
:10078000640420007505200027742000844b780045
:10079000854b7800864b780005e1a9000421a8006c
:1007a0000441a900240880000440a1000450a100d5
:1007b000240888000002eb0004088800f4ff2700ea
:1007c000140888002405800004c0a10004d0a00003
:1007d00004e0a100240588008460a9009460a800ba
:1007e00005e1a80013e1a9001221a90012c1a90086
:1007f0000002eb0054088800940880000440a10027
:100800000450a100940888000082eb00740888005e
:1008100013e1a8000100370000000000141680005a
:100820004a22de00614262000404a20061426200ca
:100830000482fb00610262004a22dd00161680007d
:10084000f5bf2f0085026300048272001416880031
:10085000000000001e0fe80004ee22009e02780057
:10086000848f5200ecff3a000002eb00040f780086
:1008700080c1b3001c0b07000040eb00f60a070024
:1008800090c1b300180b07000040eb00f20a07000c
:10089000264080001540800004408000861f7800bc
:1008a000851f7800841f7800e49e2900841f78004b
:1008b0000b050700e8875700c0a320000f050700bd
:1008c00050088000100798000002eb0054088800d0
:1008d0001e029000050020000400be005b0007001f
:1008e0000002be0002002000a34f24000400be004e
:1008f000580007000002be000200200083642400ac
:100900000400be00530007000002be002407980048
:10091000350798009e029000047d20001100090018
:100920008482d800000278001407980080c1b300c8
:10093000ed0a07000040eb00c70a070090c1b300b2
:10094000e90a070080c0b300c30a07002e02900026
:10095000be029000849fbe001e029000841f78009b
:1009600044a02900841f7800dd040700e8875700b1
:10097000c0a32000e1040700a8ff37000040da0010
:100980000000fe0000c0da00000006000a00fa00c5
:10099000e20f500022003e00e4528000e10f5200be
:1009a0000600320087232000462320002423200055
:1009b00005232000e08f530004003a008722200026
:1009c00046222000242220000522200000002800ca
:1009d0001500600003003a00800b78000700280033
:1009e000958a7300054020009482620001003a005d
:1009f00014a0a0008202780006003700940378005b
:100a00000710b200fdff3200b103fb00070b7800b6
:100a10008502e900e08f5200f8ff3a000800370035
:100a200034002000b4bf9f00c0bf9f00d1bf9f0013
:100a3000e2bf9f006a805700d2ff07006fb997009e
:100a4000020078000080fa00000006006011b80083
:100a500042003700889fbe008a9fbe008c1f78002e
:100a60006d0007007400330003866c006450e100e1
:100a70002e0032006420e100330032006150e100ba
:100a80002f0032006120e1003100320085855500e1
:100a9000eb07b00009002000080420000500370023
:100aa0000804440089844c000a0031000603430016
:100ab00087834b000001530081815b00f8ff330006
:100ac0000203be000800a0000804440089844c0012
:100ad000f6ff3900c639dd008301730001003200e2
:100ae000130020008904d1000884d3000998a300d2
:100af000050032000800a7000300a0008904d1000f
:100b00000884d3008b05e8008904d1000884d30051
:100b10000001eb000281d2005700070001f0a100a4
:100b20000cf0a70001f0a0004c0037006420e100a9
:100b30004e0032000801be000200be00f7ff370081
:100b40006120e100490032006000b800f3ff370087
:100b50000000200001f82700f0ff3700889fbe004a
:100b60008a9fbe000082700004027100048271003e
:100b7000260032000004be000200be006011b80072
:100b80006b092000950220000182cf000a00390085
:100b90000541b1000082cf00070039000541b100d6
:100ba0000982cf00040039000541b1000882cf005e
:100bb000010039000541b100054252001200320027
:100bc0000a003b0082817100610164008100d10054
:100bd0000080d3008984d3000884d3008b05e8000b
:100be0000442e800f7ff3a00070037000804440019
:100bf00089844c0000004800818048008b05e90092
:100c00000442e900f9ff3a001b0007004f05be004f
:100c10004f04be00000006000004be003c000700b8
:100c20000003be000405be000200be00380007003d
:100c3000844f7500000006000200be006450e10011
:100c4000050036006420e100020036000968a300b8
:100c500001003a000800be000160a0004f067800c5
:100c60004f05be004f04be0000000600f0ff2f003d
:100c7000f1ff2700f9ff3700810020006180550057
:100c80000b003d000b00200061fe2f000100e10081
:100c90001d00340082817100610164008904d1006b
:100ca0000884d3000000e800faff3a007100200039
:100cb000610064000300700002006000090032005f
:100cc00061044400e0844c000988a500050032005e
:100cd0008b05e8006808e10002003a008904d100b1
:100ce0000884d300f20f20000258e10005003d0007
:100cf000c75ddd00f907b200898075000800780043
:100d0000000006000bf827008b00780000000500ab
:100d1000c70ade00f107b200f50fb200080032008a
:100d2000e1cf4200020032000170a0002400050063
:100d3000810f700001003200040805004400050026
:100d4000810f700002003a00140005008502e900de
:100d50000000400081c04800fcff3b000170a00083
:100d6000240005002800fa00889fbe008a9fbe006c
:100d70008c9fbe0003866b00200307000028a300a1
:100d800064003a000128a30067003a000008a300ad
:100d900062003a000108a30065003a001e009000be
:100da000be08900081064000ed3fb100f48057007e
:100db000ee019000111ab8008e099000311bb800a6
:100dc0009e099000311cb800511db800f4855700f1
:100dd00046000700fe0190003a0007008b85e800fe
:100de0003e0007008e09900040000700ee019000d1
:100df000340007008b85e800380007008e0990005a
:100e0000400007009e0990001b18b80089044000ac
:100e10000a854800fe019000340007008b85e80039
:100e200038000700ee019000300007008e099000a6
:100e30001b18b800890440000a8548000a98a300de
:100e400008003a000402420085824a0006034b0073
:100e500087834b0008044c0089844c000a054d0030
:100e60008d06e90084827200850273004c3add0031
:100e7000850272000100320015002000443ade00b5
:100e80001400b2004538de00cb45dd000b007000d9
:100e9000c540de00cb4ddd008b8070004549de0093
:100ea000cb55dd000b017100c551de000d0378004c
:100eb000eb02070003f0a1000cf0a70003f0a00074
:100ec000e20237001b18b800850240000683480084
:100ed000e0834b0060044c00070037001b18b8008b
:100ee0000603400087834800faff37001b18b8004c
:100ef0008703400008844800e0844c0060054d00f2
:100f0000000006001b18b80008044000898448004f
:100f1000faff37000108a300c9023a005800be00da
:100f20005801be00e3ff37000008a300c4023a00e6
:100f300009047800f9ff37008103780074ff070087
:100f40000001be006000b8000478a30013003a005e
:100f50006220e10015003e000d0039008301d10040
:100f60000281d3008180d3008301d1000281d300ac
:100f70008180d3008301d1000281d3008180d3001e
:100f80000538b000c42add00f300b200838172008e
:100f900007f0a70003f0a00000000600f3ff270001
:100fa000f2ff2f006110b900fbff370003ff27009d
:100fb000f7ff37008f1fd100d50207008f87e900a8
:100fc0000000e00000000600801feb00d0020700d8
:100fd0008f87e9000000e000000006001400fa001e
:100fe000889fbe008a9fbe008c9fbe000005be0089
:100ff0000206be00680047000c90be000a90be00ca
:10100000ec0207006400e1001a00320016003e0006
:101010006100e1001a0032006e049000fe049000ae
:101020000e0b90009e0b90006011b8009e05900082
:101030000b38b100d501200082817100610164008c
:101040008703d1000683d3008984d3000884d300aa
:101050008502e900f8ff3a0007ff07000df0a7003e
:1010600001f0a00079023700f1ff2700f0ff2f0008
:101070007602370001f8270000002000f7ff370054
:101080006000b800f5ff37001400fa00889fbe002a
:101090008a9fbe008c9fbe00040678000004be003c
:1010a0000205be00680047000a90be000890be001e
:1010b000c00207006200e1000800be000a01be0095
:1010c000040020000b003a001e029000e43fb10033
:1010d0006e009000fe0090000e0990009e099000a6
:1010e000f300b20005fe2300858171000bf0a7001c
:1010f00003f0a000040e780054023700809feb003c
:10110000830207008f87e9000000e000000006006e
:101110002800fa00889fbe008a9fbe008c9fbe00f8
:1011200007067800878669000c003b0003047800fe
:101130008704780008f0a10009f0a100840f500096
:10114000858f5800860f5900890f5c00030033001b
:101150000cf0a20001003a000cf0a10027020700e9
:101160006400e1005f003200780147006408e1009c
:10117000610032006c014700748557003200be00e8
:101180001201be003a04be001a05be001e03900004
:10119000be0a90008503530006003d000004fd00d8
:1011a0008104fd000205fd008305fd008703ea00c0
:1011b000050378000df8a300040032006004140059
:1011c000e0841c0060051d00e0851d006022b80061
:1011d0007d0320000d38e1008006eb000b00390094
:1011e0004433dd00f300b20083017300390037009f
:1011f000848272000d027800e10664008b85d100c4
:101200000a85d3008984d3000884d3008703e900ca
:10121000f7ff3b0008004000898048000a014900b0
:101220008b81490004003b0060001000e080180042
:1012300060011900e08119000358a3000900320081
:101240008d82720084827200610260008301d1008d
:101250000281d3008180d3000080d3000603e80020
:101260001b0037000348a30017003a000600e00007
:10127000170034000603e9000d00a3000000480039
:101280008180480002014900838149000348a3008e
:101290000f003a000600e000090034000603e900f0
:1012a000000040008180480002014900838149001c
:1012b00001003a000003eb000348a300f5ff3200f1
:1012c0006022b800020037008482720061826600ea
:1012d000e301070003f0a1000cf0a70003f0a00059
:1012e000da013700640147006408e10002003a00b7
:1012f0000df8a300d2013a003200be001201be0078
:10130000d20137001400fa00889fbe008a9fbe00f9
:101310008c9fbe000004be000205be0068004700ae
:101320000a90be000890be00220207000070a700cd
:101330000bf0a1000bf8a30020003a009e099000da
:101340000e099000fe0090006e0090009e0290003a
:101350003443200084825200bc0132000a003c0069
:10136000b4fc2f000428e100140034008301d100f4
:101370000281d3008180d3000080d3008502e80081
:10138000faff3a00b1013700b40020000428e10060
:1013900007003c0000004000818048000201490035
:1013a000838149008502e900faff3a00a70137006e
:1013b0000300280002002000010037006011b8007f
:1013c0006000b800a10137002800fa00889fbe0025
:1013d0008a9fbe008c9fbe0003866b0087010700ba
:1013e0006400e100440032006408e1004a00320079
:1013f0006100e100460032006108e100490032006e
:10140000ec0647006000b8003d02be003d03be0090
:10141000f48657006011b8003d04be003d05be00d3
:101420007d0320000b0037000000a0008d06e900be
:10143000130032000402420085824a0006034b007a
:1014400087834b0000004000818048000201490072
:10145000838149000802520089825a000a035b0016
:101460008b835b00f0ff3b000802420089824a0048
:101470000a034b008b834b008d06e900edff3a0019
:101480008482720086827200f707b200878272003f
:1014900001003200150020001e0490003e0b900059
:1014a00006035400e63fb0000368a30007003200c3
:1014b0000000a7000500a0008301d1000281d30035
:1014c0008180d3000080d3000603e8008301d100af
:1014d0000281d3008180d3000080d3000002eb00a2
:1014e0000482d2005e01070003f0a1000cf0a70007
:1014f00003f0a00055013700640247006408e100d2
:101500004f0132003400be003401be00f6ff370048
:101510006108e1004a0132006011b8006000b800c3
:10152000f1ff370003ff270002002000fbff370018
:10153000889fbe0000827000040271000482710066
:101540002400320036432000c50020008383cf00f2
:101550000a0039000541b1008283cf00070039003d
:101560000541b1008183cf00040039000541b1007d
:101570008083cf00010039000541b10085c35300cd
:101580006022b800120032000a003b008482720020
:10159000610260008301d1000281d3008180d30009
:1015a0000080d3000603e8008743e800f7ff3a0015
:1015b0000700370000004000818048000201490018
:1015c000838149000603e9008743e900f9ff3a00f7
:1015d000230107004f04be000000060007f0a20030
:1015e000cbfe3700889fbe008a9fbe003004be003d
:1015f0002005be000404440085844c0006054d000f
:1016000087854d000898be000a90be000440e100a6
:1016100005c8e10006d0e10007d8e1000200310072
:10162000680040001008e8004f05be004f04be00ef
:10163000000006001000fa00889fbe008a9fbe00ce
:101640000605be000404be003002be002003be003a
:10165000c4b79f00d5b79f00e6b79f00f7b79f00bc
:101660000802520089825a000a035b008b835b00e8
:1016700084bf9f0095bf9f00a6bf9f00b7bf9f007c
:101680000498be000698be00110020004fb29700db
:10169000dfb297006fb39700ffb39700b200070067
:1016a000010039008000eb00108810004f05be00db
:1016b0004f04be000080fa00000006001400fa008b
:1016c000889fbe008a9fbe008c9fbe0079000700e5
:1016d0000605be000404be000006eb00ccb79f0068
:1016e000bcb79f00acb79f009cb79f008cb79f0012
:1016f0000d0420004fb39700bfb29700860343004c
:101700002fb29700e00f530004003d009b0007003c
:101710000f004000b3ff07000300370097000700e9
:101720000f004000c3ff0700cfb2970095bf9f0096
:10173000e08f52000900350065000700140020000a
:10174000050020006033b800000072008180720044
:101750000201730083817300560007000c06e80045
:101760008d0f5600e3ff3a001fba9700e00f5200ba
:1017700005003d000802be000a03be0000fe2f0067
:101780000f00400097ff07004faa9700e00f52009c
:1017900008003a000fb497009fb497002fb5970048
:1017a000bfb59700d8b79f00e9b79f00fab79f0071
:1017b0008bbf9f00460007004f06be004f05be00ce
:1017c0004f04be000080fa0000000600881f780069
:1017d00018002000881f7800b8ff07008f87e900f5
:1017e0004f04780000000600801feb00b3ff0700e5
:1017f0008f87e90000000600889fbe008a9fbe0018
:101800004100070007003d004400070018002000c9
:101810004900070008003d002f0007000004eb000e
:10182000050037000004eb004300070002003d0004
:101830002900070018002000e4ff0700e00f540013
:1018400001003200410007004f05be004f04be00fa
:1018500000000600889fbe008a9fbe008c1f780093
:101860002900070005003d002c0007001c00200097
:101870003d00070007003d00050037000006eb00b3
:101880002d00070003003d006044b8006055b8001b
:1018900013000700d4ff0700e00f560001003200dc
:1018a0002a0007004f0678004f05be004f04be0017
:1018b00000000600010007000000060090b79f002e
:1018c000a1b79f00b2b79f00c3b79f0000000600fa
:1018d00008000700000006006044b8006055b8002a
:1018e0000402540085825c0006035d0087835d006e
:1018f000000006001fb09700afb097003fb19700ff
:10190000cfb1970000000600e00f5000e08f5800b4
:10191000e00f5900e08f5900000006006044b80055
:101920006055b8000000540081805c0002015d0039
:1019300083815d0000000600e00f5200e08f5a0036
:10194000e00f5b00e08f5b00000006006022b80043
:101950006033b8000000520081805a0002015b0031
:1019600083815b00000006000820e10009a8e10077
:101970000ab0e1000bb8e100000006004f2bde00ca
:1019800087037300a7b79f004f23de0085824200c4
:101990008502730095b79f00ffaa97004f2bde00ca
:1019a000040242000402730084b79f006faa9700ec
:1019b0004f23de008582420085027300f5af9f0051
:1019c000ccff07004f18de00040242000002720044
:1019d000e4af9f00c7ff070000004000818048007f
:1019e0000201490083814900b4ff07000802be00dc
:1019f0000a03be0000fe2f00000006006804470036
:101a00000294be000094be00fc0447008694be0011
:101a10008494be0009007800660007000800780082
:101a20006400070099007800814f70000b003b00b4
:101a30000800be00860007004f00b1000300370019
:101a4000f3ff2700f2ff2f006110b9004f06be0020
:101a50004f05be004f04be000080fa0000000600e3
:101a60001800200057002000080453000d003d001e
:101a70000600200097fc2f000740e1001e00340004
:101a800084827200610260008301d1000281d30070
:101a90008180d3000080d3000804e800f8ff3a00fa
:101aa0004700200061046000050474000404640021
:101ab0000d00320061004000e080480060014900f4
:101ac000e081490003b8a500070032000603e800e2
:101ad0006538e10004003a008301d1000281d3009f
:101ae0008180d3000080d300f87f20000830e1001f
:101af00003003500080378006000b8006011b800ea
:101b00004433dd00f300b2008301730000000600df
:101b1000889fbe008a9fbe008c9fbe000404be004a
:101b20000605be00809fbe00829fbe0056000700d3
:101b3000040678000800be000a01be00520007003b
:101b4000840678004f03be004f02be008d4f760022
:101b50007fb0970013003300f0ff2f008b8f6b00d6
:101b600006003b000d0666000c00a7000a003700c7
:101b700007f0a600100020000a003700880f52006e
:101b8000898f5a008a0f5b008b8f5b00030039003e
:101b90001000200001003e000000200007f0a70018
:101ba0000000ea004f06be004f05be004f04be0015
:101bb00000000600800078005002be005003be0006
:101bc0004439de00f700b200f37f2000030161001a
:101bd000090032000218e10016003a008501720087
:101be00083017300838173000008200015003a0010
:101bf000400020001300370085017200830173004c
:101c00008381730005003a0004a8be0006a8be0048
:101c1000100020000b0037000201e900040242001e
:101c200085824a0006034b0087834b000748a300c8
:101c3000f9ff32000740a00004a8be0006a8be00bd
:101c4000200020008000980092009800000006000c
:101c5000e48240001078a3000700320064024000d4
:101c60001178a3003400be001401be00040032004d
:101c70000330a700000006003500be001501be00bd
:101c80000330a0000000060005ff27000582610068
:101c9000070032000428e1000100320024000500a2
:101ca0000600070001003a00440005000408050092
:101cb00002000700f9ff3a00140005006f8261007e
:101cc000810270008502710085027200000006002a
:101cd00042118800001188001111880000000600e0
:101ce0000000fa0068815700cfb89700c0a3200019
:101cf000e90007000080fa0000000600881f780055
:101d00000004780038009000000278001420b2002f
:101d1000e10f520005003a000002eb0014049800a5
:101d200028029000040c7800190037008002780027
:101d30002520b2000000eb0024202000848f5200f8
:101d400016003a00a8009000808f50001300320067
:101d500018019000800f51001000320048009000e0
:101d60000afb070018029000840f500003003200a5
:101d7000380290000403b300340498000002eb0022
:101d80001404980028029000040c78003800900099
:101d90000002b200010032000080eb004f04780026
:101da000000006000800fa00889fbe008a9fbe005f
:101db0000084fb00d4c6b300844f500034003600ca
:101dc0004b062000110009000b84d8008105780023
:101dd000720040004300dd00698b20000080440059
:101de0006022b8000600200007fe23005001be005c
:101df0004000be00dbfb07000002be000203be0085
:101e000084bf9f0095bf9f00a6bf9f00b7bf9f00e4
:101e1000aa002000110009008a85d80080057800fa
:101e2000e9854500c35ddd008b8544003b02be00b3
:101e30002b03be000fb897009fb897002fb99700eb
:101e4000bfb99700c7fb07000002be000203be0037
:101e500084bf9f0095bf9f00a6bf9f00b7bf9f0094
:101e6000110009000a84d800010478004344dd0011
:101e7000888444003902be002903be000fb89700d1
:101e80009fb897002fb99700bfb997001d00370082
:101e9000ea4f500013003600aa002000110009008c
:101ea0000a84d80001057800690440004344dd003d
:101eb000698b2000088444006022b80006002000de
:101ec00007fe23003800be002801be00a5fb070066
:101ed0004355dd008a8444003902be002903be0058
:101ee000080037004344dd00648b200008044200f2
:101ef0006022b8000600200007fe23003800be0064
:101f00002801be0097fb07004f05be004f04be002e
:101f10000080fa00000006000800fa00889fbe005a
:101f20008a9fbe00d4c6b300e04f500022003d009f
:101f30000040ea000004fb00844f50000a00340017
:101f400044062000110009000404d800a900200064
:101f5000110009008900d800e9004000c308dd0035
:101f60006a8b200020003700ea4f50000f00340039
:101f7000a4002000110009000404d80069004000fa
:101f80004300dd00648b200000004200430cdd00b4
:101f9000080242005403be004402be005001be00cd
:101fa0004000be006ffb0700370037004344dd00f0
:101fb000648b2000310037000004fb00844f500088
:101fc0002300340044062000110009000404d80056
:101fd000a9002000110009008900d800e900400094
:101fe000c308dd006a802000810045003102be0088
:101ff0002103be008b0920008a8545003b00be00fe
:102000002b01be0057fb07000002be000203be000a
:1020100084bf9f0095bf9f00a6bf9f00b7bf9f00d2
:10202000110009000904d800010478004344dd00d0
:10203000080545003a02be002a03be000fb897000b
:102040009fb897002fb99700bfb99700d5ff370009
:10205000ea4f500007003400a400200011000900de
:102060000404d800690040004300dd0064802000c3
:10207000c5ff37004344dd006480200008044200af
:102080003800be002801be004f05be004f04be0050
:102090000080fa00000006002f04b000889fbe00f8
:1020a0008a9fbe008c9fbe008e1f7800a0af9f004d
:1020b000c1a79f00b2af9f006000b8006011b800d8
:1020c000d0a79f00e1a79f00f2a79f0083af9f00ca
:1020d0008006eb002f043700cfa097008100e800b6
:1020e000c1a79f0054c2b300844f500006003a00bd
:1020f000010378000006eb0000c3b30007c2b30081
:10210000b1c2b300070037000000fb00afa8970082
:102110002c040700e10f40001e0432008d06e80089
:102120001c04370006027800b6427800d2c2b30021
:1021300082cf52000900320005003c0087cf5200d8
:102140000800320081cf52000c003a00070037002f
:1021500080cf520009003a00060037000c30a00082
:10216000f0ff37000c00a000eeff37000c10a000bd
:10217000ecff37000c20a000eaff37006203660086
:10218000010032000c00a10068036600010032006b
:102190000c20a1000503fb000603b100e90f53006a
:1021a0000d003e0084027800070020006a3bb90061
:1021b0003502fb000403b1008603420005027800eb
:1021c0001503fb000603b100e90f5300f7ff3600cb
:1021d00097af9f000a0037000003eb0096af9f0007
:1021e000a6c2b30086cf520005003a00bfab9700ed
:1021f00047007800b7af9f0090af9f000402e8004f
:10220000e5c2b30094cf120017003a000ce0a00022
:10221000e4c25200d4cf12000300320084027800de
:1022200007002000090037003fa99700c20178008d
:10223000b2af9f0083b79f000402e800c6c6b30098
:102240000d0037006a38b9008003430005027800aa
:102250003503fb000603b100e90f5300f9ff360018
:1022600087b79f00f5ff37000cc0a0008002eb008d
:1022700085b79f00f1ff370084037800b7427800ec
:102280000702780086cf52002d003200c7a79f00ba
:10229000c4c6b30084cf520014003c006842520010
:1022a00084cf52002400320009003c006c425200ee
:1022b00084cf52002e0032006b42420084cf520085
:1022c00071003200e0cf5200b70332008e003700b9
:1022d00064c6b30084cf52001f0032006342420044
:1022e00084cf520088003a001300370034c7b3008f
:1022f00084cf52002200320007003c0064425200aa
:1023000084cf5200170032000442e80084cf52000c
:102310007d003a001600370054c7b30084cf520046
:102320007e0032006342420084cf520076003a00c1
:10233000a5779f0010003700a5779f007900370030
:10234000f0036600050120000100320005002800ae
:1023500005067600c8ff3700a5779f000ca0a000f7
:1023600070003700a5779f000c60a0006d0037005b
:10237000a5779f000c50a0000c70a00069003700ea
:10238000a5779f003fab970046027800b6af9f004d
:1023900004047800e00f520001003a0088a22000f7
:1023a000880278000002eb00010037000402e80018
:1023b00065437a00e04f5300fcff3a008404780044
:1023c0008fb39700e08f530003003200898f5300d2
:1023d00001003100870478000007eb001fa8970078
:1023e000890f50000100360009075000680666009a
:1023f00014003a0007003700afa897000002200041
:1024000070030700e10f4000010032008d06e80074
:102410000e07e900e00f5700f7ff3a000087eb00d6
:1024200008003700080278003400fb00040478003c
:10243000afa8970063030700e10f400001003200de
:102440008d06e800090278008404e900e00f5200dc
:10245000f4ff3a00e00f56004e0332000700370049
:10246000afa897000002200056030700e10f4000cc
:10247000010032008d06e8000e07e900e00f57006a
:10248000f7ff3a0043033700bfa8970041027800e6
:10249000b1af9f0004007800cf80de00010178001a
:1024a00082017800c0af9f00d1af9f00e2af9f00d4
:1024b000f3af9f004800de00480add000000720014
:1024c000a0779f00f002660009003200e04f500044
:1024d00007003200e14f400005003200b0779f0056
:1024e0008fda9700c5779f0029002000030037008e
:1024f0000fdb9700b6779f001900200038fb2f00f4
:102500000f044400aeff3700a5779f0028fb2f0083
:102510000f04440019002000a9ff3700a5779f0091
:102520000c0cb3000470200004026600ba013200f3
:10253000040021000402660002003200670020004f
:1025400087b79f0070026600090032003faa97001b
:102550004401be004400be00b4af9f00c0af9f0066
:10256000d1af9f00e2af9f00f3af9f000a0037009a
:10257000bfaa97004500be00b5af9f006efa0700e6
:102580000002be000203be00c4af9f00d5af9f0093
:10259000e6af9f00f7af9f006022b8006033b8003d
:1025a0004fa89700dfa897006fa99700ffa9970091
:1025b00080fa0700e00f50000a003d004fa8970086
:1025c000dfa897006fa99700ffa9970003f0a2006a
:1025d000c0af9f00d1af9f00e2af9f00f3af9f005d
:1025e0003c00b3000002eb00b49f9f006022b800e3
:1025f0006033b8004fa89700dfa897006fa9970035
:10260000ffa9970070fa0700e00f50003500320074
:102610004fa89700dfa897006fa99700ffa9970020
:102620006efa070062fb2f000f01410096fa0700c7
:102630003f9897000000e9006300b900a400200063
:10264000110009000400d800b09f9f00e00f500067
:1026500002003d000000e900b09f9f003f9c9700f2
:102660000840ea002cfe07004faa9700dfaa970057
:102670006fab9700ffab9700baf907000002be00ee
:102680000203be00d4a79f00e5a79f00f6a79f0006
:1026900087af9f006022b8000600200007ff2300dc
:1026a00044fa0700e00f500002003d000804e90072
:1026b0000b0037006022b80006002000470224000b
:1026c0005fa09700efa097007fa197008fa99700c8
:1026d0008afa0700e00f5000020035000804e80005
:1026e000b89f9f008fb29700f88f52000f003c00f8
:1026f00005407800abfd07000002be000203be00eb
:102700004fa89700dfa897006fa99700ffa997002f
:102710007ffa07000002be000203be00c4af9f00a4
:10272000d5af9f00e6af9f00f7af9f003f9c97009b
:10273000e90f540015003c006022b8006033b80077
:102740004fa89700dfa897006fa99700ffa99700ef
:102750001dfa0700e00f5000320032004fa897002a
:10276000dfa897006fa99700ffa99700e5fa070077
:10277000e00f5000e08f5800e00f5900e08f590043
:1027800028003a00e10f5400260034000400200025
:1027900005002e00b6e02200170124005fa097007c
:1027a000efa097007fa197008fa9970001fa07007b
:1027b000e00f500002003d00730454000100370098
:1027c00072045400b89f9f006f709700d2fd0700fd
:1027d0000002be000203be00d4a79f00e5a79f0031
:1027e000f6a79f0087af9f004fa89700dfa897002c
:1027f0006fa99700ffa99700f3fa0700c1fa070035
:102800000205be000004be006000b8006011b80000
:10281000c0af9f00d1af9f00e2af9f00f3af9f001a
:10282000170037004fa89700dfa897006fa99700ff
:10283000ffa99700b3fa07000205be000004be001e
:102840003bfb07000002be000203be004fa897003a
:10285000dfa897006fa99700ffa997005ffb07000b
:102860000002be000203be00c4af9f00d5af9f00b0
:10287000e6af9f00f7af9f000002eb00b49f9f0000
:10288000e196200010c0b300080037003102be00fe
:102890003103be000440e10005c8e10006d0e100bc
:1028a00007d8e100030039000040e800f44f500071
:1028b000f6ff3a00a0779f003f9a97009faa9700e3
:1028c000048252000fb39700060252000000fb0082
:1028d00000075200e00f5300010032000e07e9002c
:1028e00063026600010032000e07e9006402660020
:1028f0001d003200e202660061026600e08f5200b5
:1029000006003200b0022000e00f52000100320049
:102910000080e800afa8970004003700e00f5200e5
:102920000e003200afa89700000220002502070029
:10293000e10f4000090032008d06e8000700370073
:10294000afa89700000320001e020700e10f40001f
:10295000010032008d06e8000e07e900e00f570085
:10296000f7ff3c0030003700680266000a003a00ba
:1029700007003700afa897000002200011020700ef
:10298000e10f4000010032008d06e8000e07e9006b
:10299000e00f5700f7ff3c00e202660061026600ac
:1029a000e08f520006003200b0022000e00f52001b
:1029b000010032000080e800afa897001600370041
:1029c000e00f520018003200afa89700000220006c
:1029d000110037008502fb00c32add006796200046
:1029e000858243005503be004502be000800be00bc
:1029f0000a01be0075fb0700a400200005002000ae
:102a00006033b80078fb0700040320000002420096
:102a1000afa8970004007800ea010700e10f40002a
:102a2000010032008d06e8002f7297008442e90011
:102a3000a5779f00e04f5200e6ff3a0008003700fc
:102a4000afa8970000032000de010700e10f40005f
:102a5000010032008d06e8000804e900b89f9f00dd
:102a60003f9c9700e00f5400f5ff3c000fb097002b
:102a7000f20f50000300340024c1b300a4779f007c
:102a8000020037008fe09700a1779f002f72970018
:102a90008402fb000fb197008502510095af9f00a3
:102aa000e04f520006003200afa89700e00220007d
:102ab000c4010700e10f4000010032008d06e8006c
:102ac0002f70970014fd07000002be000203be0035
:102ad0004fa89700dfa897006fa99700ffa997005c
:102ae000a0f8070007fa0700220037008502fb0064
:102af000c32add0063962000858241003500be00b8
:102b00002501be0080b79f0091b79f00a2b79f002c
:102b1000b3b79f000203be000002be000800be0063
:102b20000a01be0029fb0700a400200005002000c8
:102b30006033b8002cfb07000403200000024200b1
:102b4000afa89700040078009e010700e10f400045
:102b5000010032008d06e8000fb297009fb2970087
:102b60002fb39700bfb397000800be000a01be0054
:102b70001dfb07000205be000004be002f72970077
:102b80008442e900a5779f00e04f5200d7ff3a004a
:102b90000203be000002be009fac97000f0037008a
:102ba000afa8970000032000c4b79f00d5b79f00cf
:102bb000e6b79f00f7b79f00820107004fb297006a
:102bc000dfb297006fb39700ffb39700e10f4000ab
:102bd000010032008d06e8008904e900e08f54000e
:102be000efff3a00680666006a013200e00f570006
:102bf00068013400afa897000002200071010700af
:102c0000e10f4000010032008d06e8000e07e900e8
:102c1000f8ff3a005f0137008c027800050cb20023
:102c20002b003a00e00f560005003d00bfa89700ba
:102c30004105be004104be00b1af9f001700370040
:102c4000700266000f0032003faa97004401be00e8
:102c5000b4af9f0082a79f0093a79f0084027800d3
:102c6000150290004fa2de00a4a79f00b4a79f000a
:102c70000fa497009fa497002fa59700bfa59700ca
:102c800006003700bfab970047047800b7af9f003e
:102c9000cfc4de00090578008a057800e00f5400f3
:102ca000e08f5c00e00f5d00e08f5d0023003d00e1
:102cb0003c00b3006022b8006033b8000804520042
:102cc00089845a000a055b008b855b001b00370076
:102cd000e00f560005003d003fa897004005be00ec
:102ce0004004be00b0af9f0014003700f002660041
:102cf0000c003200bfaa97004501be00b5af9f008f
:102d0000c29f9f00d39f9f00e49f9f00f49f9f005e
:102d10004f9c9700df9c97006f9d9700ff9d970049
:102d200006003700bfab970047047800b7af9f009d
:102d3000090020000a0020000b0020000fb09700bf
:102d4000e00f500009003a001100200081b79f00f9
:102d5000e00f5400e08f5c00e00f5d00e08f5d004d
:102d6000020032000001eb0082b79f008c01780066
:102d7000030cb200c3af9f0004042000848f5100f5
:102d80002c00320003003c00e08f510008003200ac
:102d90003c00370004082000cfaa9700848f52001f
:102da00010003200040c2000848f520035003a00dd
:102db000e596200014c0b3003500be003501be000a
:102dc0000040e10001c8e10002d0e10003d8e100c9
:102dd0002b0039000442e800f44f5200f6ff3a009d
:102de0002700370014c0b3000001200001002000bc
:102df0006011b8000040e10001c8e10002d0e1002c
:102e000003d8e1001e003900460020000000d00079
:102e10008180d2000281d2008381d2000603e900c2
:102e2000faff3a000442e800f04f5200f1ff3a0086
:102e30001300370014c0b300800020000100200000
:102e40006011b8000040e10001c8e10002d0e100db
:102e500003d8e1000a003900370020000000d0004c
:102e60008180d2000281d2008381d2008703e900f1
:102e7000faff3a000442e800f54f5200f1ff3a0031
:102e8000a4779f002f7097000002fb008fb097007f
:102e9000810f520002003d00a1779f00040037001f
:102ea0000fb19700840f510001003d0084b79f00cf
:102eb0009fa99700e08f5100040032006302660072
:102ec000020032008301e90093af9f000400240058
:102ed00004026600090032001faa97008fb2970013
:102ee000850f5200030034000502520094af9f008a
:102ef000020037000003eb0096af9f00af7397000e
:102f00000702fb000007eb001fa89700840f50008a
:102f10000100340004075000640266001c00320007
:102f2000e202660061026600e08f52000600320095
:102f3000b0022000e00f5200010032000080e800e3
:102f4000afa8970004003700e00f520006003200df
:102f5000afa89700000220009a000700e10f400090
:102f6000010032008d06e800e00f570075003200c6
:102f7000afa897000003200092000700e10f400077
:102f8000010032008d06e8000e07e900f6ff370069
:102f9000e00f57000a0032006802660008003a009d
:102fa000afa897000002200086000700e10f400054
:102fb000010032008d06e8000e07e900f8ff3a0034
:102fc000e202660061026600e08f520006003200f5
:102fd000b0022000e00f5200010032000080e80043
:102fe000afa8970004003700e00f520055003200f0
:102ff000afa897000002200072000700e10f400018
:10300000500032008d06e8004e0037008fb0970068
:103010008100e90081b79f004fa9970003042000b9
:10302000830f51003000320003003c00e00f5100dc
:10303000080032003b00370004082000cfaa9700a8
:10304000848f520014003200040c2000848f520040
:1030500034003a000fb397004332dd00679620003a
:10306000070242005403be004402be000800be0036
:103070000a01be00d5f90700a400200005002000c9
:103080006033b800d8f907000cc3b3000c46400009
:10309000ac779f002300370074a120001fa8970081
:1030a000e00f50000100320064a020008fb09700b4
:1030b000c20add000800be000a01be008502e90068
:1030c000050033008301d1000281d3008180d30049
:1030d0000080d300f9ff37006f0060006440780083
:1030e000a0779f000f0037000fb197006312b9005f
:1030f0000800be000a01be00040678000c06e900c4
:10310000050033008301d1000281d3008180d30008
:103110000080d300f9ff3700674260000443b0002d
:10312000a4779f00af7097000100fb00afa8970045
:1031300024000700e10f4000060032008d06e80081
:10314000040037000c0178000202b20092af9f0029
:103150008cbf9f008fb19700e08f5100abff3a000a
:103160000fbe9700680666000a003200e00f5700a5
:1031700008003400afa897000002200011000700eb
:10318000e10f4000010032008d06e8000e07e90063
:10319000f8ff3a004fa2970014407800a0779f00f4
:1031a000e04f5000ccfb3a000d0078004f0778004c
:1031b0004f06be004f05be004f04be002f04b100f5
:1031c00000000600889fbe000104780038029000cd
:1031d000e20262008084eb003b00320004037800ce
:1031e0000620b2009802900002003a00e08f5200e0
:1031f00035003a000490a000340498008004780060
:10320000f90fb200e08f520002003a00a8029000cd
:10321000050c7800ea8f540005003a000408b2005b
:1032200003003a0088007800d0002000e5ff070086
:1032300018029000d8029000850f52000b00320057
:103240000402e8001404980018027800094a780083
:10325000040ce80015c0b30064a52000054a7800fe
:10326000ea8f540018003a00050037008800780003
:10327000094078001700070080047800120037002a
:10328000380290000410b2000f00320018019000c4
:10329000a800900048009000bcf5070018029000bc
:1032a000840f500004003200380290000403b30081
:1032b000340498008084eb000002eb0014049800b2
:1032c00028029000040c7800090078004f04be002a
:1032d000000006000200fa00889fbe00a0ff9f00c9
:1032e0000104780038029000840278000504b200de
:1032f000020032000000fb0035003700e2026200ed
:1033000005003a000403b300340498001504980043
:103310000080eb002e003700d8049000e08f5400ae
:1033200006003a0012002000e68057004800900096
:1033300096f507001904980023003700a8029000b2
:10334000e08f520008003a0095a52000250498005f
:10335000050c7800250020005504980015049800fd
:103360000430a0003404980018019000a8009000d8
:103370004800900085f50700280290008082eb004d
:1033800015049800affa9700054a7800040ce8008d
:103390002ffa9700ea4f52000b003a0038029000d3
:1033a0000410b2000800320018019000a80090003c
:1033b0004800900075f507000002eb001404980027
:1033c000a8029000050c78002ffa97000400fb007b
:0c33d0004f04be000080fa000000060060
:020000040000fa
:1033dc00546900006d650000723a00002025000061
:1033ec0030320000643a00002530000032640000e6
:1033fc002e25000030330000640000002530000052
:10340c003275000020630000796300002c2000005e
:10341c00253200002e340000662000006d73000081
:04342c00000000009c
:020000040000fa
:103430000000fa0062002000014020000000280087
:1034400023fa070000802e003100200007f4070057
:103450000080fa00000006000200fa00004f780029
:10346000010037000000000023c2bf00624060007e
:103470000004e000fbff3a001e80fb0020118800e2
:10348000010037000000000023c2bf00614060005f
:103490000004e000fbff32000080fa00000006009c
:1034a0000600fa0010079800414798000040eb0022
:1034b000004f7800070037001e80fb008000780076
:1034c0001e0090000080400010407800e2ff0700de
:1034d0001e4fe8004e4090009e4f1000f6ff39004e
:1034e0000080fa00000006000200fa00004f780099
:1034f000c0c7b300d8ff07001e407800d6ff070002
:103500000080fa00000006000000fa00c0c7b30007
:10351000d1ff07000040eb00cfff07000080fa005a
:10352000000006000200fa00000f7800c0c7b300d8
:10353000c9ff070010c0b300c7ff07001e007800d6
:10354000c5ff07000080fa00000006000200fa0034
:10355000000f7800c0c7b300bfff070020c0b30052
:10356000bdff07001e007800bbff07000080fa00c7
:10357000000006000800fa00000f7800110798000c
:103580002207980033079800c0c7b300b2ff0700b6
:1035900030c0b300b0ff07001e007800aeff070088
:1035a0001e009000acff07002e009000aaff07004d
:1035b0003e009000a8ff07000080fa00000006000f
:1035c0000000fa00c0c7b300a3ff070040c0b3006b
:1035d000a1ff07000080fa00000006000800fa00c2
:1035e000000f780011079800220798003307980011
:1035f000c0c7b30098ff070050c0b30096ff070094
:103600001e00780094ff07001e00900092ff070044
:103610002e00900090ff07003e0090008eff0700f4
:103620000080fa00000006000000fa00c0c7b300e6
:1036300089ff070060c0b30087ff07000080fa0021
:10364000000006000200fa00000f78001e00e000f3
:1036500002003c0010002000000f780060002000f5
:103660009e0f10000200340060002000000f780060
:10367000c0c7b30078ff070070c0b30076ff070033
:103680001e00780074ff07000080fa0000000600aa
:103690000000fa00c0c7b3006fff070080c0b3008e
:1036a0006dff07000080fa00000006000200fa002b
:1036b000000f7800c0c7b30067ff0700a0c0b300c9
:1036c00065ff07001e00780063ff07000080fa0016
:1036d000000006000800fa00000f780011079800ab
:1036e0002207980033079800c0c7b3005aff0700ad
:1036f000b0c0b30058ff07001e00780056ff070057
:103700001e00900054ff07002e00900052ff07009b
:103710003e00900050ff07000080fa000000060005
:103720000a00fa00000f780011079800220798009d
:103730003307980044079800c0c7b30046ff07004e
:10374000c0c0b30044ff07001e00780042ff07001e
:103750001e00900040ff07002e0090003eff070073
:103760003e0090003cff07004e0090003aff07002b
:103770000080fa00000006000a00fa001007980016
:10378000210798003207980043079800c0c7b3008c
:1037900031ff0700d0c0b3002fff07001e009000cc
:1037a0002dff07002e0090002bff07003e00900029
:1037b00029ff07000000eb00000f7800070037002a
:1037c0001e007800800078004e00900000804000cd
:1037d0001040780020ff07001e0fe800f0012000d5
:1037e0009e0f1000f6ff34000080fa000000060073
:1037f0000a00fa00000f78001107980022079800cd
:103800003307980044079800c0c7b30012ff0700b1
:10381000f0c0b30010ff07001e0078000eff070085
:103820001e0090000cff07002e0090000aff07000a
:103830003e00900008ff07004e00900006ff0700c2
:103840000080fa00000006000600fa00000f780071
:103850001107980022079800c0c7b300fefe0700ba
:1038600000c1b300fcfe0700000820009e0f1000fe
:103870000300340000c8b300f7fe0700070037005c
:103880001e00e00003003d000040eb00f2fe0700d8
:10389000020037001e007800effe07009e00900037
:1038a00000042000808f50000300340000c4b300e7
:1038b000e9fe0700080037001e0090000000e0004d
:1038c00003003d000040eb00e3fe0700020037006c
:1038d0001e009000e0fe07002e009000e10f500057
:1038e000060032002e0090000000e00003003200cd
:1038f00010c0b300d8fe0700020037002e00900071
:10390000d5fe07000080fa00000006000a00fa0059
:10391000000f7800110798002207980033079800dd
:10392000044f9800c0c7b300cbfe070020c1b3000e
:10393000c9fe07001e007800c7fe07001e009000a9
:10394000c5fe07002e009000c3fe07003e00900059
:10395000c1fe07000e489000bffe07000080fa007d
:10396000000006000000fa00c0c7b300bafe07005e
:1039700040c1b300b8fe07000080fa000000060056
:103980000000fa00c0c7b300b3fe070050c1b30087
:10399000b1fe07000080fa00000006000e00fa00e9
:1039a00010079800210798003207980043079800f5
:1039b0005407980065079800c0c7b300a6fe07002b
:1039c00060c1b300a4fe07001e009000a2fe070025
:1039d0002e009000a0fe07003e0090009efe070013
:1039e0004e0090009cfe07005e0090009afe0700cb
:1039f000ce0090005e0090000088b9008200200098
:103a0000110009000200d800000f78000000eb0050
:103a100010079800090037001e0090008000780011
:103a20006e00900000804000104078008afe070081
:103a30001e0090000000e800100798001e00900093
:103a40009e0f5000f4ff35000080fa0000000600d1
:103a50000400fa00000f780011079800c0c7b300f7
:103a60007dfe070080c1b3007bfe07001e007800ca
:103a700079fe0700c0c7b30077fe070090c1b3000e
:103a800075fe07001e00900073fe07000080fa001c
:103a9000000006000400fa00100798001e009000c5
:103aa000e80f500003003400800020001007980049
:103ab0000c0037001e0090000000e00003003c00f6
:103ac0001000200010079800060037001e0090002c
:103ad0004300dd00680f50009e00780010002000b9
:0c3ae000dbff07000080fa000000060079
:020000040000fa
:103aec0000080000060000000200000000000000ba
:103afc00000000005c0a0000020000000200000050
:103b0c0001000000560a0000060000000000000042
:103b1c00300a00002600000002000000570a0000d6
:103b2c0000570a000900000000020000590a0000ba
:103b3c0000590a000e020100000000000000000005
:103b4c00000000000602020000000000300a000025
:103b5c00060a00002a00000002000000303132008a
:103b6c003334350036373800394142004344450080
:103b7c0046003000313233003435360037383900e6
:103b8c00616263006465660000286e00756c6c00f1
:103b9c002900000066090000a000000002000000df
:103bac00010000000000000000000a0000000000fe
:103bbc000000000000640000000000000000000095
:103bcc00e8030000000000000000100027000000c7
:103bdc000000000000a086000100000000000000b2
:103bec0040420f000000000000008000969800008a
:103bfc00000000000000e100f505000000000000de
:103c0c0000ca9a003b00000000000000e40b5400c6
:103c1c00020000000000e8007648170000000000d9
:103c2c000010a500d4e8000000000000a0724e00b7
:103c3c0018090000000040007a10f3005a00000040
:103c4c000080c600a47e8d000300000000c16f0040
:103c5c00f2862300000000008a5d780045630100b5
:103c6c0000006400a7b3b600e00d000000e8890076
:103c7c000423c7008a000000060800006001000051
:103c8c00020000000000000000000000f03f0000f7
:103c9c0000000000000024004000000000000000b4
:103cac000059400000000000000040008f40000060
:103cbc00000000000088c30040000000000000006d
:103ccc006af8400000000000008084002e410000d3
:103cdc0000000000d01263004100000000008400ce
:103cec00d7974100000000000065cd00cd410000d9
:103cfc00000020005fa002004200000000801d00b8
:103d0c00af1544000000000040593e002946000059
:103d1c00000000000000f0007f0000000000000028
:103d2c0000f07f000000000000000000f07f0000a9
:103d3c00000000000000f0007f0000000000000008
:103d4c0000f07f000000000000000000f07f000089
:103d5c00000000000000f0007f00000000000000e8
:103d6c0000f07f000000000000000000f07f000069
:103d7c00000000000000f0003f00000000a09900cf
:103d8c0099b93f000000000040e17a00843f000038
:103d9c000000e0004d6250003f00000000e0e20037
:103dac00361a3f000000000080b5f800e43e000029
:103dbc000000a000f7c6b0003e00000000a0f2001a
:103dcc00d77a3e0000000000e08e7900453e0000ee
:103ddc000000e0000b2e11003e00000000e0df00b0
:103dec007cdb3d000000000000a19c00c73b0000f4
:103dfc00000000004c48b400390000000000200016
:103e0c006ca1370000000000000000000000000062
:103e1c000000000000000000000000000000000096
:103e2c000000000000000000000000000000000086
:103e3c000000000000000000000000000000000076
:103e4c000000000000000000000000000000000066
:103e5c000000000000000000000000000000000056
:020000040000fa
:0200000401f009
:04000800ffff0000f6
:020000040000fa
:0200000401f009
:04000c00fbff0000f6
:020000040000fa
:0200000401f009
:04001000fdff0000f0
:020000040000fa
:0200000401f009
:040014007fff00006a
:00000001FF
